:030000000218B82B
:0C18B800787FE4F6D8FD7581620218FF0D
:10194400025000000252000002540000025600003F
:0E1B3F0000007F7A7EC17D80DDFEDEFCDFFAD5
:011B4D002275
:101A6400121B2C120026121B69121B3FA297E4338F
:101A7400F51A121B3FD2AF3002FDE519640170F76D
:0C1A8400121617E4F519C202D2AC80EB78
:101954004A000055AA00000000000000FF59000AD8
:101964000000000000000000000000000000000073
:10197400000000000000000000011B00021900002C
:0F19840001100004110000000004150000000015
:10182400FEEF2555F555EE3554F55490000FE0FFC5
:011834001D96
:10183500E4FEFCED14B40800507490184D75F003E7
:10184500A4C58325F0C5837302186502186B0218B9
:101855007302187D02188802189102189B0218A6B7
:101865007C01EF5C80447C02EF5CC313803C7C040C
:10187500EF5C1313543F80327C08EF5C1313135451
:101885001F80277C10EF5CC4540F801E7C20EF5C0A
:10189500C413540780147C40EF5CC41313540380B5
:1018A50009EF5480C41313135401FF7E00227E00F8
:0218B5007F02B0
:0118B700220E
:10004600E51964017003020655740A251BF582E45E
:100056003400F583EFF0E51BB419004003020652A5
:1000660090006DF82828730200B80200CB0200CB7E
:100076000200CB0200CB0200CB0200CB0200CB0277
:1000860000CB0200CB0200CB0200CB0200CB020069
:10009600CB0200CB0200CB0200CB0200CB0200CB8E
:1000A6000200CB0200CB0200CB0200CB0200CE0244
:1000B60000E2740A251BF582E43400F583E0640F40
:1000C6007017051B22051B22740A251BF582E434D2
:1000D60000F583E07003051B22020652740A251BF5
:1000E600F582E43400F583E0600302065090000CCC
:1000F600E0FF7D03121835EF75510025E025E0F588
:100106005090000CE0FF1D121835EF25E0FEE425A7
:1001160051F551EE3550F55090000CE0FF1D1218C8
:1001260035EFFEE42551F551EE3550F55090000BB4
:10013600E0FF7D08121835EF7807C333CE33CED8EB
:10014600F92551F551EE3550F55090000BE0FF7D45
:1001560007121835EF7806C333CE33CED8F92551BA
:10016600F551EE3550F55090000BE0FF7D06121864
:1001760035EF7805C333CE33CED8F92551F551EE98
:100186003550F55090000BE0FF7D05121835EFC491
:10019600F8540FC868FFEEC454F048FEEF2551F539
:1001A60051EE3550F55090000BE0FF1D121835EF5B
:1001B6007803C333CE33CED8F92551F551EE3550F9
:1001C600F55090000BE0FF7D03121835EF7802C35F
:1001D60033CE33CED8F92551F551EE3550F5509042
:1001E600000BE0FF7D02121835EF25E0FFEE33FE2F
:1001F600EF2551F551EE3550F55090000BE0FF1DFF
:10020600121835EF2551F551EE3550F55090000D89
:10021600E0FF7D06121835EF75530025E025E0F561
:100226005290000DE0FF1D121835EF25E0FEE42583
:1002360053F553EE3552F55290000DE0FF1D12189E
:1002460035EFFEE42553F553EE3552F55290000D89
:10025600E0FF1D121835EF7807C333CE33CED8F939
:100266002553F553EE3552F55290000DE0FF7D0211
:10027600121835EF7806C333CE33CED8F92553F5A9
:1002860053EE3552F55290000DE0FF7D0112183500
:10029600EF7805C333CE33CED8F92553F553EE3573
:1002A60052F55290000CE0FF7D08121835EFC4F8A5
:1002B600540FC868FFEEC454F048FEEF2553F553BB
:1002C600EE3552F55290000CE0FF1D121835EF780E
:1002D60003C333CE33CED8F92553F553EE3552F555
:1002E6005290000CE0FF7D06121835EF7802C333FA
:1002F600CE33CED8F92553F553EE3552F55290004C
:100306000CE0FF7D05121835EF25E0FFEE33FEEF1A
:100316002553F553EE3552F55290000CE0FF1D12B1
:100326001835EF2553F553EE3552F552900010E08F
:10033600FF121835EF75550025E025E0F5549000BD
:1003460010E0FF1D121835EF25E0FEE42555F555A2
:10035600EE3554F554900010E0FF1D121835EFFEEF
:10036600E42555F555EE3554F554900010E0FF1D83
:10037600121835EF7807C333CE33CED8F92555F5A5
:1003860055EE3554F55490000FE0FF7D08121835F0
:10039600EF7806C333CE33CED8F92555F555EE356D
:1003A60054F55490000FE0FF7D07121835EF7805DD
:1003B600C333CE33CED8F92555F555EE3554F5541D
:1003C60090000FE0FF7D06121835EFC4F8540FC8F1
:1003D60068FFEEC454F048121824EF7803C333CEF6
:1003E60033CED8F92555F555EE3554F55490000F12
:1003F600E0FF7D04121835EF7802C333CE33CED832
:10040600F92555F555EE3554F55490000FE0FF7D6E
:1004160003121835EF25E0FFEE33121824121825C3
:10042600EF75570025E025E0F55690000EE0FF7DBC
:1004360008121835EF25E0FEE42557F557EE355638
:10044600F55690000EE0FF1D121835EFFEE4255715
:10045600F557EE3556F55690000EE0FF1D1218358D
:10046600EF7807C333CE33CED8F92557F557EE3597
:1004760056F55690000EE0FF7D05121835EF78060A
:10048600C333CE33CED8F92557F557EE3556F55644
:1004960090000EE0FF7D04121835EF7805C333CEC9
:1004A60033CED8F92557F557EE3556F55690000E4A
:1004B600E0FF7D03121835EFC4F8540FC868FFEE4D
:1004C600C454F048FEEF2557F557EE3556F55690CD
:1004D600000EE0FF1D121835EF7803C333CE33CE7E
:1004E600D8F92557F557EE3556F55690000EE0FF2C
:1004F6007D01121835EF7802C333CE33CED8F925F5
:1005060057F557EE3556F55690000DE0FF7D08126B
:100516001835EF25E0FFEE33FEEF2557F557EE359C
:1005260056F55690000DE0FF1D121835EF2557F5CC
:1005360057EE3556F556900011E0FD7C0064C0700C
:100546001AA3E064027014A3E06417700EA3E064BB
:10055600187008900006E054FE8019ED64C04C70D7
:1005660019900012E0F47012A3E06414700C90006D
:1005760006E04401F054FDF0801C900011E0644058
:100586007014A3E07010A3E06416700A900006E0F1
:100596004402F054FEF0900011E0FA64C0701AA311
:1005A600E064027014A3E06417700EA3E064187090
:1005B60008900006E054FB801D900012E0FD7C00D0
:1005C60064027018A3E064037012A3E06410700C58
:1005D600900006E04404F054F7F0801DED64024CF0
:1005E6007017900013E0F47010A3E06407700A908F
:1005F6000006E04408F054FBF0EA64C07010900076
:1006060010E064087008900006E054EF801990002E
:1006160011E0FD7C0064C27014900010E064387034
:100626000C900006E04410F054DFF08018ED64E909
:100636004C7012900010E06448700A900006E04486
:1006460020F054EFF0751901C2AC8000E4F51B22CE
:080C09008F2F8E2E8D2D8C2CF7
:100C1100E4F532E51A64016003020E12D3E5319462
:100C210032E53094005003020DB9E4FFFE7DB47C3F
:100C310041AB2FAA2EA92DA82C1208F46002501244
:100C4100E4FFFEFDFCAB2FAA2EA92DA82C1208F45F
:100C5100502D7F007EC07DA87C43AB2FAA2EA92DED
:100C6100A82C1208F4601E401CE4FFFE7DB47C43F6
:100C7100AB2FAA2EA92DA82C1208F46002500675DC
:100C81003201020DB9E4FFFE7D877C42AB2FAA2E13
:100C9100A92DA82C1208F46002501CE4FFFE7DB4BB
:100CA1007C41AB2FAA2EA92DA82C1208F460084074
:100CB10006753202020DB9E4FFFE7DE17C42AB2FE5
:100CC100AA2EA92DA82C1208F46002501CE4FFFEE4
:100CD1007D877C42AB2FAA2EA92DA82C1208F46087
:100CE100084006753203020DB97F007E807D1D7CB0
:100CF10043AB2FAA2EA92DA82C1208F46002501C78
:100D0100E4FFFE7DE17C42AB2FAA2EA92DA82C1277
:100D110008F460084006753204020DB97F007E8038
:100D21007D4A7C43AB2FAA2EA92DA82C1208F46072
:100D310002501C7F007E807D1D7C43AB2FAA2EA913
:100D41002DA82C1208F46007400575320580697FD3
:100D5100007E807D777C43AB2FAA2EA92DA82C1273
:100D610008F46002501C7F007E807D4A7C43AB2FDB
:100D7100AA2EA92DA82C1208F46007400575320689
:100D810080367F007E407D927C43AB2FAA2EA92D19
:100D9100A82C1208F46002501C7F007E807D777CB5
:100DA10043AB2FAA2EA92DA82C1208F460074005E9
:100DB1007532078003753208AF10EF64036005EFE9
:100DC10064077022AF327E00EF64026005EF6408B1
:100DD100700575100A800FEF64044E6006EF64061B
:100DE1004E7003751009AF32EF6402600FEF6404B7
:100DF100600AEF64066005EF6408700FAF10EF64DE
:100E01000A6005EF64097003851032853210020E05
:100E1100E6E51A6003020EE6D3E5319432E530943B
:100E2100005003020EE6E4FFFE7D347C42AB2FAAA4
:100E31002EA92DA82C1208F460025012E4FFFEFD29
:100E4100FCAB2FAA2EA92DA82C1208F4502D7F003F
:100E51007E807D9D7C43AB2FAA2EA92DA82C120844
:100E6100F4601D401BE4FFFE7DB47C43AB2FAA2E32
:100E7100A92DA82C1208F46002500575320980656D
:100E8100E4FFFE7D077C43AB2FAA2EA92DA82C12CF
:100E910008F46002501BE4FFFE7D347C42AB2FAAB4
:100EA1002EA92DA82C1208F4600740057532038085
:100EB10034E4FFFE7D617C43AB2FAA2EA92DA82C23
:100EC1001208F46002501BE4FFFE7D077C43AB2F48
:100ED100AA2EA92DA82C1208F46007400575320A24
:070EE1008003753207AF32F8
:010EE80022E7
:10161700E4F529F52AF52BF533753400753521FBEB
:101627007A007915AD53AC52AF51AE501210E98F15
:10163700288E278D268C25752901752A00752B0480
:10164700AF24AE23AD22AC211209ABAB29AA2AA93C
:101657002BEE8FF0120ABDAF24AE23AD22AC2112C0
:1016670009AB8E308F31AF28AE27AD26AC25120CD3
:1016770009900004E0FEEF25E025E0FFEE4FF0754E
:1016870033007534007535217B007A007911AD5729
:10169700AC56AF55AE541210E98F288E278D268C85
:1016A70025752901752A00752B021209ABAB29AAEA
:1016B7002AA92BEE8FF0120ABD7B017A0079007DF3
:1016C700077C001219E7900007EFF0A3EEF07B010B
:0916D7007A0079007D0A021B0E65
:0E10E9008E2C8F2D8B308A3189328D828C8334
:1010F700E4F539F538F537F536F53DF53CF53BF5CB
:101107003A252DF53FE52C34FCF53EE42582F541E3
:10111700E58334FCF540FCAD41120972E4F549F56D
:1011270048F547754640121500C004C005C006C003
:1011370007AC3EAD3FEC120972E4F549F548F547B7
:10114700754640121500D003D002D001D000120618
:101157005D1216E48F3D8E3C8D3B8C3AAB33AA343F
:10116700A935120B0AE4FFFEFDFCAB3DAA3CA93BE7
:10117700A83A1208F46033AC40AD41EC120972ABE7
:101187003DAA3CA93BA83A120857121A29E4FBFAD0
:101197007934784312074E7BDA7A0F79497840120F
:1011A70008578F398E388D378C36AB33AA34A9352B
:1011B700120AEAE4FBFA792578441208F4500DABD9
:1011C70033AA34A935120B4444250000AF39AE3891
:1011D700AD37AC36E4FBFAF9F81208F46002500BAD
:1011E700C3E53E6480948050028021AF39AE38ADAC
:1011F70037AC36E4FBFAF9F81208F460234021D340
:10120700E53F9400E53E648094805014AB39AA38DA
:10121700A937A836E4FFFE7D347C43120659803394
:10122700AF39AE38AD37AC36E4FBFAF9F81208F44B
:1012370060294027D3E53F9400E53E6480948040D1
:101247001AE4FFFE7DB47C43AB39AA38A937A83628
:1012570012065D8F398E388D378C36E4FFFE7DB4EC
:101267007C43AB39AA38A937A8361208F460134073
:1012770011AB30AA31A932120AEA8F398E388D376D
:101287008C36AF39AE38AD37AC36AB30AA31A93270
:0B129700120B0AAF39AE38AD37AC3691
:0112A2002229
:0A199300C102021E0000021C000049
:10002600438E805389F0758A40758CA2C28DD28C1E
:03003600D2A9222A
:03000B0002199E39
:10199E00C0E0C0D075D000C006C007758A40758CF7
:1019AE00A2051FE51F7002051E6432451E7006F566
:1019BE001EF51FD202051DE51D7002051CFFAE1C93
:1019CE00BE010BBFF408751C00751D00B2B4C28DAC
:0919DE00D007D006D0D0D0E032D1
:03002300021A902E
:101A9000C0E0C0F0C083C082C0D075D008309807C5
:101AA000C298AF99120046D0D0D082D083D0F0D067
:021AB000E03222
:101B2C00439850758BC4758DFFD28E438E40D2ACCA
:031B3C00D2AF2203
:061B4E0014F9120AA4FFC5
:081B54008F993099FDC299221E
:101AB2008B588A59895AAB58AA59A95A120AA46052
:0F1AC2000D055AE55A70020559121B4E80E82295
:101AF0008B5B8A5C895DAF051DEF6011AB5B055D9B
:0E1B0000E55DAA5C7002055C121B4E80E922B6
:03004300021B5C41
:0D1B5C00C0E0E59A30E003539AFED0E0327D
:0D1B6900439A5075D7C475D6FF438E1422E1
:06000E0014F9120AA4FF20
:0E0014008F9BE59A5402640270F8539AFD2205
:101AD1008B5E8A5F8960AB5EAA5FA960120AA4600F
:0F1AE1000D0560E5607002055F12000E80E822BF
:101B0E008B2C8A2D892EAF051DEF6011AB2C052E67
:0E1B1E00E52EAA2D7002052D12000E80E92280
:100EE90000C1814001C0804101C0804100C18140F1
:100EF90001C0804100C1814000C1814001C08041E1
:100F090001C0804100C1814000C1814001C08041D0
:100F190000C1814001C0804101C0804100C18140C0
:100F290001C0804100C1814000C1814001C08041B0
:100F390000C1814001C0804101C0804100C18140A0
:100F490000C1814001C0804101C0804100C1814090
:100F590001C0804100C1814000C1814001C0804180
:100F690001C0804100C1814000C1814001C0804170
:100F790000C1814001C0804101C0804100C1814060
:100F890000C1814001C0804101C0804100C1814050
:100F990001C0804100C1814000C1814001C0804140
:100FA90000C1814001C0804101C0804100C1814030
:100FB90001C0804100C1814000C1814001C0804120
:100FC90001C0804100C1814000C1814001C0804110
:100FD90000C1814001C0804101C0804100C1814000
:100FE90000C0C101C30302C2C60607C705C5C404C0
:100FF900CC0C0DCD0FCFCE0E0ACACB0BC90908C830
:10100900D81819D91BDBDA1A1EDEDF1FDD1D1CDC1F
:1010190014D4D515D71716D6D21213D311D1D0108F
:10102900F03031F133F3F23236F6F737F53534F47F
:101039003CFCFD3DFF3F3EFEFA3A3BFB39F9F838EF
:1010490028E8E929EB2B2AEAEE2E2FEF2DEDEC2CDF
:10105900E42425E527E7E62622E2E323E12120E04F
:10106900A06061A163A3A26266A6A767A56564A43F
:101079006CACAD6DAF6F6EAEAA6A6BAB69A9A868AF
:1010890078B8B979BB7B7ABABE7E7FBF7DBDBC7C9F
:10109900B47475B577B7B67672B2B373B17170B00F
:1010A90050909151935352929656579755959454FF
:1010B9009C5C5D9D5F9F9E5E5A9A9B5B995958986F
:1010C900884849894B8B8A4A4E8E8F4F8D4D4C8C5F
:1010D90044848545874746868242438341818040CF
:0619E7008B2C8A2D892ED5
:1019ED007561FF7562FFED1DAE0470011C4E602523
:1019FD00AB2C052EE52EAA2D7002052D14F9120A19
:101A0D00A46561FF900EE9936562F561EF900FE9B2
:0B1A1D0093F56280D1E561FEE562FFF9
:011A2800229B
:10065600020A17E86480F8E933E83360110460F0B1
:10066600ED33EC337009E8FCE9FDEAFEEBFF22040A
:1006760060DED3EB9FEA9EE99DE8C2E78CF0C2F705
:1006860095F0400CE8CCF8E9CDF9EACEFAEBCFFBD1
:100696001209E285D0F05804700320D5B3E804703F
:1006A600075002B2D5020A2192D5EC0460F7E4CCD9
:1006B600C0E0C398F8603B94186008400DD0E0FB9A
:1006C6000209F9E4FBFAC9FC8028E830E406E4C92B
:1006D600FBE4CAFCE830E305E4C9CACBFCE85407EE
:1006E6006010F8C3E913F9EA13FAEB13FBEC13FCF9
:1006F600D8F130F52FC3E49CFCEF9BFFEE9AFEED9C
:1007060099FDD0E0FBEF4E4D4C701222DB03020A3E
:100716001EEC2CFCEF33FFEE33FEED33FDED30E740
:10072600EB0209F9EF2BFFEE3AFEED39FDD0E0FBC7
:1007360050130BBB0003020A21ED13FDEE13FEEF6F
:0807460013FFEC13FC0209F99A
:10074E00EC4D6011E8497017ED33EC3304600DE4A5
:10075E00FCFFFEFD22E933E8330470F8020A17129B
:10076E0009E258046009E4CC24815006285009029D
:10077E000A21284003020A1EC0E0EB4A7044B980E9
:10078E0006D0E0FB020A0DEF4E701CBD8008EBFF99
:10079E00EAFEE9FD80EBE98DF0A4FEE5F0020837F4
:1007AE00E9CDF9EAFEEBFFEF89F0A4FCE5F0CE8986
:1007BE00F0A42EFFE435F0CD89F0A42DFEE435F043
:1007CE008067EF4E7005BD80D780C3EF8BF0A4AC71
:1007DE00F0EE8BF0A42CFCE435F0F8EF8AF0A42CAC
:1007EE00E5F038FCE433CB8DF0A42CFCE5F03BF8BF
:1007FE00EE8AF0A42CFCE5F038F8E433CF89F0A4AF
:10080E002CFCE5F038CF3400CE89F0A42FFFE5F0B4
:10081E003EFEE433C98DF0A42EFEE5F039CD8AF00C
:10082E00A42FFFE5F03EFEE43DFD33D0E0FB500784
:10083E000BBB000F020A21EC2CFCEF33FFEE33FE54
:06084E00ED33FD0209F983
:10085400020A21EC5D046005E859047003020A17DA
:100864001209E2580460F6EC4860F2EC7004FDFEF4
:10087400FF22C860DB2481C85009C3986002500677
:10088400020A1E9850CAF582E9294B4A7005AB82C8
:10089400020A0D75F0007C1A7880C3EF9BEE9AED86
:1008A40099400DC3EF9BFFEE9AFEED99FDE842F0EF
:1008B400DC23ACF0D0E0FFD0E0FED0E0FDAB822042
:1008C400E7101BEB60BAEC2CFCEF33FFEE33FEEDCC
:1008D40033FD0209F9E803F830E705C0F075F000CC
:1008E400EF2FFFEE33FEED33FD40B830E7C280AAB0
:1008F40074F8CC6480CCC86480C8F58204604FC3AB
:10090400EB9FF5F0EA9E42F0E99D42F0E89C45F049
:10091400603C501DE5825FFFE582D313CB5BCBF4D3
:100924002B5582FB50280ABA002409B900200880FC
:100934001DE5825BFBE582D313CF5FCFF4C3132F96
:100944005582FF50090EBE00050DBD00010CC3EB1E
:100954009FF5F0EA9E42F0E99D42F0E89C45F06084
:0909640007CC4820E701B3EC22A6
:10096D0075F020800E75F010800575F0087D007E05
:10097D00007F003392D530D503120ADCEC334010E2
:10098D00EF33FFEE33FEED33FDEC33FCD5F0ED220E
:0E099D00E5F0247EA2D513CC92E7CDCEFF224A
:1009AB00EDD2E7CD33EC3392D524814006E4FFFE44
:1009BB00FDFC22FCE4CFCECDCC24E0501174FF80A3
:1009CB00EDC3CC13CCCD13CDCE13CECF13CF047040
:0709DB00F030D5DE020ADC5A
:1016E000020A1722EDA2E7D2E7F9EC3340F260F3E9
:1016F000B4FF08ED547F70E8020A21F82481C2E0AB
:10170000C0E0F40428FAC313FCED92E7FD8C428D8F
:10171000438E448F45EEA2E7E9BA7F02C31334003B
:101720009400FA75F091A4E5F013F494FE8AF0A405
:1017300033E5F033248CD313FDE492E7FE7F007C85
:101740003F758302ECC0E0F8EDC0E0F9EEC0E0FACE
:10175000EFC0E0FBAC42AD43AE44AF45120857D0FA
:10176000E0FBD0E0FAD0E0F9D0E0F812065DED64DD
:1017700080FD30E7011CD583CBED33CC33F8D0E0CE
:0A178000A2E71328C313CC13FD22C7
:101A2900ECC0E0F8EDC0E0F9EEC0E0FAEFC0E0FB91
:101A390012074EEC6480FC7B007A007980783F12B3
:101A4900065D1216E4D0E0CFFBD0E0CEFAD0E0CDAF
:0B1A5900F9D0E0CCF81208570213F897
:101500008F458E448D438C42E4FFFE7D807C3FAB53
:1015100045AA44A943A8421208F47009AF45AE4455
:10152000AD43AC4222AF45AE44AD43AC42120A2CAF
:10153000FBAF49AE48AD47AC46120A2CFFBF0108CD
:10154000E4FFFE7D807C3F22EF64046022EB6404B4
:10155000601DBB0127E4FFFEFDFCAB49AA48A9477B
:10156000A8461208F460084006E4FFFEFDFC227461
:10157000FFF549F548F547F54602160EE4F54AF53C
:101580004BFFFEFDFCAB45AA44A943A8421208F458
:10159000504BAF49AE48AD47AC461209AB8E4A8FAF
:1015A0004BAC4AAD4BEC120972C8ECC8C9EDC9CAC4
:1015B000EECACBEFCBAF49AE48AD47AC46120659A9
:1015C000E4FBFAF9F81208F470A5AF45AE44AD4358
:1015D000AC42120A468F458E448D438C42AF45AED5
:1015E00044AD43AC421212D7AB49AA48A947A8461A
:1015F00012074E1217C28F498E488D478C46E54B15
:1016000030E00B120A468F498E488D478C46AF4911
:07161000AE48AD47AC4622D5
:1009E200E9D2E7C933E833F892D5EDD2E7CD33EC5B
:0709F20033FC5002B2D522D4
:1009F900EC30E7100FBF000C0EBE00080DBD00045F
:100A09000BEB6014A2D5EB13FCED92E7FD2274FF0A
:100A1900FCFDFEFF22E480F8A2D574FF13FC7D8063
:030A2900E480EF77
:100A2C00ED33EC33601004700FED547F70057402DD
:0A0A3C0092E0227404220422E42256
:100A4600ED33EC33600A047003BD8004ECB2E7FCBE
:010A5600227D
:10178A0033DA929E35B16011377FE5FE39218489BB
:10179A003AAEC3FF3C1D955B3D6358473E75FDF06D
:1017AA003F3172183F800000C2D5020A21020A178F
:1017BA00BD80FA50F3020A1EED33EC330460F17B6C
:1017CA003B7AAA79B8783F12074EED33EC3392D5BB
:1017DA00247B5011A2D570DB500BED4480240450B9
:1017EA0004A2D580CEEFFBEEFAEDF9ECF81209ABC4
:1017FA00EFF582F404FC12097712065DC082901795
:10180A008A7409120A66ED33CC33D0F092D525F0EA
:0A181A00A2D57001C313CC13FD2208
:1012A3003E9248DA3ECCCCCD3F2AAAAB40000000A8
:1012B3003F8000003F9837F03FB504F33FD744FC2D
:1012C3003E3172173EB172173F0515913EDE5BD971
:1012D300D2008002C200EDD2E7F8CD33EC330470C4
:1012E3000BBD800592D5020A21020A1740FBD314D5
:1012F30060F2F5F07C3FEE7A00C39496C8948B407D
:10130300230AC89469C8941A401A0AC89468C894EE
:101313001F40110AC8945AC89425400805F07A0062
:10132300CDC2E7CDC0F08C4C8D4D8E4E8F4FEA234E
:1013330023C0E024B3F582E43412F583120B341294
:10134300065DECC0E0EDC0E0EEC0E0EFC0E0120BE4
:1013530024A84CA94DAA4EAB4F120659D0E0FBD09E
:10136300E0FAD0E0F9D0E0B2E7F81208578C4C8DE0
:101373004D8E4E8F4F9012A37403120A57A84CA997
:101383004DAA4EAB4F12074ED0E0600F24BFF5823B
:10139300E43412F583120B3412065D8C4C8D4D8EA2
:1013A3004E8F4FD0E0C3947FFDE49400FC1209728A
:1013B3007B187A727931783F12074EA84CA94DAA4F
:1013C3004EAB4F12065D30000B7BD97A5B79DE782A
:0513D3003E12074E224E
:1013D800BE1249253E4CCCCDBEAAAAAB3F80000028
:1013E8003E7ADBB03EED63383F24BC7D3F490FDBDE
:1013F800ED33ECC2E7CC339200B4FF13ED547F60B9
:1014080003020A177FDB7E0F7DC97C3F0214F3C2FB
:1014180001C3947F401E7007EDD2E794904015EF0A
:10142800FBEEFAEDF9ECF87F007E007D807C3F1240
:101438000857D201ED33EC33248430E705E4C0E0EB
:10144800806D04FAEDD2E754F0C333DAFD54073463
:10145800002323C0E0CCC0E0F8EDC0E0F9EEC0E026
:10146800FAEFC0E0FBE4120977EC24FEFC8C428D15
:10147800438E448F4512074E7B007A007980783F6F
:1014880012065DECC542B2E7FCEDC543FDEEC5446E
:10149800FEEFC545FFD0E0FBD0E0FAD0E0F9D0E0A0
:1014A800F812065DA842A943AA44AB451208578C16
:1014B800428D438E448F459013D87403120A57A85F
:1014C80042A943AA44AB4512074ED0E0600F24E47A
:1014D800F582E43413F583120B3412065D30010BE8
:1014E8007BDB7A0F79C978BF12065DED33EC336088
:0814F80006ECA20092E7FC22C1
:100A5700C0E0EFFBEEFAEDF9ECF812074ED0E0F547
:100A6700F0EFFBEEFAEDF9ECF8120B24A3A3A3A326
:100A7700E8C0E0E9C0E0EAC0E0EBC0E0C0F0120780
:100A87004E120B34A3A3A3A312065DD0F0D0E0FB54
:0D0A9700D0E0FAD0E0F9D0E0F8D5F0D4229C
:1018C400021A64E493A3F8E493A34003F68001F2BC
:1018D40008DFF48029E493A3F85407240CC8C33325
:1018E400C4540F4420C8834004F456800146F6DFF4
:1018F400E4800B0102040810204080901944E47E27
:10190400019360BCA3FF543F30E509541FFEE493E8
:10191400A360010ECF54C025E060A840B8E493A3AF
:10192400FAE493A3F8E493A3C8C582C8CAC583CADA
:10193400F0A3C8C582C8CAC583CADFE9DEE780BE92
:01199D000049
:100AA400BB010689828A83E0225002E722BBFE0250
:090AB400E32289828A83E4932283
:100ABD00BB010A89828A83F0E5F0A3F0225006F784
:0F0ACD0009A7F01922BBFE06F3E5F009F3192281
:0E0ADC00C3E49FFFE49EFEE49DFDE49CFC222B
:100AEA00BB010789828A83020B6A5005E9F8020B67
:100AFA005EBBFE05E9F8020B7689828A83020B2423
:100B0A00BB010789828A83020B8E5005E9F8020B22
:0A0B1A0082BBFE05E9F8020B9A22E7
:100B2400E493FC740193FD740293FE740393FF2217
:100B3400E493F8740193F9740293FA740393FB2217
:100B4400BB010789828A83020BBF5005E9F8020BB7
:0A0B5400A6BBFE05E9F8020BF02233
:0C0B5E00E6FC08E6FD08E6FE08E6FF22C3
:0C0B6A00E0FCA3E0FDA3E0FEA3E0FF22FE
:0C0B7600E2FC08E2FD08E2FE08E2FF22BB
:0C0B8200ECF608EDF608EEF608EFF6229F
:0C0B8E00ECF0A3EDF0A3EEF0A3EFF022DA
:0C0B9A00ECF208EDF208EEF208EFF22297
:100BA600D083D082E493F608740193F60874029316
:090BB600F608740393F67404734D
:100BBF00A8828583F0D083D082120BD6120BD61267
:100BCF000BD6120BD6E473E493A3C583C5F0C5838C
:100BDF00C8C582C8F0A3C583C5F0C583C8C582C880
:010BEF0022E3
:100BF000D083D082E493F208740193F208740293D4
:090C0000F208740393F27404730A
:00000001FF
