:020000040800F2
:1000000080090020153300089507000897070008AD
:100010009B0700089F070008A307000800000000D6
:10002000000000000000000000000000A70700081A
:10003000A907000800000000AB070008AD07000892
:100040002F3300082F3300082F3300082F33000808
:100050002F3300082F3300082F3300082F330008F8
:100060002F3300082F3300082F3300082F330008E8
:100070002F3300082F3300082F3300082F330008D8
:100080002F3300082F3300082F3300082F330008C8
:100090002F3300082F3300082F3300082F330008B8
:1000A0002F3300082F3300082F3300082F330008A8
:1000B000FB110008131200082B1200082F33000850
:1000C0002F3300082F3300082F3300082F33000888
:1000D0002F33000889320008610B0008310C00083A
:1000E0002F3300082F3300082F3300082F33000868
:1000F0002F3300082F3300082F3300082F33000858
:100100002F3300082F330008611200082F33000836
:100110002F3300082F330008931700080925000823
:100120002F3300082F330008030B0008210B0008B1
:10013000DFF80CD005F0CCF9004800474307000871
:10014000800900200B286FD2DFE800F006101B2684
:100150002F3C4754616F7A000022FE4B1A60FE4B21
:100160001A60FE4B1A60FE4B1A6089E0F94A116072
:100170004A42F94B1A60F94A11604A42F84B1A6038
:100180007EE0F44A11600022F34B1A60F34A1160DA
:100190000022F34B1A6073E0EE4A1160EE4A1160E0
:1001A000EE4A1160EE4A11606AE00022E94B1A60E3
:1001B0004A42E94B1A600022E84B1A604A42E84B77
:1001C0001A605DE04A42E34B1A60E34A11604A421A
:1001D000E24B1A60E24A116052E04A42DD4B1A607B
:1001E0000022DD4B1A604A42DC4B1A600022DC4BD5
:1001F0001A6045E04A42D74B1A604A42D64B1A6011
:100200004A42D64B1A604A42D54B1A6038E0002267
:10021000D04B1A604A42D04B1A600022CF4B1A6072
:100220004A42CF4B1A602BE015E04A42C94B1A6094
:100230004A42C94B1A60C94A1160C94A11601FE09D
:10024000C44A1160C44A11604A42C44B1A604A420F
:10025000C34B1A6014E00022C24B1A60C24BC3F8B1
:10026000B821C04B083B1A601B1F1A60BF4B1A60B5
:100270001B1F1A601B1F1A60BD4BC3F8802100BFF3
:1002800000BF70470B287DD2DFE800F0061B354E1B
:1002900069849EB6D1E9FE000021B24A1160B24ADB
:1002A000C2F8B811AF4A083A1160121F1160AF4A84
:1002B0001160121F1160121F1160AD4AC2F8801147
:1002C0001CE10021A74A11600121A74AC2F8B81118
:1002D000A44A083A11600021121F11600121A34AAB
:1002E00011600021121F1160121F11600121A04A2C
:1002F000C2F8801102E100219A4A116001219A4A54
:10030000C2F8B8110021974A083A1160121F116013
:100310000121964A11600021121F1160121F116005
:10032000934AC2F88011E9E000218E4A1160012150
:100330008D4AC2F8B81100218A4A083A1160012199
:10034000121F1160894A11600021121F11600121E2
:10035000121F11600021864AC2F88011CEE00021F0
:10036000804A1160804AC2F8B8117E4A083A11608A
:100370000121121F116000217C4A1160121F1160BF
:10038000012100E0A5E0121F11600021784AC2F8A7
:100390008011B3E00121734A11600021724AC2F852
:1003A000B811704A083A11600121121F1160002132
:1003B0006E4A11600121121F1160121F116000218D
:1003C0006B4AC2F8801199E00121664A1160002150
:1003D000654AC2F8B811634A083A1160121F1160E9
:1003E000624A11600121121F11600021121F116069
:1003F0005F4AC2F8801181E001215A4A1160002150
:10040000594AC2F8B8110121564A083A1160002130
:10041000121F1160554A11600121121F1160002145
:10042000121F11600121524AC2F8801166E00021BA
:100430004C4A11604C4AC2F8B8110121494A083AA5
:1004400011600021121F1160484A1160121F1160D3
:10045000121F11600121464AC2F880114EE00121AD
:10046000404A11600021404AC2F8B81101213D4ABA
:10047000083A11600021121F116001213B4A1160EE
:100480000021121F116000E007E00121121F11601E
:100490000021374AC2F8801130E00021314A116052
:1004A0000121314AC2F8B81100212E4A083A1160E0
:1004B0000121121F116000212C4A11600121121F1D
:1004C00011600021121F11600121294AC2F8801118
:1004D00014E00021234A1160234AC2F8B811214ACE
:1004E000083A1160121F1160204A1160121F11603A
:1004F000121F11601E4AC2F8801100BF00BF704772
:1005000030B51C48807A00F08000002861D00024BB
:1005100000251848807A20F0800016498872164815
:10052000C0781549897801F0030100EB01241248D5
:10053000007900F00305012D3ED10F49897888101C
:10054000FFF7A0FE04EB84004FF6FF7101EA4000C4
:100550000A4915E0000000200400002008000020E7
:100560000C000020BC812142008021428C012242EB
:1005700000002242A00400203C000020383401404A
:10058000088004EB84004FF6FF7101EA40007149D6
:10059000088004EB84004FF6FF7101EA40006D49CA
:1005A0000831088004EB84004FF6FF7101EA400037
:1005B00068490C3108800BE004EB44006649086090
:1005C0000A46128891B2654A92789010FFF7BAFDF8
:1005D00000BF30BD10B56248807A00F001000028ED
:1005E00063D05F48807A20F001005D498872002165
:1005F0005C4803F060FD5A484068407858494968B3
:10060000097800EB012056490988884232D15448C4
:1006100040685349C978084410F8010C504989785A
:10062000884227D14E4840684D49C978084410F89F
:10063000030C4B4949684A4AD278114411F8021C0C
:1006400000EB0120464908814868072100F0BCF909
:100650004349098988420DD14148807A40F08000A1
:100660003F498872084640683C49D0F802200A6039
:100670008079087120213C4803F0F6FB40B90A213B
:10068000384803F02DFD394800683549486008E0D6
:100690000B21344803F024FD34480068401C3049E5
:1006A000486001212F4803F006FD10BD10B501215F
:1006B000084603F0CBF901212D4802F0DCFF02F0DF
:1006C00099FC4FF4A06002F037FE00F061F94FF49E
:1006D000E13002F061FD274800682749B0FBF1F0E6
:1006E000C4B2264841682046884700F0B1FB00F0BC
:1006F00017FC00F07FFC00F0E5FC002141F61F40F4
:1007000000F003FE00201E4908601E49C1F8B80130
:100710001B4908390860091F08601B490860091F48
:100720000860091F08601949C1F88001184800F0E5
:100730001BFB00F0ABF941F61F41642000F072F999
:1007400010BDFFF7B3FF03E0FFF744FFFFF7D8FE4C
:10075000FAE7000034340140100000203C00002083
:10076000A004002030040240004C00405C02002045
:10077000000230004400002040420F00240300200B
:10078000BC812142008021428C0122420000224291
:10079000A0860100704700BFFEE700BFFEE700BF74
:1007A000FEE700BFFEE770477047704770470000E4
:1007B0000CB50020019000906C48006840F4803037
:1007C0006A49086000BF6948006800F40030009082
:1007D0000198401C0190009818B90198B0F5A06FDD
:1007E000F1D16248006800F4003010B1012000909F
:1007F00001E0002000900098012843D15C48006887
:1008000040F010005A4908600846006820F00300D4
:1008100008600846006840F00200086053484068DD
:10082000524948600846406848600846406840F4BD
:10083000806048600846406820F47C1048600846A4
:10084000406840F4E81048600846006840F0807056
:10085000086000BF4548006800F000700028F9D02B
:100860004248406820F0030040494860084640681C
:1008700040F00200486000BF3C48406800F00C00B7
:100880000828F9D10CBD10B5FFF792FF10BD10B5C7
:100890003648006840F00100344908600846406866
:1008A00034490840314948600846006832490840E8
:1008B0002E4908600846006820F480200860084639
:1008C000406820F4FE0048604FF41F008860FFF786
:1008D000DAFF4FF000602949086010BD10B5002113
:1008E00000200022214B5B6803F00C0121B1042998
:1008F00006D0082928D107E0214B224C236027E0AD
:100900001F4B204C236023E0184B5B6803F47010EE
:10091000164B5B6803F48032022303EB904022B94C
:10092000194B4343174C23600DE0104B5B6803F4F5
:10093000003323B1144B4343124C236003E0104BAC
:100940004343104C236003E00D4B0E4C236000BF6B
:1009500000BF064B5B68C3F303130C4CE15C094B0F
:100960001B68CB40074C236010BD00000010024004
:10097000002002400000FFF8FFFFF6FE08ED00E057
:1009800000127A004400002000093D0048000020C9
:1009900008B50121082003F059F84FF40070ADF8B4
:1009A000000010208DF8030003208DF80200694636
:1009B000044802F08FFD4FF40071024802F037FE48
:1009C00008BD0000000C014010B502460B46FF2098
:1009D000104C2070104C207010E012F8010B0D4CE0
:1009E000247880EA04010D48405C0B4C2478604078
:1009F000084C20700A48405C074C2070181EA3F178
:100A00000104A3B2E9D104480078024C247840EAFA
:100A1000042010BD58000020590000205A0000207A
:100A20005A01002070B505460C460D48C06940F0DB
:100A300010000B49C8610B4885850485808940F00A
:100A40000100084988810846008840F001000880BC
:100A5000022336220121184602F03CFB70BD000043
:100A600000100240001000403648374948603749BE
:100A700008600A203449C8700020088145F2AA5055
:100A80000880FF20887000208872704700B58DB004
:100A90000121022002F0CDFFFFF7E6FF0A200590BA
:100AA000002004900C90274803900020099080209B
:100AB000079000200A902648029000200890069097
:100AC0004FF400500B9002A9224803F0C9FA3A20D3
:100AD0008DF8040002208DF8050000208DF8060036
:100AE00001208DF8070001A802F02BFC0122022151
:100AF000184803F0ECFA0121164803F0DCFA0DB0B7
:100B000000BD10B5144803F010FB40B10E48807AC8
:100B100040F001000C4988720F4803F01AFB10BD29
:100B200010B50E4803F001FB40B10748807A40F051
:100B3000020005498872094803F00BFB10BD002034
:100B4000004870478C040020A00400205C020020B4
:100B5000044C00403004024000020010000002106B
:100B600010B540F225512F4803F094F910BD10B58F
:100B700086B004460121042002F068FF01214804E8
:100B800002F071FF284802F0C5FF0420ADF8140000
:100B900003208DF8160018208DF8170005A92348AA
:100BA00002F098FC0820ADF8140004208DF817001E
:100BB00005A91E4802F08EFC01940020ADF8080043
:100BC000ADF80A00ADF80C00ADF810000C20ADF83F
:100BD0000E0001A9134802F0E0FF0122C0211148D4
:100BE00003F098F801210F4803F063F806B010BD38
:100BF00000BF0C49098801F040010029F9D00949DA
:100C0000091D0880704710B502460B4603E012F834
:100C1000010BFFF7EDFF181EA3F10101CBB2F6D1D6
:100C200010BD0000004400400048004000080140A2
:100C300010B540F22551444803F02CF918B1424850
:100C400003F0A8F8C4B210BD10B586B00446012167
:100C5000082002F0FBFE0121880402F004FF3A485C
:100C600002F058FF4FF48060ADF8100003208DF8BB
:100C7000120018208DF8130004A9344802F02AFC51
:100C80004FF40060ADF8100004208DF8130004A9A3
:100C90002E4802F01FFC00940020ADF80400ADF8CF
:100CA0000600ADF80800ADF80C000C20ADF80A0005
:100CB0006946254802F071FF0121234802F0F9FF3F
:100CC000012240F22551204802F0FFFF27208DF835
:100CD000140001208DF8150003208DF81600012066
:100CE0008DF8170005A802F02CFB06B010BD1649C0
:100CF00009881549091D088000BF1349098801F0BA
:100D000040010029F9D01049098821F040010E4A1C
:100D10001180704700B5034603E01878FFF7E7FF3E
:100D20005B1C18780028F8D100BD10B503460C46AE
:100D300003E01878FFF7DBFF5B1C201EA4F1010124
:100D4000CCB2F6D110BD000000480040000C0140BC
:100D500010B540F225513C4803F09CF818B13A48D0
:100D600003F018F8C4B210BD10B586B004460121D6
:100D7000102002F06BFE0121C80402F074FE32481C
:100D800002F0C8FE4FF48060ADF8140003208DF827
:100D9000160018208DF8170005A92C4802F09AFBC0
:100DA0004FF40060ADF8140004208DF8170005A979
:100DB000264802F08FFB01940020ADF80800ADF842
:100DC0000A00ADF80C00ADF810000C20ADF80E00D4
:100DD00001A91D4802F0E1FE0122C0211A4802F0DB
:100DE00099FF0121184802F064FF06B010BD1649B2
:100DF00009881549091D088000BF1349098801F0B9
:100E000040010029F9D01049098821F040010E4A1B
:100E10001180704700B5034603E01878FFF7E7FF3D
:100E20005B1C18780028F8D100BD10B503460C46AD
:100E300003E01878FFF7DBFF5B1C201EA4F1010123
:100E4000CCB2F6D110BD0000004C004000100140B3
:100E500010B50121084602F0F9FD0121F94802F020
:100E60000AFCF948C06940F00100F749C861F74839
:100E7000006820F07040F54908600846006840F0BE
:100E800080400860F248006820F47040F049086033
:100E90000846006840F4804008604FF08040808938
:100EA00040F001004FF0804188810846808940F081
:100EB0004000888101231C220321184602F00AF910
:100EC00000204FF0804108854FF6FF708885084666
:100ED000008820F4407008800846008820F06000F8
:100EE00008800846008B40F0010008830846008B0C
:100EF00040F4807008830846008C20F002000884CB
:100F00000846008C20F0200008840846008940F044
:100F1000030008810846008840F00100088010BDE9
:100F200010B5C948C06940F00200C749C861084609
:100F3000806940F008008861C448001F006820F004
:100F40007F40C249091F08600846006840F0884099
:100F50000860C048008840F00100BE49088008468B
:100F6000008840F04000088001231D22032118461C
:100F700002F0B0F80020B7491C3108804FF6FF702E
:100F8000091D0880B3480C38008820F44070B1492E
:100F90000C3908800846008820F060000880AD48C1
:100FA0000C30008840F00100AA490C310880084646
:100FB000008840F480700880A6481430008820F033
:100FC0000200A449143108800846008820F020005F
:100FD0000880A048001F008840F003009D49091FB9
:100FE00008809C480C38008840F0010099490C3971
:100FF000088010BD10B59448C06940F004009249C3
:10100000C8610846806940F008008861904800681F
:1010100020F07F408E4908600846006840F0884014
:1010200008608D48008840F001008B490880084620
:10103000008840F04000088001231E22032118464A
:1010400002F048F8002084491C3108804FF6FF70F8
:10105000091D088080480C38008820F440707E49C3
:101060000C3908800846008820F0600008807A4823
:101070000C30008840F0010077490C3108800846A8
:10108000008840F48070088073481430008820F095
:1010900002007149143108800846008820F02000C1
:1010A00008806D48001F008840F003006A49091F4E
:1010B000088069480C38008840F0010066490C3906
:1010C000088010BD10B56048C06940F008005E4956
:1010D000C8610846806940F0040088615B48001FD1
:1010E000006820F0FF005949091F086008460068A1
:1010F00040F044000860C804808940F00100C90441
:1011000088810846808940F040008881012332228E
:101110000321184601F0DEFF0020504908804FF6F9
:10112000FF70091D08804D482838008820F4407061
:101130004A49283908800846008820F06000088065
:1011400046481038008840F00100444910390880B2
:101150000846008840F480700880404808380088BD
:1011600020F002003D49083908800846008820F038
:101170002000088039482038008840F003003749B3
:101180002039088035482838008840F0010033496C
:101190002839088010BD0146012906D002290DD04A
:1011A000032914D0042924D11AE02A4A18321288BB
:1011B00010B20022274B18331A801CE0274A121F56
:1011C000128810B20022254B1B1F1A8013E04FF02B
:1011D0008042928C10B200224FF080439A840AE041
:1011E0001D4A1832128810B200221B4B18331A8085
:1011F00001E0002000BF00BF70474FF08040008A30
:101200004FF08040008A20F001004FF080410882BA
:1012100070471048001D00880E48001D008820F00F
:1012200001000C49091D088070470B48001D00880B
:101230000948001D008820F001000749091D0880A9
:10124000704700000001180000100240040801402F
:10125000000C01400C0400400C080040280C004029
:10126000044800880348008820F0010001490880F4
:1012700070470000100C004008B50121102002F05A
:10128000E5FB4FF47070ADF8000018208DF80300F6
:1012900003208DF802006946544802F01BF94FF410
:1012A0007071524802F0C5F908BD08B50121082047
:1012B00002F0CCFB4FF47040ADF8000010208DF828
:1012C000030003208DF802006946494802F002F944
:1012D0004FF47041464802F0ACF90121102002F0B1
:1012E000B5FB0F20ADF8000010208DF8030003209F
:1012F0008DF8020069463D4802F0ECF80F213B48AA
:1013000002F097F9FFF7B8FF08BD70B505460C4627
:10131000FFF7CBFF3748806940F4005035498861BA
:1013200035480580001F048033481438008840F099
:1013300060003149143908800846008840F4C040F4
:101340000880081D008840F06000091D08800846DC
:10135000008840F4C0400880081F008840F0080062
:10136000091F08800846008840F400600880081DB6
:10137000008840F00800091D08800846008840F4F5
:1013800000600880081D008840F00100091D0880E9
:101390000846008840F0100008800846008840F4A5
:1013A000807008800846008840F480500880124809
:1013B0001830008840F400400F49183108804FF47D
:1013C00000400D492C3908800846008840F0010093
:1013D0000880002008490C310880091F0880064950
:1013E00014310880091F088070BD00000010014002
:1013F000000C0140001002402C34014010B50246A0
:10140000002003E013780344D8B2521C0B1EA1F154
:101410000104E1B2F6D110BD30B500280ADA01248A
:10142000FE4D2C600024FE4DC5F8B8414442FD4DF0
:101430002C8008E00024F94D2C600124F84DC5F8FB
:10144000B841F84D288000290CDA0124F34D083DFD
:101450002C600024F24DC5F8B0414C42F14D2D1FD7
:101460002C800AE00024ED4D083D2C600124EC4D59
:10147000C5F8B041EB4D2D1F2980002A0BDA00245E
:10148000E94D2C600124E94DC5F888415442E54DF1
:1014900008352C8009E00124E34D2C600024E34D45
:1014A000C5F88841DF4D08352A80002B0CDA00246E
:1014B000DD4D083D2C600124DC4DC5F880415C42C7
:1014C000D84D2D1D2C800AE00124D74D083D2C60FD
:1014D0000024D64DC5F88041D24D2D1D2B8030BD46
:1014E000D34909684242914202DA4142D04A11602E
:1014F000CF490968814201DDCD490860CD490968BD
:101500004242914202DA4142CA4A1160C94909681D
:10151000814201DDC7490860C749096842429142DA
:1015200002DA4142C44A1160C3490968814201DDBF
:10153000C1490860C14909684242914202DA414208
:10154000BE4A1160BD490968814201DDBB4908609E
:1015500070472DE9F04704460D46281BB84908603E
:101560000846006803F08FFE8146B6480168484689
:1015700003F0AAFD0746B2490968B34A1268881AFF
:1015800003F081FE8146B1480168484603F09CFDA6
:101590008046394603F040FD064603F08AFE00B25D
:1015A000AB490880AB480068B1F900100844A9496C
:1015B000086008460068B0F5E15F02DD4FF4E150D5
:1015C0000860A448006810F5E15F02DAA248A1496A
:1015D00008609B4800689C4908609E480068BDE818
:1015E000F0872DE9F04704460D46281B9B4908600B
:1015F0000846006803F047FE814692480168484665
:1016000003F062FD074695490968954A1268881AF1
:1016100003F039FE81468D480168484603F054FDC9
:101620008046394603F0F8FC064603F042FE00B25D
:101630008C4908808C480068B1F9001008448A4938
:10164000086008460068B0F5E15F02DD4FF4E15044
:1016500008608548006810F5E15F02DA7E4882493B
:1016600008607E4800687E4908607F480068BDE8E1
:10167000F0872DE9F04704460D46281B7B4908609A
:101680000846006803F0FFFD81466E480168484641
:1016900003F01AFD074675490968754A1268881AE9
:1016A00003F0F1FD814669480168484603F00CFDEE
:1016B0008046394603F0B0FC064603F0FAFD00B25E
:1016C0006C4908806C480068B1F9001008446A4908
:1016D000086008460068B0F5E15F02DD4FF4E150B4
:1016E00008606548006810F5E15F02DA5A4862490F
:1016F00008605E4800685E4908605F480068BDE8B1
:10170000F0872DE9F04704460D46281B5B49086029
:101710000846006803F0B7FD81464A48016848461C
:1017200003F0D2FC074655490968554A1268881AE1
:1017300003F0A9FD814645480168484603F0C4FC12
:101740008046394603F068FC064603F0B2FD00B25D
:101750004C4908804C480068B1F9001008444A49D7
:10176000086008460068B0F5E15F02DD4FF4E15023
:1017700008604548006810F5E15F02DA36484249E2
:1017800008603E4800683E4908603F480068BDE880
:10179000F08710B53D48008A00F0010000283BD0DA
:1017A0003B48007900F003043848008A20F001002B
:1017B000364908820120FFF7EEFC404235490860B7
:1017C0003548006809680844334908600320FFF77A
:1017D000E2FC324908603248006809680844304930
:1017E00008600420FFF7D7FC2E4908602E480068E7
:1017F000096808442C4908600220FFF7CCFC4042ED
:101800002A4908602A48006809680844284908608D
:10181000284801681F484FE0FDE00000BC812142DC
:1018200000802142383401408C01224200002242D3
:10183000380400203C040020400400204404002020
:10184000940200207C0400209C02002078040020E8
:101850006602002098020020E0E3FFFF88020020DB
:1018600090020020640200208C0200207C020020F4
:10187000840200206202002080020020700200200A
:101880007802002060020020740200200010004056
:101890003C00002048040020580400205004002090
:1018A0006004002054040020640400204C04002044
:1018B0005C040020000000200068FFF722FFFE49C2
:1018C0000860FE480168FE480068FFF7D2FEFD4947
:1018D0000860FD480168FD480068FFF782FEFC498A
:1018E0000860FC480168FC480068FFF732FEFB49CD
:1018F000086041F27070FFF7F3FD012C09D0F74842
:101900000368F3480268EF480168EB480068FFF796
:1019100083FDF3480088000AF2494871F0480078D6
:101920008871F1480088000AC871EF480078087291
:10193000E1480088000A4872DF4800788872EB4866
:101940000088000AC872E94800780873DB480088FC
:10195000000A4873D94800788873D9480088000A7B
:10196000C873D74800780874D6480088000A4874BD
:10197000D44800788874DE480088000AC874DC48BF
:1019800000780875D0480088000A4875CE4800786D
:101990008875CE480088000AC875CC48007808765B
:1019A000CB480088000A4876C94800788876D14834
:1019B0000088000AC876CF4800780877C5480088B4
:1019C000000A4877C34800788877C3480088000A2F
:1019D000C877C148007881F82000C0480088000A14
:1019E00081F82100BD48007881F82200C2480088B3
:1019F000000A81F82300C048007881F824002421DF
:101A0000B848FFF7FBFCB74981F825002621B54807
:101A100001F02CFC00BFB9480078401EC0B2B749A5
:101A2000087038B932200870B5480068C043B5491D
:101A3000C1F8A40110BD30B59F4C24684542AC42AA
:101A400002DA44429C4D2C609B4C2468844201DDA8
:101A5000994C20609B4C24684D42AC4202DA4C42C7
:101A6000984D2C60974C24688C4201DD954C216088
:101A7000974C24685542AC4202DA5442944D2C6093
:101A8000934C2468944201DD914C2260934C24686D
:101A90005D42AC4202DA5C42904D2C608F4C24686F
:101AA0009C4201DD8D4C236030BD014640F2564220
:101AB00091421FDA01200022934B1A801B1F1A80CB
:101AC000914B08331A801B1F1A808D4B18331A60F4
:101AD0008C4BC3F8B8218A4B10331A601B1F1A6055
:101AE0008A4B1A601B1F1A601B1F1A60884BC3F8B1
:101AF000802100E0002070470146002901DA4842B9
:101B000000E0084670472DE9F04704460D46601B8B
:101B100003F0B9FB7F490860084601687E48006809
:101B200003F07AFA7C4908607C497B48006803F03E
:101B3000FFFB02D279487849086079497648006805
:101B400003F0ECFB02D276487349086075480168DF
:101B50007048006803F0B2FA804673480168404656
:101B600003F0B2FA064671497148006803F0DEFAE4
:101B7000824669480168504603F0A6FA80466548E7
:101B800001686C48006803F09FFA8146414603F003
:101B900043FA0746314603F03FFA674908605D485B
:101BA0000068604908606448006803F082FBBDE893
:101BB000F0872DE9F04704460D46601B03F063FBF8
:101BC0005E490860084601685D48006803F024FA31
:101BD0005B49086051495A48006803F0A9FB02D2EA
:101BE0004E48574908604E495548006803F096FB37
:101BF00002D24B4852490860524801684F48006879
:101C000003F05CFA804648480168404603F05CFAFD
:101C1000064646494648006803F088FA8246484826
:101C20000168504603F050FA804644480168414834
:101C3000006803F049FA8146414603F0EDF9074692
:101C4000314603F0E9F9404908603C4800683D49E5
:101C500008603D48006803F02CFBBDE8F0872DE9E3
:101C6000F04704460D46601B03F00DFB3749086042
:101C7000084601683648006803F0CEF93449086028
:101C800026493348006803F053FB02D22348304909
:101C9000086023492E48006803F040FB02D2204828
:101CA0002B4908602B4801682848006803F006FAB1
:101CB00080461D4801684FE03804002004000020E1
:101CC0004C0400203C0400200800002050040020A8
:101CD000400400200C000020540400204404002094
:101CE00000000020140000204804002060020020B2
:101CF0006202002064020020660200206C020020C4
:101D0000A481214200802142383401408C012242CA
:101D100000002242A0020020A80200200050C34779
:101D20000050C3C7AC020020880400200000C84255
:101D30008404002080040020A4020020B0020020BF
:101D4000B8020020BC020020B4020020C002002023
:101D5000C8020020CC020020404603F0B5F9064638
:101D60003E493F48006803F0E1F982463D4801687A
:101D7000504603F0A9F980463B4801683B4800689B
:101D800003F0A2F98146414603F046F90746314681
:101D900003F042F936490860334800683549086065
:101DA0003348006803F085FABDE8F0872DE9F04775
:101DB00004460D46601B03F066FA2F49086008468A
:101DC00001682E48006803F027F92C4908602C4967
:101DD0002A48006803F0ACFA02D229482749086073
:101DE00028492648006803F099FA02D22548234979
:101DF0000860254801682048006803F05FF98046C4
:101E000022480168404603F05FF90646134914482A
:101E1000006803F08BF9824618480168504603F0C9
:101E200053F98046144801681048006803F04CF9E3
:101E30008146414603F0F0F80746314603F0ECF8DE
:101E4000134908600C4800680F4908601048006892
:101E500003F02FFABDE8F087704700000000C84289
:101E600084040020C8020020C0020020800400205A
:101E7000C4020020CC020020D0020020D8020020A2
:101E80000050C3470050C3C7DC0200208804002074
:101E9000D402002010B58CB004461E230BAA03A95F
:101EA000204600F0ABFE0090009810B101200CB06D
:101EB00010BD9DF82C00044400200B900EE040481B
:101EC0009DF82C2050F8221003A800F0FFFD00B967
:101ED00008E09DF82C00401CC0B20B909DF82C002F
:101EE0000728ECD300BF9DF82C00072863D2DFE859
:101EF00000F004053C5E6564630000BF31A003F0A0
:101F000043FB31A003F040FB3FA003F03DFB4EA09C
:101F100003F03AFB5CA003F037FB6BA003F034FB4B
:101F200079A003F031FB86A003F02EFB8BA003F019
:101F30002BFB90A003F028FB94A003F025FB99A0B5
:101F400003F022FB9EA003F01FFBA4A003F01CFBE8
:101F5000B0A003F019FBBDA003F016FBC8A003F06E
:101F600013FBD4A003F010FB9AE216A003F00CFBC5
:101F7000E0A003F009FB00200B900EE0ED480068A4
:101F80009DF82C2000EBC2004168EBA003F0FCFAA6
:101F90009DF82C00401CC0B20B90E648007D9DF8D7
:101FA0002C108842EADC07A003F0EEFA78E205A0E4
:101FB00003F0EAFAC4E171E245E219E2ECE1000063
:101FC000E00200200D0A00002D2D2D2D2D2D2D2D90
:101FD0002D2D2D2D2D2D2D2D2D2D2D2D2D2D2D2D31
:101FE00055534D4152542056332E312D2D2D2D2D2C
:101FF0002D2D2D2D2D2D2D2D2D2D2D2D2D2D2D2D11
:102000002D2D2D200D0A00002020202055534D415C
:102010005254CAC7D3C9414C49454E54454BBFAA37
:10202000B7A2B5C4D2BBB8F6C1E9C7C9B5C4B4AE8E
:10203000BFDAB5F7CAD4BBA5BDBBD7E9BCFE2CCD72
:10204000A8B9FD200D0A0000CBFC2CC4E3BFC9D207
:10205000D4CDA8B9FDB4AEBFDAD6FACAD6B5F7D397
:10206000C3B3CCD0F2C0EFC3E6B5C4C8CEBACEBAC3
:10207000AFCAFD2CB2A2D6B4D0D02ED2F2B4CB2CA3
:10208000C4E3BFC90D0A0000D2D4CBE6D2E2B8FC4B
:10209000B8C4BAAFCAFDB5C4CAE4C8EBB2CECAFD73
:1020A00028D6A7B3D6CAFDD7D62831302F3136BDB2
:1020B000F8D6C629A1A2D7D6B7FBB4AEA1A2BAAFB3
:1020C000CAFDC8EB0D0A0000BFDAB5D8D6B7B5C84F
:1020D000D7F7CEAAB2CECAFD292CB5A5B8F6BAAFAD
:1020E000CAFDD7EEB6E0D6A7B3D63130B8F6CAE40B
:1020F000C8EBB2CECAFD2CB2A2D6A7B3D6BAAFCA2D
:10210000FDB7B5200D0A0000BBD8D6B5CFD4CABEE6
:102110002ED0C2D4F6B2CECAFDCFD4CABEBDF8D638
:10212000C6C9E8D6C3B9A6C4DC2CD0C2D4F6BDF863
:10213000D6C6D7AABBBBB9A6C4DC2E0D0A000000C8
:10214000BCBCCAF5D6A7B3D63A7777772E6F706541
:102150006E6564762E636F6D0D0A000055534D4118
:102160005254D3D037B8F6CFB5CDB3C3FCC1EE3A95
:102170000D0A00003F3A202020202020BBF1C8A1FA
:10218000B0EFD6FAD0C5CFA20D0A000068656C701A
:102190003A202020BBF1C8A1B0EFD6FAD0C5CFA21B
:1021A0000D0A00006C6973743A202020BFC9D3C3A4
:1021B000B5C4BAAFCAFDC1D0B1ED0D0A0A00000026
:1021C00069643A2020202020BFC9D3C3BAAFCAFD1A
:1021D000B5C44944C1D0B1ED0D0A0A006865783A2A
:1021E00020202020B2CECAFD3136BDF8D6C6CFD4CD
:1021F000CABE2CBAF3B8FABFD5B8F12BCAFDD7D6F0
:10220000BCB4D6B4D0D0BDF8D6C6D7AABBBB0D0AD5
:102210000A0000006465633A20202020B2CECAFD87
:102220003130BDF8D6C6CFD4CABE2CBAF3B8FABF87
:10223000D5B8F12BCAFDD7D6BCB4D6B4D0D0BDF832
:10224000D6C6D7AABBBB0D0A0A00000072756E7411
:10225000696D653A312CBFAAC6F4BAAFCAFDD4CBBA
:10226000D0D0BCC6CAB13B302CB9D8B1D5BAAFCAF0
:10227000FDD4CBD0D0BCC6CAB13B0D0A0A000000C9
:10228000C7EBB0B4D5D5B3CCD0F2B1E0D0B4B8F18F
:10229000CABDCAE4C8EBBAAFCAFDC3FBBCB0B2CE7C
:1022A000CAFDB2A2D2D4BBD8B3B5BCFCBDE1CAF85A
:1022B0002E0D0A002D2D2D2D2D2D2D2D2D2D2D2DBD
:1022C0002D2D2D2D2D2D2D2D2D2D2D2D2D2D414C0B
:1022D00049454E54454B2D2D2D2D2D2D2D2D2D2D7C
:1022E0002D2D2D2D2D2D2D2D2D2D2D2D2D2D2D202B
:1022F0000D0A00002D2D2D2D2D2D2D2D2D2D2D2DAB
:102300002D2D2D2D2D2D2D2D2D2D2D2D2DBAAFCA51
:10231000FDC7E5B5A52D2D2D2D2D2D2D2D2D2D2DCB
:102320002D2D2D2D2D2D2D2D2D2D2D2D2D2D2D2DDD
:10233000200D0A002403002025730D0A0000000070
:10234000EFA003F021F900200B901AE0FC49096886
:102350009DF82C2001EBC20101AB02AA486803A939
:1023600000F072FCF64800689DF82C1050F83120FF
:1023700003A9F4A003F008F99DF82C00401CC0B29A
:102380000B90EF48007D9DF82C108842DEDCAFF208
:10239000CC3003F0F9F883E0AFF2D83003F0F4F872
:1023A0000BAA03A9204600F02BFD9DF82C00C8B90C
:1023B000694603A800F0BDFB0B909DF82C0020B9E6
:1023C000E5A0009903F0E0F80EE09DF82C00042849
:1023D00001D002206BE5E3A003F0D6F80120D84934
:1023E000C87501E0022062E5DDA003F0CDF857E0FA
:1023F000DBA003F0C9F80BAA03A9204600F000FDFA
:102400009DF82C00C8B9694603A800F092FB0B9018
:102410009DF82C0020B9D8A0009903F0B5F80EE083
:102420009DF82C00042801D0022040E5D5A003F03F
:10243000ABF80020C249C87501E0022037E5C8A00A
:1024400003F0A2F82CE0C6A003F09EF80BAA03A9A3
:10245000204600F0D5FC9DF82C00C8B9694603A8B9
:1024600000F067FB0B909DF82C0078B9B4490098F8
:1024700081F8EC00084690F8EC0018B1C6A003F013
:1024800083F807E0CBA003F07FF803E002200EE51D
:1024900002200CE5B2A003F077F801E0012006E588
:1024A00000BF002003E510B50121C94802F056FD28
:1024B0004FF6FF71C64802F021FD0021C44802F02A
:1024C0001BFD00209E49C1F8F00010BD10B5012190
:1024D000BF4802F03AFD012808D19948D0F8F00031
:1024E0004FF6FF7108449649C1F8F000B84802F071
:1024F00026FD9349D1F8F01008449149C1F8F00045
:102500000846D0F8F00010BD10B50121B04802F027
:1025100028FD01280AD18A49086980470021AC4872
:1025200002F0EAFC6421AA4802F0E8FC0121A84874
:1025300002F028FD10BD7FB505460C460121202084
:1025400001F091FAADF80850ADF804400020ADF864
:102550000A00ADF8060001A99D4801F0DDFE012248
:1025600041219B4802F04FFA37208DF800000320EC
:102570008DF801008DF8020001208DF803006846F7
:1025800000F0DFFE0121924802F022FA7FBD10B573
:10259000044604EBC40000EB04100122C2EB8000EF
:1025A00081B24FF47A70FFF7C6FF01206449C87505
:1025B00010BD30B595B0054613AB12AA09A928463F
:1025C00000F042FB044614B1204615B030BD002097
:1025D000149026E05A4909689DF8502001EBC20189
:1025E00013AB11AA486801A900F02EFB04460CB1F8
:1025F0002046EAE709A901A800F068FA60B99DF849
:1026000044009DF84810884201DD0220DDE79DF876
:1026100050004B4988750AE09DF85000401CC0B23C
:1026200014904748007D9DF850108842D2DC00BFCE
:102630004348007D9DF85010884201D10420C4E732
:1026400014A9284600F04DFC04460CB12046BCE716
:102650009DF850003A4948750020B6E72DE9F04151
:102660009AB03748847D007DA04202DC1AB0BDE8F4
:10267000F0813349096801EBC40106AB07AA486839
:1026800008A900F0E1FA08A952A002F07DFF002697
:10269000BAE02B48008B0121B1400840D8B122217B
:1026A0004EA002F071FF304600F00EFC24492431A8
:1026B000471839464AA002F067FF222147A002F0DE
:1026C00063FF304600F000FC1D492431084410A986
:1026D00041F826008EE0304600F0F6FB1849243120
:1026E000085810A941F826001548C07D30B910A837
:1026F00050F826103BA002F047FF7BE074E000009A
:102700002D2D2D2D2D2D2D2D2D2D2D2D2D2D2D2DF9
:102710002D2D2D2D2D2D2D2D2DBAAFCAFD20494447
:10272000202D2D2D2D2D2D2D2D2D2D2D2D2D2D2DE6
:102730002D2D2D2D2D2D2D2D2D2D2D2D200D0A0046
:102740002403002025732069642069733A0D0A3040
:1027500058253038580D0A004845583A3058255801
:102760000D0A00003136BDF8D6C6B2CECAFDCFD4B0
:10277000CABE210D0A0000004445433A256C750D80
:102780000A0000003130BDF8D6C6B2CECAFDCFD4A3
:10279000CABE210D0A00000052756E2054696D6595
:1027A0002043616C63756C6174696F6E204F4E0DD0
:1027B0000A00000052756E2054696D652043616CFB
:1027C00063756C6174696F6E204F46460D0A000098
:1027D000001400400D0A2573280000002563000046
:1027E00025730000256C750010A850F8261095A0E0
:1027F00002F0CAFE9DF81C00401EB04202D093A019
:1028000002F0C2FE701CC6B29DF81C008642FFF6A4
:1028100040AF8FA002F0B8FEFFF745FE8D48407D27
:102820000B280DD2DFE800F0060D151E27323F4EB3
:102830005F7287008749096851F834008047054670
:1028400090E0844A126852F8341010988847054680
:1028500088E0804B1B6853F83420DDE91001904775
:1028600005467FE07B4F3F6857F8343010A807C813
:102870009847054676E0DFF8DCC1DCF800C05CF87C
:10288000347010A80FC8B84705466BE01498DFF8FD
:10289000C4C10090DCF800C05CF8347010A80FC808
:1028A000B84705465EE0DDE91401DFF8A8C1CDE9CF
:1028B0000001DCF800C05CF8347010A80FC8B847FD
:1028C00005464FE0DDE914121698DFF888C1CDE91E
:1028D00000120290DCF800C05CF8347010A80FC839
:1028E000B84705463EE0DDE91423DDE91610DFF8C0
:1028F00064C1CDE90023CDE90210DCF800C05CF82A
:10290000347010A80FC8B84705462BE0DDE9152341
:10291000DDE91710CDE90123CDE903101498DFF8A4
:1029200034C10090DCF800C05CF8347010A80FC807
:10293000B847054616E0DDE91623DDE91810CDE9B4
:102940000223CDE90410DDE91401DFF808C1CDE967
:102950000001DCF800C05CF8347010A80FC8B8475C
:10296000054600BF00BFFFF7B1FD9DF81800012824
:102970000CD13848C07D20B9294637A002F004FEAA
:1029800007E0294636A002F0FFFD02E033A002F086
:10299000FBFD304890F8EC0088B12E48D0F8F000EC
:1029A0000A21B0FBF1F201FB12072A48D0F8F0002F
:1029B000B0FBF1F83A4641462CA002F0E5FD00BF1D
:1029C00054E670B53148008800F40040002833D048
:1029D0002E48057800202E4948551E4881682C480D
:1029E000884704461CB91B49C868804721E028482D
:1029F000FFF750FA0546012D00D02C46CCB1012C32
:102A000006D0022C08D0032C0AD0042C10D10BE0E5
:102A100020A002F0B9FD0BE021A002F0B5FD07E017
:102A200022A002F0B1FD03E023A002F0ADFD00BF43
:102A300000BF00201549088070BD01460868704736
:102A40000160704730582558000000002C0000003D
:102A500029000000240300203D256C753B0D0A0071
:102A60003D305825583B0D0A0000000046756E6346
:102A700074696F6E2052756E2054696D653A2564D5
:102A80002E2531646D730D0A000000002004002023
:102A9000AC040020BAAFCAFDB4EDCEF3210D0A009C
:102AA000B2CECAFDB4EDCEF3210D0A00B2CECAFDFE
:102AB000CCABB6E0210D0A00CEB4D5D2B5BDC6A5CB
:102AC000C5E4B5C4BAAFCAFD210D0A0002460AE04A
:102AD00010780B78984201D001207047107800B927
:102AE00002E0521C491CF3E700BF0020F5E706E0B6
:102AF00002780A70027802B902E0401C491CF7E72C
:102B000000BF70470146002005E00A7802B903E0E3
:102B1000421CD0B2491CF8E700BF704710B502460E
:102B2000012000E050430B1EA1F10104E1B2F9D1F4
:102B300010BD2DE9F04307460E4600254FF00A0868
:102B40003C46002030601FE02078392802DC2078E5
:102B500030280ADA2078462802DC2078412804DA76
:102B60002078582809D1012D07D12078412801DB90
:102B70004FF01008681CC5B205E0207800B904E0E9
:102B80000120BDE8F083641CDEE700BF3C46B8F1DD
:102B9000100F0FD1032D01DA0220F2E72078302840
:102BA00006D16078582803D1A41CA81EC5B204E041
:102BB0000320E6E70DB90420E3E71BE00DB1681E32
:102BC000C5B22078392806DC2078302803DB20784D
:102BD000A0F1300902E02078A0F1370929464046EB
:102BE000FFF79CFF316809FB00103060641C2078FF
:102BF00000B900E0E2E700BF0020C2E710B50446DC
:102C0000002010700BE020780870641C491C1078BC
:102C1000401C10701078984201DB012010BD207814
:102C2000202802D020780028EDD10020087000BFB5
:102C3000F4E70146491C00E0491C0878202801D12E
:102C40000029F9D1087870472DE9FF4F85B08046FB
:102C500089460027002004900390012002904FF045
:102C6000000B002544461DE02078202816D005F0F2
:102C70007F00052812DA0DB945F0800505F07F00C8
:102C8000042803D120782A2800D00EE0207805F00F
:102C90007F010DF80100681CC5B202E0852D00D14E
:102CA00003E0641C20780028DED100BF8DB1002035
:102CB00005F07F010DF80100CBA16846FFF706FF84
:102CC00018B900210898017002E0012108980170EC
:102CD00000254FF0000A444614E0641C0AF101008C
:102CE00000F0FF0A2078202802D020782A2809D175
:102CF0002046FFF79EFF0646282E03D02A2E01D03D
:102D0000CDF810A02078282802D020780028E4D11F
:102D10004446049810B10498401C04444FF0000A43
:102D2000002654E0207810B94FF0010A50E02078D6
:102D3000282803D116B9781CC7B213E020782928B7
:102D400008D13EB917B1781EC7B201E04FF0010AB1
:102D500047B93DE02078222804D10EB9012000E0D7
:102D60000020064647B9207820282FD0207889F8FF
:102D7000000009F1010929E020782C2804D1012064
:102D80000290681CC5B214E02078202811D0207869
:102D900028280ED04DB9BBF1050F06DA20780DF8C2
:102DA0000B000BF1010000F0FF0B0298401CC0B2B9
:102DB0000290012F0AD10298022807D10298401CE4
:102DC000C0B202900398401CC0B20390641CA9E7F3
:102DD00000BF0398012809D100200DF80B0082A143
:102DE0006846FFF773FE08B900200390079903981F
:102DF0000870002089F80000504609B0BDE8F08F47
:102E0000F0B503461546002000220026002455E0B8
:102E10001F782C2F01D104B901221F78292F01D04E
:102E20001F780FB904B94AE0002E34D11F78302F33
:102E300002DB1F78392F11DD1F78612F02DB1F782D
:102E4000662F0BDD1F78412F02DB1F78462F05DD33
:102E50001F78582F02D01F78782F0CD102B12EE0A6
:102E60001F78612F03DB1F78203F0F7001E01F7870
:102E70000F70491C1FE01F78222F04D102B11EE001
:102E80000126012417E01F78202F14D01F782C2F43
:102E900011D0FF2613E01F78222F00D1002402B1A9
:102EA0000DE044B11F785C2F02D15B1C471CF8B2C7
:102EB0001F780F70491C471CF8B25B1CA8E700BFC5
:102EC00000270F702E70F0BD02460020002105E0A3
:102ED000474B5B5C0344D8B24B1CD9B29142F7DB41
:102EE00070472DE9F043B5B005460F460024002693
:102EF00004E000213E488155701CC6B20A2EF8DB62
:102F000006E06D1C287818B9012035B0BDE8F083C3
:102F100028782828F5D16D1C61E034AA6946284636
:102F2000FFF76EFF064635449DF8D00020B101281A
:102F300027D0FF284CD149E09DF8000000B333A909
:102F40006846FFF7F6FD06460EB10220DDE7204693
:102F5000FFF7BAFF26490A31339A0A50A1F124003B
:102F6000008B0121A140884321491A39088304219B
:102F70001F480155601CC4B20A2C01DD0320C4E7C0
:102F800026E06846FFF7BEFD401C00F0FF08204623
:102F9000FFF79AFF16490A3100EB010949466846D6
:102FA000FFF7A5FD12481A38018B0120A04001430C
:102FB00088B20F491A3908830D4800F80480601C54
:102FC000C4B20A2C01DD03209FE701E002209CE748
:102FD00000BF2878292801D0287800B900E09CE7B4
:102FE00000BF3C70002090E7766F6964000000002D
:102FF0003E03002010B56FF0040000F0ECF92E48FD
:1030000000682E49B0FBF1F02D49087008460078A1
:1030100000EB4001C1EBC0104FF6FF7101EAC000A8
:103020002849088010BD0146254A12784A434FF0CE
:10303000E0235A6100229A611A46126942F00102A5
:103040001A6100BF4FF0E022106900F001021AB1CE
:1030500000F48032002AF5D04FF0E022126922F00D
:1030600001024FF0E0231A6100229A617047014685
:10307000144A12884A434FF0E0235A6100229A61B1
:103080001A46126942F001021A6100BF4FF0E022B5
:10309000106900F001021AB100F48032002AF5D064
:1030A0004FF0E022126922F001024FF0E0231A6192
:1030B00000229A61704700004400002000127A004C
:1030C000180400201A04002030BF704772B6704701
:1030D00062B670472DE9F0410746884614461D4602
:1030E0004FF4A06000F028F9C5F1040007FA00F6DB
:1030F0000F20284100EA0800064306F00F06E217F9
:1031000004EBD2625211920002F1E022D2F80021C7
:103110002146E31704EBD3635B11A4EB431C0123AB
:1031200003FA0CF31A432046E31704EBD3635B1155
:103130009B0003F1E023C3F800210D48005D40EA45
:1031400006100B490855BDE8F08101460906094AF9
:10315000926942F00102074B9A61074A526822F0D5
:10316000E062054B5A601A4652680A435A6070473B
:1031700000E400E0001002400000014000BF704782
:1031800000BF604A128802F04002002AF9D0C2B2A1
:103190005C4B1B1D1A80704710B586B00446012198
:1031A00044F2040000F052FC4FF40070ADF814003B
:1031B00003208DF8160018208DF8170005A9524835
:1031C00000F088F94FF48060ADF8140004208DF809
:1031D000170005A94C4800F07DF925208DF8000066
:1031E00003208DF801008DF8020001208DF8030006
:1031F000684600F0A6F801940020ADF80800ADF88C
:103200000A00ADF80C00ADF810000C20ADF80E006F
:1032100001A93C4800F0C1FC012240F22551394887
:1032200000F053FD0121374800F043FD06B010BD0A
:10323000344909883349091D088000BF314909888C
:1032400001F040010029F9D02E49098821F0400100
:103250002C4A1180704700B5034603E01878FFF749
:10326000E7FF5B1C18780028F8D100BD10B50346B5
:103270000C4603E01878FFF7DBFF5B1C201EA4F16F
:103280000101CCB2F6D110BD10B540F225511D4858
:1032900000F000FE10B31B4800F07CFDC4B21B48D8
:1032A000008800F40040C8B91848008800F4804045
:1032B00060B10A2C03D000201449088020E0134894
:1032C000008840F400401149088019E00D2C06D117
:1032D0000E48008840F480400C49088010E00B48FC
:1032E0000088C0F30D000A490C5408480088401CAF
:1032F0000649088008460088C72801DD00200880AC
:1033000010BD0000003801400008014020040020EA
:10331000AC0400200648804706480047FEE7FEE769
:10332000FEE7FEE7FEE7FEE7FEE7FEE7FEE7FEE775
:103330008F0800083101000831490143314A11600A
:10334000704770B5002100230F22C47804B32D4CC0
:10335000246804F4E064C4F5E064210AC1F10403C4
:10336000CA40447804FA03F18478144021430901E7
:10337000254C0678A155047804F01F050124AC40C3
:1033800005786D11AD0005F1E025C5F8004109E0B3
:10339000047804F01F050124AC401C4D067876111A
:1033A00045F8264070BD1A4A0A400243154B1B1FC0
:1033B0001A60704739B1134A121D12680243114B4B
:1033C0001B1D1A6006E00F4A121D126882430D4B46
:1033D0001B1D1A607047042808D14FF0E0210969CD
:1033E00041F004014FF0E022116107E04FF0E021CD
:1033F000096921F004014FF0E022116170470000DB
:103400000000FA050CED00E000E400E080E100E0DF
:1034100080FFFF1F10B50446CC48844208D101212B
:10342000042000F02DFB0021042000F029FB46E0E1
:10343000C748844208D10121082000F021FB002167
:10344000082000F01DFB3AE0C248844208D1012167
:10345000102000F015FB0021102000F011FB2EE0E1
:10346000BD48844208D10121202000F009FB002141
:10347000202000F005FB22E0B848844208D1012159
:10348000402000F0FDFA0021402000F0F9FA16E09B
:10349000B348844208D10121802000F0F1FA0021D4
:1034A000802000F0EDFA0AE0AE48844207D1012105
:1034B000801500F0E5FA0021A01500F0E1FA10BD3A
:1034C00010B50121084600F0DBFA0021012000F0D0
:1034D000D7FA10BD2DE9F041024600250026002054
:1034E00000230024002791F803C00CF00F0591F889
:1034F00003C00CF0100CBCF1000F03D091F802C017
:103500004CEA050591F800C0BCF1000F31D01468F9
:1035100000202BE04FF0010C0CFA00F3B1F800C0D2
:103520000CEA03069E4220D183004FF00F0C0CFAE8
:1035300003F7BC4305FA03FC4CEA040491F803C00A
:10354000BCF1280F06D14FF0010C0CFA00FCC2F8B8
:1035500014C00AE091F803C0BCF1480F05D14FF048
:10356000010C0CFA00FCC2F810C0401C0828D1D392
:103570001460B1F800C0BCF1FF0F34DD54680020C6
:103580002EE000F1080C4FF0010808FA0CF3B1F836
:1035900000C00CEA03069E4221D183004FF00F0CBD
:1035A0000CFA03F7BC4305FA03FC4CEA040491F857
:1035B00003C0BCF1280F05D100F1080C08FA0CF883
:1035C000C2F8148091F803C0BCF1480F07D100F194
:1035D000080C4FF0010808FA0CF8C2F81080401CE3
:1035E0000828CED35460BDE8F0814FF6FF7101800A
:1035F000022181700421C170704702460020936847
:103600000B400BB1012000E00020704701468868A4
:1036100080B2704702460020D3680B400BB10120F6
:1036200000E0002070470146C86880B27047016121
:103630007047416170470AB1016100E04161704724
:10364000C16070474FF480320A43826181618261B8
:1036500082698269704702460020434B18684FF622
:103660008073184040EA021008433F4B18607047CF
:103670003E49C8617047F0B50A4600230024002186
:10368000002500F00046B6F1004F02D1364EF16938
:1036900001E0354E7168C0F3034583B200F4401673
:1036A000B6F5401F08D121F070612F4E766826F0E4
:1036B00070662D4F7E6012E000F48016B6F5801F14
:1036C00006D1032606FA05F4A14341F0706106E035
:1036D000460D360103FA06F6B14341F0706122B19E
:1036E000460D360103FA06F6314300F00046B6F106
:1036F000004F02D11C4EF16101E01B4E7160F0BD24
:1037000030B500228B071C0F0F2303FA04F2164B6F
:1037100008338C1053F824309343134C08348D1025
:1037200044F8253023468C1053F824308C07240F9E
:1037300000FA04F423430C4C08348D1044F825306F
:1037400030BD0A49DC3108607047000000080140C4
:10375000000C01400010014000140140001801401D
:10376000001C0140002001400000014000002042F8
:10377000DF48006840F00100DD4908600846406805
:10378000DC490840DA49486008460068DA490840E0
:10379000D74908600846006820F480200860084681
:1037A000406820F4FE0048604FF41F0088607047B6
:1037B000CF49096821F48031CD4A1160114609686A
:1037C00021F480211160B0F5803F03D0B0F5802F47
:1037D0000ED106E0C649096841F48031C44A11603F
:1037E00007E0C349096841F4A021C14A116000E023
:1037F00000BF00BF704710B5014600220023002023
:103800004A11012A02D1BA4C236806E0022A02D1E9
:10381000B74C236A01E0B64C636A01F01F02012431
:1038200094401C400CB1012000E0002010BD38B5D0
:10383000002000900024002500BF3120FFF7DBFFAF
:1038400005460098401C00900098B0F5A06F01D08C
:10385000002DF2D03120FFF7CEFF08B1012400E0A7
:103860000024204638BD01460020A14A106820F0FF
:10387000F80040EAC10010607047A0490860704736
:10388000024600209A4B586820F47C1042EA01035B
:103890001843974B5860704798490866704701462F
:1038A0000020934A506820F003000843506070479E
:1038B0008F48406800F00C007047014600208C4A99
:1038C000506820F0F0000843506070470146002027
:1038D000874A506820F4E060084350607047014612
:1038E0000020834A506820F4605040EAC1005060D4
:1038F000704729B17E4A527A02437D4B5A7204E0E6
:103900007B4A527A82437A4B5A7270477B49D8314C
:103910000860704701460020754A506820F4404016
:103920000843506070470021714A20321170704A7C
:1039300082F82010012802D004280AD104E00121D5
:103940006B4A2032117005E00521694A203211705E
:1039500000E000BF00BF70476949086070476449D4
:10396000096A0143624A1162704765494439086037
:10397000704730B500210022002400235C4D6D68A3
:1039800005F00C0121B1042905D0082923D105E057
:103990005C4D056022E05B4D05601FE0544D6D6895
:1039A00005F47012524D6D6805F48034022505EB64
:1039B00092421CB9544D554305600BE04C4D6D6867
:1039C00005F400351DB1504D5543056002E04D4DE5
:1039D0005543056002E04B4D056000BF00BF444DFC
:1039E0006D6805F0F0010909484D6B5C0568DD4024
:1039F00045603F4D6D6805F4E061090A434D6B5C1D
:103A00004568DD4085603A4D6D6805F46051C90A2E
:103A10003E4D6B5C4568DD40C560354D6D6805F415
:103A20004041890B3A4D6B5CC568B5FBF3F5056108
:103A300030BD29B12E4A526902432D4B5A6104E030
:103A40002B4A526982432A4B5A61704729B1284A4E
:103A500092690243264B9A6104E0254A92698243A7
:103A6000234B9A61704729B1214AD2690243204B06
:103A7000DA6104E01E4AD26982431D4BDA61704765
:103A800029B11B4AD2680243194BDA6004E0184A94
:103A9000D2688243164BDA60704729B1144A126922
:103AA0000243134B1A6104E0114A12698243104B1E
:103AB0001A61704712494039086070470F49C8645D
:103AC00070470B49C87170470948406A40F08070E0
:103AD00007494862704701460020054A92680A403B
:103AE0000AB1012000E00020704701498872704748
:103AF000001002400000FFF8FFFFF6FE0000424207
:103B00008004424200127A0000093D002204002095
:103B10003204002010B50446FB48844209D101213B
:103B20008803FFF7ADFF00214FF48040FFF7A8FFA7
:103B300032E0F648844209D101214804FFF7ADFF85
:103B400000214FF40030FFF7A8FF25E0F048844241
:103B500009D101218804FFF7A0FF00214FF4802044
:103B6000FFF79BFF18E0EB48844209D10121C8040C
:103B7000FFF793FF00214FF40020FFF78EFF0BE0CB
:103B8000E548844208D101210805FFF786FF00219E
:103B90004FF48010FFF781FF10BD2DE9F04786B08C
:103BA00005460E460024A24600BFA1460027B08964
:103BB00000B100BF2F462C8A4CF6FF700440F088FD
:103BC00004432C82AC894EF6F3100440B08831894E
:103BD0000843718908430443AC81AC8A4FF6FF4027
:103BE0000440B0890443AC8201A8FFF7C2FEC64876
:103BF000874202D1DDF810A001E0DDF80CA0A88911
:103C000000F4004040B10AEBCA0000EB0A10316832
:103C10004900B0FBF1F807E00AEBCA0000EB0A101C
:103C200031688900B0FBF1F86420B8FBF0F00401C2
:103C30002009642101FB1089A88900F4004040B1EB
:103C4000322000EBC900B0FBF1F000F007000443A4
:103C500008E0322000EB09106421B0FBF1F000F025
:103C60000F0004432C8106B0BDE8F0874FF41651D5
:103C7000016000218180C18001810C2141810021EE
:103C80008181704710B502460020108A4FF2FF0371
:103C900018400B884C8823438C882343CC882343CB
:103CA0001843108210BD0021018041808180C180B5
:103CB000704721B1828942F40052828104E08289F6
:103CC0004DF6FF731A4082817047F0B50346002419
:103CD00000260025002040F66A17B94200D100BF37
:103CE0001846C1F3421401F01F06012707FA06F532
:103CF000012C01D10C3004E0022C01D1103000E085
:103D000014301AB107682F43076002E00768AF4319
:103D10000760F0BD1AB1838A0B43838202E0838A75
:103D20008B4383827047028A4FF6F0731A400282F7
:103D3000028A0A430282704782894FF2FF731A4057
:103D4000828182890A438281704721B1828942F04F
:103D50000202828104E082894FF6FD731A4082815B
:103D60007047028A4FF6DF731A400282028A0A43C2
:103D70000282704721B1028A42F48042028204E04A
:103D8000028A4BF6FF731A4002827047C1F30802A1
:103D90008280704701468888C0F308007047818997
:103DA00041F0010181817047028BD2B20283028B04
:103DB00042EA012202837047028B02F47F420283AF
:103DC000028B0A430283704721B1828A42F02002AB
:103DD000828204E0828A4FF6DF731A408282704743
:103DE00021B1828A42F01002828204E0828A4FF678
:103DF000EF731A408282704721B1828A42F0080232
:103E0000828204E0828A4FF6F7731A4082827047FA
:103E100021B1828942F40042828103E08289C2F3A7
:103E20000E028281704721B1828A42F4006282824E
:103E300004E0828A4FF2FF731A4082827047828ABE
:103E40004FF6FB731A408282828A0A43828270474D
:103E500021B1828A42F00202828204E0828A4FF615
:103E6000FD731A408282704702460020B1F5007F40
:103E700000D100BF13880B400BB1012000E00020EF
:103E8000704701F40072B2F5007F00D100BFCA4351
:103E90000280704770B502460024002300250020F0
:103EA00040F66A16B14200D100BFC1F3421501F0DD
:103EB0001F03012606FA03F3012D02D19689334030
:103EC00006E0022D02D1168A334001E0968A334083
:103ED0000C12012606FA04F41688344013B10CB112
:103EE000012000E0002070BD10B50022002340F644
:103EF0006A14A14200D100BF0A1201249440A3B267
:103F0000DC43048010BD0000003801400044004044
:103F100000480040004C00400050004001684FF64F
:103F2000FE72114001600021016041608160C1604A
:103F30008D49884208D18C490839496841F00F0100
:103F4000894A083A51608AE087491431884208D189
:103F500085490839496841F0F001834A083A5160BF
:103F60007DE081492831884208D17F490839496874
:103F700041F470617C4A083A516070E07A493C3102
:103F8000884208D178490839496841F47041764A35
:103F9000083A516063E074495031884208D172494F
:103FA0000839496841F470216F4A083A516056E077
:103FB0006D496431884208D16B490839496841F438
:103FC0007001694A083A516049E06749783188428E
:103FD00008D165490839496841F07061624A083A78
:103FE00051603CE06149884206D1011F096841F0F7
:103FF0000F01021F116032E05C491431884208D180
:104000005A49091F096841F0F001584A121F11600E
:1040100025E056492831884208D15449091F0968CA
:1040200041F47061514A121F116018E04F493C3150
:10403000884208D14D49091F096841F470414B4A33
:10404000121F11600BE049495031884207D147499E
:10405000091F096841F47021444A121F116070471A
:1040600010B50022026847F6F0739A430C6A8B6819
:1040700023430C6923434C6923438C692343CC6954
:1040800023434C6A23438C6A23431A430260CB6860
:1040900043600B6883604B68C36010BD0021016002
:1040A00041608160C160016141618161C161016202
:1040B00041628162704721B1026842F001020260F0
:1040C00004E002684FF6FE731A40026070471AB1AE
:1040D00003680B43036002E003688B43036070478F
:1040E000416070470146486880B270470146002031
:1040F000002201F080531BB11C4B083B1A6802E000
:10410000194B083B1A6802EA01030BB1012000E0D9
:104110000020704700F0805119B11449091F086050
:1041200002E011490839486070470146002000222A
:1041300001F080531BB10D4B083B1A6802E00A4B9B
:10414000083B1A6802EA01030BB1012000E00020DD
:10415000704700F0805119B10449091F086002E05E
:1041600001490839486070470800024008040240CD
:1041700010B50446FE48844208D10121C014FFF75F
:104180007FFC0021E014FFF77BFCC4E0B4F1804F1A
:1041900008D101210846FFF780FC00210120FFF72C
:1041A0007CFCB8E0F348844208D101210220FFF7EB
:1041B00074FC00210220FFF770FCACE0EE48844262
:1041C00008D101210420FFF768FC00210420FFF73B
:1041D00064FCA0E0E948844208D101210820FFF7EF
:1041E0005CFC00210820FFF758FC94E0E44884427E
:1041F00008D101211020FFF750FC00211020FFF70B
:104200004CFC88E0DF48844208D101212020FFF7E0
:1042100044FC00212020FFF740FC7CE0DA48844287
:1042200008D101214014FFF72BFC00216014FFF797
:1042300027FC70E0D548844209D10121C804FFF76A
:104240001FFC00214FF40020FFF71AFC63E0D04868
:10425000844209D101210805FFF712FC00214FF427
:104260008010FFF70DFC56E0CA48844209D10121B5
:104270004805FFF705FC00214FF40010FFF700FC94
:1042800049E0C548844208D101214020FFF705FCE0
:1042900000214020FFF701FC3DE0C048844208D1E6
:1042A00001218020FFF7F9FB00218020FFF7F5FBBB
:1042B00031E0BB48844208D101218015FFF7EDFBB6
:1042C0000021A015FFF7E9FB25E0B648844209D19B
:1042D00001210804FFF7D4FB00214FF48030FFF7E1
:1042E000CFFB18E0B048844209D101214804FFF710
:1042F000C7FB00214FF40030FFF7C2FB0BE0AB48D7
:10430000844208D101218804FFF7BAFB00214FF451
:104310008020FFF7B5FB10BD00220288944B984225
:104320000ED0994B98420BD0B0F1804F08D0914BF2
:10433000984205D0904B984202D0904B984204D1BD
:104340004FF68F731A404B881A438D4B984207D013
:104350008C4B984204D04FF6FF431A40CB881A4347
:1043600002808B8883850B880385814B98420BD014
:10437000854B984208D08B4B984205D08A4B984287
:1043800002D08A4B984201D10B7A038601238382A3
:10439000704770B5002400220023058C4FF6FE768E
:1043A00035400584028C8388048B4FF68F752C4032
:1043B000B51E2C400D882C43751E2A400D892A43BA
:1043C0004D882A436A4DA8420BD06F4DA84208D0B1
:1043D000744DA84205D0744DA84202D0734DA84236
:1043E00013D14FF6F7752A404D892A434FF6FB75D6
:1043F0002A408D882A434FF6FF652B404FF6FF5524
:104400002B408D892B43CD892B4383800483CD881A
:104410008586028470BD70B5002400220023058CBF
:104420004FF6EF7635400584028C8388048B48F67E
:10443000FF752C404FF6FF452C400D884FF6FF7658
:1044400006EA05252C434FF6DF752A400D8906EA5A
:1044500005152A434D8806EA05152A43444DA8420E
:1044600002D0494DA8421DD14FF67F752A404D8993
:104470004FF6FF7606EA05152A434FF6BF752A4028
:104480008D8806EA05152A434FF6FF352B404FF27B
:10449000FF752B408D8906EA85052B43CD8906EAF9
:1044A00085052B4383800483CD880587028470BDF6
:1044B00070B5002400220023058C4FF6FF663540BE
:1044C0000584028C8388848B4FF68F752C404FF6C1
:1044D000FC752C400D882C434FF6FF552A400D8962
:1044E0004FF6FF7606EA05252A434D8806EA05259C
:1044F0002A431F4DA84202D0234DA8421DD14FF29E
:10450000FF752A404D894FF6FF7606EA05252A43B6
:104510004FF6FF352A408D8806EA05252A434EF6D8
:10452000FF752B404DF6FF752B408D8906EA05156A
:104530002B43CD8906EA05152B4383808483CD88E0
:104540008587028470BD70B5002200230024058C8D
:104550004EF6FF7635400584038C8488828B48F6BE
:10456000FF752A404FF6FF452A400D8820E00000E5
:10457000002C01400004004000080040000C0040F6
:10458000001000400014004000340140004C014085
:10459000005001400054014000180040001C004041
:1045A000002000400040014000440140004801401C
:1045B0004FF6FF7606EA05252A434DF6FF752B4098
:1045C0000D8906EA05352B434D8806EA05352B4350
:1045D000FA4DA84202D0FA4DA84208D14BF6FF7519
:1045E0002C408D894FF6FF7606EA85152C43848092
:1045F0008283CD88A0F84050038470BD828B4FF237
:10460000FF331A408283828B4FF6FF7303EA012344
:104610001A4382837047F0B50C46154600220021EC
:104620000026078C4EF6FF7C07EA0C070784828B76
:10463000018C4FF6FF7707EA043640F6FF473A4011
:104640004FF6FF7707EA05273A434FF6FF7707EA69
:1046500003373A43D94FB8420ED0D94FB8420BD0A6
:10466000B0F1804F08D0D74FB84205D0D64FB842EE
:1046700002D0D64FB84206D14DF6FF77394046F406
:104680008057394305E047F6FF57394044F48057D7
:10469000394382830184F0BD828B4FF6F3731A4055
:1046A0008283828B0A4382837047F0B50C4615469D
:1046B000002200210026078C4FF6FF6C07EA0C074A
:1046C0000784828B018C4FF6FF7707EA04264FF6AA
:1046D0000C773A404FF6FF7707EA03172F433A4328
:1046E000B64FB8420ED0B64FB8420BD0B0F1804FA3
:1046F00008D0B44FB84205D0B34FB84202D0B34F40
:10470000B84206D14FF6FF57394046F48077394317
:1047100005E04FF2FF57394044F4807739438283F4
:104720000184F0BD028B4FF2FF331A400283028BEB
:104730004FF6FF7303EA01231A4302837047F0B573
:104740000C461546002200210026078C4FF6EF7C10
:1047500007EA0C070784028B018C4FF6FF7707EA04
:10476000041640F6FF473A404FF6FF7707EA033753
:104770003A434FF6FF7707EA05273A438F4FB8428F
:104780000ED08F4FB8420BD0B0F1804F08D08D4F74
:10479000B84205D08C4FB84202D08C4FB84206D1F7
:1047A0004FF6DF77394046F01007394305E04FF602
:1047B0005F77394044F01007394302830184F0BD2C
:1047C000028B4FF6F3731A400283028B0A43028373
:1047D0007047F0B50C46154600220021068C4FF6B6
:1047E000FE773E400684028B018C4FF60C763240F9
:1047F0007E1C06EA03162E433243704EB0420ED0A2
:104800006F4EB0420BD0B0F1804F08D06D4EB04229
:1048100005D06D4EB04202D06C4EB04206D14FF67C
:10482000FD76314044F00106314305E04FF6F57660
:10483000314044F00106314302830184F0BD70B57C
:1048400005460C465D4885420ED05D4885420BD03A
:10485000B5F1804F08D05B48854205D05A48854263
:1048600002D05A48854200D100E000BF208850B9EC
:104870002389A28861882846FFF7ABFFE188284694
:10488000FFF79EFF25E0208804280AD12389A2880B
:1048900061882846FFF753FFE1882846FFF742FF6B
:1048A00017E0208808280AD12389A2886188284631
:1048B000FFF7FBFEE1882846FFF7EEFE09E02389BB
:1048C000A28861882846FFF7A6FEE1882846FFF700
:1048D00095FE70BD2DE9F04105460C4600260127E6
:1048E000608808B9022600E00026A088012801D1CE
:1048F000022700E001272088A0B92389A2886188C7
:104900002846FFF766FFE1882846FFF759FF23890D
:104910003A4631462846FFF712FFE1882846FFF75E
:1049200001FF13E02389A28861882846FFF707FF6B
:10493000E1882846FFF7F6FE23893A4631462846A5
:10494000FFF747FFE1882846FFF73AFFBDE8F0810F
:104950000A884B881A438B881A43CB881A430B89E1
:104960001A434B891A438B891A43A0F84420704795
:104970004FF6FF71818000210180C180418001726A
:1049800070470021018041808180C1800181418187
:104990008181C18170470021018041800121818096
:1049A0000021C18001817047002101804180818008
:1049B000C18001814181818170470000002C01404C
:1049C000003401400004004000080040000C00409A
:1049D00021B1028842F00102028004E002884FF611
:1049E000FE731A400280704731B1B0F8442042F49F
:1049F0000042A0F8442005E0B0F84420C2F30E02C3
:104A0000A0F8442070471AB183890B43838102E0E8
:104A100083898B43838170478182704741EA020317
:104A2000A0F8483070471AB183890B43838102E0B4
:104A300083898B438381704701894FF6F872114057
:104A4000018170470A46002101894FF68F73194092
:104A500011430181704730B504460D462946204672
:104A6000FFF7F0FF208940F00700208130BD2DE9DD
:104A7000F04104460D4616461F46602D06D13B46C2
:104A8000012231462046FFF75AFE05E03B4601224F
:104A900031462046FFF79DFE29462046FFF7D2FF0C
:104AA000208940F007002081BDE8F08130B50C4638
:104AB00000210189C9B24FF6FF7505EA03251543A8
:104AC00025432943018130BD2DE9F04105460E46BD
:104AD00017469846002443463A4631462846FFF793
:104AE000E5FF2C894FF6F870044044F007044FF6B8
:104AF0008F70044044F070042C81BDE8F081F0B563
:104B000004460D4616461F463B4632462946204679
:104B1000FFF7CCFF208940F480402081F0BD018563
:104B2000828270470A46002101884FF68F73194030
:104B3000114301807047F0B50C4615461E46002112
:104B4000002200230189028B038C4FF6F87739404D
:104B500021434FF6FC473A4040F201173A434FF6E3
:104B6000DD773B404FF6FF7707EA06172F433B43BD
:104B7000018102830384F0BD0A460021018B4FF6B8
:104B80008F7319401143018370470A460021018B3E
:104B900048F6FF7319404FF6FF7303EA02231943E7
:104BA000018370470A460021818B4FF68F731940AD
:104BB0001143818370470A460021818B48F6FF73B9
:104BC00019404FF6FF7303EA0223194381837047AC
:104BD00021B1028842F08002028004E002884FF690
:104BE0007F731A400280704721B1828842F004022C
:104BF000828004E082884FF6FB731A4082807047FF
:104C000021B1828842F00802828004E082884FF657
:104C1000F7731A408280704721B1828842F0010206
:104C2000828004E082884FF6FE731A4082807047CB
:104C30000A460021018B4FF6F77319401143018397
:104C400070470A460021018B4FF2FF7319404FF65F
:104C5000FF7303EA02231943018370470A460021C8
:104C6000818B4FF6F77319401143818370470A46D1
:104C70000021818B4FF2FF7319404FF6FF7303EA57
:104C800002231943818370470A460021018B4FF6A6
:104C9000FB7319401143018370470A460021018BC1
:104CA0004FF6FF3319404FF6FF7303EA022319430F
:104CB000018370470A460021818B4FF6FB73194030
:104CC0001143818370470A460021818B4FF6FF33E1
:104CD00019404FF6FF7303EA02231943818370479B
:104CE0000A460021018B4FF67F731940114301835F
:104CF00070470A460021018BC1F30E014FF6FF7386
:104D000003EA02231943018370470A460021818B7D
:104D10004FF67F7319401143818370470A46002183
:104D2000818BC1F30E014FF6FF7303EA022319438F
:104D3000818370470A460021018C4FF6FD731940AC
:104D40001143018470470A460021018C4FF6F77326
:104D500019401143018470470A460021018C4FF627
:104D6000DF7319404FF6FF7303EA021319430184FE
:104D700070470A460021018C4FF67F7319404FF6A9
:104D8000FF7303EA02131943018470470A460021A6
:104D9000018C4FF6FF5319404FF6FF7303EA0223CD
:104DA0001943018470470A460021018C4FF2FF73BA
:104DB00019404FF6FF7303EA022319430184704739
:104DC0000A460021018C4DF6FF7319404FF6FF7320
:104DD00003EA023319430184704730B500230124EC
:104DE0008C40A3B2048C9C430484048C02FA01F529
:104DF000ADB22C43048430BD30B5002304248C4074
:104E0000A3B2048C9C430484048C02FA01F5ADB275
:104E10002C43048430BD70B503460020002418469E
:104E2000183001258D40ACB21D8CA5431D8409B1FD
:104E3000082909D100EB6100056825F070050560BF
:104E40000568154305600EE00D1FC5F34E052844A7
:104E5000056825F4E045056005684FF6FF7606EA2B
:104E600002263543056070BD21B1028842F002027E
:104E7000028004E002884FF6FD731A4002807047FA
:104E800021B1028842F00402028004E002884FF659
:104E9000FB731A400280704721B1828842F0800281
:104EA000828004E082884FF67F731A4082807047C8
:104EB00002884FF6F7731A40028002880A43028084
:104EC000704782884FF68F731A40828082880A4327
:104ED0008280704702894FF6F8731A400281028976
:104EE0000A430281704702894FF67F731A4002819C
:104EF00002890A4302817047818470478185704727
:104F0000818670470187704781877047A0F84010FD
:104F1000704702884FF6FF431A40028002880A4316
:104F2000028070470146888E70470146088F70479F
:104F30000146888F70470146B1F84000704701462E
:104F4000888C70470146088D704702460020138AFE
:104F50000B400BB1012000E000207047CA430282E1
:104F6000704730B50246002000230024158A05EA68
:104F70000103958905EA010413B10CB1012000E099
:104F8000002030BDCA430282704700002DE9F0477F
:104F900081460C46484600F07FF907460022184B30
:104FA00000F002F9054600F09DF916490860204618
:104FB00000F072F907460022114B00F0F5F80546A3
:104FC00000F090F910490860BDE8F08716E00A206B
:104FD000FEF74DF8641C1420B4FBF0F100FB114007
:104FE00028B90A480068C0430949C1F8A401094822
:104FF000007AFF2802D1002006490872E7E7000086
:1050000000408F40780400207C040020A4812142CD
:105010000080214274050020F0B480EA0102D40F20
:105020004200B2EB410F02D20246084611464A0046
:1050300042D0C30DDDB2C1F3C752AD1A202D35DA0F
:10504000C1F3160141F4000204B15242C5F1200639
:1050500002FA06F12A411044B3EBD05F23D0C4B169
:10506000012DA0EBC35009DCF0BC4FF0004202EA76
:10507000C352DBB200F5000000F09EB9400000F121
:10508000807000EBC350A0F1807040EAD1704900FD
:1050900009E0490841EAC071A0EBC35000F50000E7
:1050A000400800EBC350F0BC00F07DB96142012222
:1050B00002EB4101001BF6E7F0BC704781F00041B4
:1050C000AAE780F00040A7E780EA010210B502F0ED
:1050D0000043400022D04A001FD0010E01EB1261B4
:1050E000C0F35600C2F3560240F4000042F400023E
:1050F000A0FB022000047F39140400D0401C50EAB9
:10510000124001D44000491EC2B20C0604EBD0107C
:10511000401C4008802A02D003E0002010BD20F08F
:105120000100002900DA0020184310BD30B480EAE5
:10513000010202F0004530F0004221F0004013D09F
:1051400090B1C30DD40DC2F31601C0F31600E41ADA
:1051500041F4000140F400027D34914201D3641C0B
:1051600000E04900002C02DA30BC002070474FF408
:1051700000000023914201D3891A034340084FEAFB
:105180004101F7D151B1914202D14FF0004105E008
:1051900002D24FF0010101E06FF0010103EBC450B6
:1051A000284430BC00F0FFB82DE9F04D81EA03043B
:1051B00004F0004B21F0004514464FF0000A23F0A4
:1051C000004150EA050220D054EA01021DD0C5F387
:1051D0000A570246C5F31303C1F31300C1F30A567D
:1051E00040F4801543F48013A7EB0608101BD64645
:1051F00008F2FD3873EB050002D308F1010801E065
:1052000092185B41B8F1000F03DA00200146BDE8B7
:10521000F08D00204FF48011064684460EE0171BE7
:1052200073EB050705D3121B63EB050306434CEA3A
:10523000010C49084FEA300092185B4150EA01071F
:10524000EDD152EA030012D082EA040083EA05019C
:10525000084305D0101BAB4106D20122002306E013
:1052600000224FF0004302E06FF0010253101AEBEE
:1052700006004CEB085110EB0A0041EB0B01BDE8B6
:10528000F04D00F0C7B8C10F80EAE0700844CA07CB
:105290009623002100F090B80EB540F23341029100
:1052A0000021CDE900110A460B4600F0C2F803B018
:1052B00000BD00F0004220F00040C10DC0F3160018
:1052C00040F400007F2901DA00207047962903DCB2
:1052D000C1F19601C84001E096398840002AF4D017
:1052E0004042704701F0004330B421F0004150EAE1
:1052F000010206D00A0DA2F56072C1F31301002A63
:1053000002DC30BC00207047440F44EAC104C100F5
:10531000E01830BC00EBC25000F045B8002801DBBB
:10532000C0F10040002901DBC1F10041814270471A
:10533000002801DBC0F10040002901DBC1F1004180
:10534000884270472DE9F05F0546002092469B4653
:1053500088460646814640241BE02846414647468B
:10536000224600F0D6F853465A46C01A914110D34F
:1053700011461846224600F0BDF82D1A67EB0108C9
:105380004F4622460120002100F0B4F817EB000937
:105390004E41201EA4F10104DFDC484631462A4676
:1053A0004346BDE8F09F0029A8BF7047401C490054
:1053B00008BF20F00100704710B4B0FA80FC00FA7A
:1053C0000CF050EA010404BF10BC704749B1CCF1A5
:1053D000200421FA04F411FA0CF118BF0121214331
:1053E0000843A3EB0C01CB1D4FEA00614FEA1020EC
:1053F00042BF002010BC704700EBC350104400298E
:10540000A4BF10BC7047401C490008BF20F0010039
:1054100010BC704710B5141E73F1000408DA401C6C
:1054200041F1000192185B411A4301D120F00100C3
:1054300010BD2DE9F04D92469B4611B1B1FA81F2B3
:1054400002E0B0FA80F22032904600F053F80446B1
:105450000F4640EA0A0041EA0B0153465A46084308
:1054600013D0114653EA010019D0C8F1400250464A
:1054700000F04FF805460E4650465946424600F0A9
:1054800039F8084305D0012004E020463946BDE83C
:10549000F08D0020054346EAE0762C4337430A9816
:1054A0006305E40AA0EB08000022FD0A44EA475421
:1054B0000A3002D500200146E9E7010510196941CB
:1054C000DDE9084500196941BDE8F04DA2E700009B
:1054D000064C074D06E0E06840F0010394E8070041
:1054E00098471034AC42F6D3FAF726FEE85A000883
:1054F000085B0008202A04DB203A00FA02F10020B1
:1055000070479140C2F1200320FA03F31943904001
:105510007047202A04DB203A21FA02F0002170476C
:1055200021FA02F3D040C2F120029140084319460B
:10553000704770B58C1810F8015B15F0070301D1A6
:1055400010F8013B2A1106D110F8012B03E010F8E6
:10555000016B01F8016B5B1EF9D12B0705D4002309
:10556000521E0DD401F8013BFAE710F8013BCB1AAB
:10557000921C03E013F8015B01F8015B521EF9D5A0
:10558000A142D8D3002070BD0FB4054B10B503A9BC
:10559000044A029800F018F810BC5DF814FB0000F3
:1055A000813100081C04002002E008C8121F08C155
:1055B000002AFAD170477047002001E001C1121F94
:1055C000002AFBD1704700002DE9FF4F8DB00F4638
:1055D0000546002606E025280BD0DDE90F1290478E
:1055E0006D1C761C28780028F5D111B03046BDE836
:1055F000F08F0024A246A1460122EC4900E00443BA
:1056000015F8013F203B02FA03F00842F7D1287851
:105610002A2810D06FF02F022878A0F13001092934
:1056200014D80AEB8A0102EB410144F0020400EBBA
:10563000010A6D1CF0E701CF5FEA000A03D544F4CC
:105640000054CAF1000A44F002046D1C28782E2888
:1056500017D115F8010F44F004042A280ED06FF07A
:105660002F022878A0F1300109290AD809EB890115
:1056700002EB410100EB01096D1CF2E757F8049BB6
:105680006D1C28786C280FD006DC4C2817D06828B1
:105690000DD06A2814D104E0742810D07A280FD1D4
:1056A0000DE044F400140AE044F4801401E044F4F2
:1056B00040146978814202D104F580146D1C6D1C80
:1056C0002A786E2A1FD00CDC632A31D004DC002A31
:1056D0008BD0582A11D1A3E0642A68D0692A0CD152
:1056E00065E0732A2ED004DC6F2A73D0702A04D1AF
:1056F0009BE0752A6FD0782A6ED01046DDE90F1234
:105700009047761C50E1C4F30250022806D00328CB
:1057100009D0042801CF09D0066045E101CFF11777
:10572000C0E9006140E101CF06803DE106703BE148
:1057300017F8040B8DF8000000208DF80100EB46EF
:10574000012003E057F804BB4FF0FF3061074FF032
:10575000000102D40DE008F10101884649450FDA45
:105760008045F8DB1BF808100029F4D108E008F1A7
:10577000010188468142FADB1BF808100029F6D1A6
:10578000DDE90F23AAEB08008146214600F036F937
:10579000304400EB080604E0DDE90F121BF8010BB2
:1057A0009047B8F10108F7D221464846F7E00A21B0
:1057B000C4F302534FF0000B0891022B04D001CF29
:1057C000C117032B09D00AE0FF1D27F00707F7E8F0
:1057D000020108E032E01FE020E000B2C117042B14
:1057E00001D140B2C117031E71F1000307DA4FF077
:1057F000000CD0EB0C006CEB01012D2302E0230523
:1058000004D52B238DF82430012303E0E30701D0D6
:105810002023F7E7984658E00A2110E010210EE017
:1058200010204FF0000B08900CE010214FF0000BFF
:1058300044F004044FF00809089103E008214FF0F8
:10584000000B0891C4F30253022B04D001CF0021B6
:10585000032B06D006E0FF1D27F00707F7E802013B
:1058600003E080B2042B00D1C0B24FF00008230740
:105870002BD5702A07D0DDF820C08CF0100C5CEA24
:105880000B0C05D00EE040238DF82430012308E0F6
:1058900050EA010306D030238DF824308DF82520FE
:1058A00002239846DDF820C08CF0080C5CEA0B0C53
:1058B0000BD150EA010301D1630706D530238DF8DF
:1058C00024304FF00108A9F10109582A04D038A268
:1058D0000B9208AA0A920BE03AA2F9E75B46089AF3
:1058E000FFF730FD0B9B9B5C0A9A521E0A921370C5
:1058F00050EA0102F2D10A98ADEB000000F1200B52
:10590000600702D524F4803401E04FF00109D94545
:1059100002DDA9EB0B0000E0002000EB0B0141448D
:105920000890AAEB010AE00306D4DDE90F23214623
:10593000504600F063F806444FF0000908E009A95A
:1059400011F80900DDE90F12904709F10109761CF1
:10595000C145F4DBE0030CD5DDE90F2321465046B9
:1059600000F04CF8064404E0DDE90F1230209047C7
:10597000761C0899481E08900029F5DC08E00A9872
:105980000A990078491C0A91DDE90F129047761CAC
:10599000BBF10001ABF1010BF1DC21465046DDE922
:1059A0000F2300F019F806446D1C1BE609280100BE
:1059B0003031323334353637383961626364656685
:1059C0000000000030313233343536373839414247
:1059D00043444546000000002DE9F04104460025FF
:1059E0001E461746880404D405E039462020B047F7
:1059F0006D1C641EF9D52846BDE8F0812DE9F04103
:105A0000044600251E469046C80301D5302700E015
:105A10002027880404D505E041463846B0476D1C70
:105A2000641EF9D52846BDE8F08100003F00000063
:105A3000646563006964000072756E74696D650069
:105A400068656C70000000006C69737400000000F1
:105A500068657800766F6964207653657450776D59
:105A60002875696E7433325F74206B702C207569F1
:105A70006E7433325F74206B69290000766F69643D
:105A80002077726974655F616464722875333220AF
:105A9000616464722C7533322076616C29000000D9
:105AA00075333220726561645F6164647228753396
:105AB0003220616464722900766F69642064656CC9
:105AC00061795F6D7328753136206E6D7329000022
:105AD000766F69642064656C61795F7573287533CE
