:020000040800F2
:100000005808002015100008790200087B0200083B
:100010007F02000883020008870200080000000039
:100020000000000000000000000000008B0200083B
:100030008D020008000000008F02000891020008F5
:100040002F1000082F1000082F1000082F10000894
:100050002F1000082F1000082F1000082F10000884
:100060002F1000082F1000082F1000082F10000874
:100070002F1000082F1000082F1000082F10000864
:100080002F1000082F1000082F1000082F10000854
:100090002F1000082F1000082F1000082F10000844
:1000A0002F1000082F1000082F1000082F10000834
:1000B000FD090008310A0008430A00082F10000853
:1000C0002F1000082F1000082F1000082F10000814
:1000D0002F1000088B0F00082F1000082F100008A9
:1000E0002F1000082F1000082F1000082F100008F4
:1000F0002F1000082F1000082F1000082F100008E4
:100100002F1000082F100008550A00082F100008B3
:10011000AF0B00082F100008312300082F10000833
:100120002F1000082F1000082F1000082F100008B3
:1001300000F002F800F03AF80AA090E8000C8244BF
:100140008344AAF10107DA4501D100F02FF8AFF29C
:10015000090EBAE80F0013F0010F18BFFB1A43F0A5
:10016000010318478C2D0000AC2D0000103A24BF6D
:1001700078C878C1FAD8520724BF30C830C144BF0C
:1001800004680C607047000000230024002500264E
:10019000103A28BF78C1FBD8520728BF30C148BFEA
:1001A0000B6070471FB51FBD10B510BD02F057FBA7
:1001B0001146FFF7F7FF00F009F802F075FB03B4F2
:1001C000FFF7F2FF03BC00F085FE000000F0D4FD55
:1001D0004FF4A06000F03EFF00F04CF94FF4E13026
:1001E00000F087FE00F022FA00F09BFA00F003FB1B
:1001F00000F069FB002141F61F4000F0A0F941F634
:100200001F41322000F036FC164800F055FC00205B
:100210001549086001201549C1F8B00100201249B4
:10022000083108600120091F08601149086000209A
:10023000091F086001200E490831086000200D499F
:10024000C1F8880101F0F8FC0AE00748103800689E
:10025000C0430649C1F8A4014FF4FA7000F0C9FD8B
:10026000F3E70000A0860100B48121420080214212
:100270008401224200002242704700BFFEE700BF17
:10028000FEE700BFFEE700BFFEE77047704770471C
:10029000704700000CB50020019000906C48006889
:1002A00040F480306A49086000BF6948006800F483
:1002B000003000900198401C0190009818B90198F6
:1002C000B0F5A06FF1D16248006800F4003010B1C1
:1002D0000120009001E0002000900098012843D107
:1002E0005C48006840F010005A4908600846006801
:1002F00020F0030008600846006840F00200086033
:10030000534840685249486008464068486008467B
:10031000406840F4806048600846406820F47C10E3
:1003200048600846406840F4E810486008460068A5
:1003300040F08070086000BF4548006800F0007021
:100340000028F9D04248406820F003004049486046
:100350000846406840F00200486000BF3C484068E2
:1003600000F00C000828F9D10CBD10B5FFF792FF82
:1003700010BD10B53648006840F0010034490860EF
:1003800008464068344908403149486008460068DA
:10039000324908402E4908600846006820F4802051
:1003A00008600846406820F4FE0048604FF41F00D3
:1003B0008860FFF7DAFF4FF000602949086010BD40
:1003C00010B5002100200022214B5B6803F00C01D6
:1003D00021B1042906D0082928D107E0214B224C5D
:1003E000236027E01F4B204C236023E0184B5B6801
:1003F00003F47010164B5B6803F48032022303EBA6
:10040000904022B9194B4343174C23600DE0104B29
:100410005B6803F4003323B1144B4343124C236055
:1004200003E0104B4343104C236003E00D4B0E4C94
:10043000236000BF00BF064B5B68C3F303130C4C83
:10044000E15C094B1B68CB40074C236010BD0000EA
:1004500000100240002002400000FFF8FFFFF6FEFF
:1004600008ED00E000127A000000002000093D00C5
:100470000400002008B50121082001F075F94FF4AF
:100480000070ADF8000010208DF8030003208DF8F7
:1004900002006946044800F0ABFE4FF400710248C8
:1004A00000F053FF08BD0000000C014008B5012119
:1004B000102001F059F94FF47070ADF800001820C9
:1004C0008DF8030003208DF802006946534800F0C0
:1004D0008FFE4FF47071514800F039FF08BD08B528
:1004E0000121082001F040F94FF47040ADF8000000
:1004F00010208DF8030003208DF80200694648485B
:1005000000F076FE4FF47041454800F020FF0121D5
:10051000102001F029F90F20ADF8000010208DF80F
:10052000030003208DF8020069463C4800F060FE9D
:100530000F213A4800F00BFFFFF7B8FF08BD70B578
:1005400005460C46FFF7CBFF3648806940F4005063
:100550003449886134480580001F048032481438CB
:10056000008840F06000304914390880084600884F
:1005700040F4C0400880081D008840F06000091D5C
:1005800008800846008840F4C0400880081F0088A2
:1005900040F00800091F08800846008840F4006009
:1005A0000880081D008840F00800091D08800846E2
:1005B000008840F400600880081D008840F00100B9
:1005C000091D08800846008840F010000880084691
:1005D000008840F4807008800846008840F480500D
:1005E000088011481830008840F400400E49183146
:1005F00008804FF400400C492C39088008460088D8
:1006000040F0010008800020074908310880091DDA
:100610000880091D0880091D088070BD0010014078
:10062000000C0140001002402C34014010B5F94884
:10063000806940F00100F7498861F748406820F47C
:100640004070F54948600846406840F48070486052
:10065000F048C06940F00100EE49C8610846806971
:1006600040F0040088610846806940F00800886115
:10067000EA48006820F07040E849086008460068D1
:1006800040F080400860E648006820F47040E4498B
:1006900008600846006840F4804008604FF08040E1
:1006A000808940F001004FF08041888108468089B0
:1006B00040F04000888102231C220321012000F029
:1006C000CBFB00204FF0804108854FF6FF708885F6
:1006D0000846008820F4407008800846008820F012
:1006E000600008800846008B40F00100088308463F
:1006F000008B40F4807008830846008C20F00200D4
:1007000008840846008C20F02000088408460089F0
:1007100040F0030008810846008840F0010008808E
:1007200010BD10B5BB48C06940F00200B949C861AE
:100730000846806940F008008861B848001F0068DA
:1007400020F07F40B549091F08600846006840F066
:1007500088400860B348008840F00100B149088033
:100760000846008840F04000088002231D22032133
:10077000012000F071FB0020AA491C3108804FF6CF
:10078000FF70091D0880A7480C38008820F44070CD
:10079000A4490C3908800846008820F060000880D1
:1007A000A0480C30008840F001009E490C310880C0
:1007B0000846008840F4807008809A481430008809
:1007C00020F002009749143108800846008820F084
:1007D000200008809348001F008840F003009149E2
:1007E000091F08808F480C38008840F001008D49AF
:1007F0000C39088010BD10B58648C06940F004006F
:100800008449C8610846806940F0080088618448CE
:10081000006820F07F40824908600846006840F088
:10082000884008608048008840F001007E490880C8
:100830000846008840F04000088002231E22032161
:10084000012000F009FB002077491C3108804FF699
:10085000FF70091D088074480C38008820F440702F
:1008600071490C3908800846008820F06000088033
:100870006D480C30008840F001006B490C31088055
:100880000846008840F4807008806748143000886B
:1008900020F002006449143108800846008820F0E6
:1008A000200008806048001F008840F003005E4977
:1008B000091F08805C480C38008840F001005A4944
:1008C0000C39088010BD10B55248C06940F00800CE
:1008D0005049C8610846806940F0040088614F486B
:1008E000001F006820F0FF004C49091F08600846FF
:1008F000006840F044000860C804808940F00100AE
:10090000C90488810846808940F04000888102231C
:1009100032220321012000F09FFA00204349088081
:100920004FF6FF70091D088040482838008820F4E1
:1009300040703E49283908800846008820F0600051
:1009400008803A481038008840F0010037491039D3
:1009500008800846008840F48070088033480838D2
:10096000008820F0020031490839088008460088D4
:1009700020F0200008802D482038008840F0030037
:100980002A492039088029482838008840F0010089
:1009900026492839088010BD0146022906D00329BE
:1009A0000DD0042914D0052924D11AE04FF080423B
:1009B000928C10B200224FF080439A841CE0194AB6
:1009C0001832128810B20022164B18331A8013E026
:1009D000154A1832128810B20022134B18331A80AD
:1009E0000AE0124A121F128810B200220F4B1B1F7E
:1009F0001A8001E0002000BF00BF70474FF0804028
:100A0000008A4FF08040008A20F001004FF08041C2
:100A100008827047001002400000014004080140B5
:100A2000000C01400C0400400C080040280C004061
:100A30000D4800880C48008820F001000A49088011
:100A400070470A4800880948008820F001000749DB
:100A500008807047064800880548008820F001009B
:100A6000034908807047000010040040100800404F
:100A7000100C004070B505460C460D48C06940F0AA
:100A800010000B49C8610B4885850485808940F0BA
:100A90000100084988810846008840F0010008806C
:100AA000022336220121184600F0D6F970BD00005D
:100AB000001002400010004010B586B0044601212D
:100AC000C80400F05EFE0121102000F04DFE182049
:100AD0008DF817004FF48060ADF8140003208DF8F6
:100AE000160005A9774800F083FB48208DF8170011
:100AF0004FF40060ADF8140005A9724800F078FBCF
:100B000001940020ADF810000C20ADF80E0000207C
:100B1000ADF80C00ADF80A00ADF8080001A96A486C
:100B200000F0C9FE34208DF8000001208DF803008C
:100B30008DF801008DF80200684600F090FA01225D
:100B400040F22551604800F04EFF01215E4800F060
:100B50003EFF06B010BD5C4909885B49091D08804D
:100B600000BF5949098801F040010029F9D05649D0
:100B7000098821F04001544A1180704700B50346AE
:100B800003E01878FFF7E7FF5B1C18780028F8D11E
:100B900000BD10B503460C4603E01878FFF7DBFFF5
:100BA0005B1C201EA4F10101CCB2F6D110BD10B522
:100BB000002440F22551444800F0FAFF00287FD07D
:100BC000414800F075FFC4B24048007808286DD253
:100BD000DFE800F00414242526304055552C09D1B7
:100BE0003B483A490978445438480078401C374912
:100BF000087002E00020354908705BE0AA2C09D19A
:100C0000334832490978445430480078401C2F4911
:100C1000087002E000202D4908704BE000BF00BFC3
:100C20002B482A490978445428480078401C274911
:100C300008703FE0FF2C09D1254824490978445425
:100C400022480078401C2149087002E000201F491A
:100C500008702FE006211E4800F03CF8C0B2A04208
:100C600009D11B4819490978445418480078401C98
:100C70001649087002E00020144908701AE00621A5
:100C8000134800F027F8B4EB202F09D110480F4982
:100C900009784454FF200E49087200200B4908705F
:100CA00000200A49087005E00AE0FFE70020074934
:100CB000087000BF00BF40F22551034800F0A2FFBA
:100CC00010BD000000100140004C00401400002046
:100CD000E8010020F0B502464FF6FF700025002322
:100CE00013E012F8016B704000240AE000F00106E6
:100CF00026B14AF2010686EA600000E04010661C58
:100D0000F4B2082CF2DB5E1CF3B28B42E9DBC5B215
:100D100000F47F4646EA0500F0BD10B502460B46DA
:100D20000021002000BF04E0545C0444E0B24C1CED
:100D3000E1B29942F8DB4442E0B210BD10B5024680
:100D40000B460021002000BF04E0545C0444E0B2E4
:100D50004C1CE1B29942F8DB10BD10B502460B46BF
:100D60000021002000BF04E0545C0444A0B24C1CED
:100D7000E1B29942F8DB10BD10B56FF0040000F04D
:100D8000B8F92E4800682E49B0FBF1F02D490870E3
:100D90000846007800EB4001C1EBC0104FF6FF7130
:100DA00001EAC0002849088010BD0146254A127892
:100DB0004A434FF0E0235A6100229A611A461269B1
:100DC00042F001021A6100BF4FF0E022106900F00A
:100DD00001021AB100F48032002AF5D04FF0E0226F
:100DE000126922F001024FF0E0231A6100229A6199
:100DF00070470146144A12884A434FF0E0235A6173
:100E000000229A611A46126942F001021A6100BF7B
:100E10004FF0E022106900F001021AB100F48032B4
:100E2000002AF5D04FF0E022126922F001024FF0C3
:100E3000E0231A6100229A61704700000000002040
:100E400000127A00160000201800002030BF704702
:100E500072B6704762B670472DE9F0410746884682
:100E600014461D464FF4A06000F0F4F8C5F10400EC
:100E700007FA00F60F20284100EA0800064306F0B2
:100E80000F06E21704EBD2625211920002F1E02247
:100E9000D2F800212146E31704EBD3635B11A4EBE6
:100EA000431C012303FA0CF31A432046E31704EB17
:100EB000D3635B119B0003F1E023C3F800210448D6
:100EC000005D40EA061002490855BDE8F0810000C7
:100ED00000E400E0014600BF704700BF494A1288A5
:100EE00002F04002002AF9D0C2B2464B1B1D1A8004
:100EF000704710B586B00446012144F2040000F0AA
:100F000033FC4FF40070ADF8140003208DF8160088
:100F100018208DF8170005A93B4800F069F94FF437
:100F20008060ADF8140004208DF8170005A936483C
:100F300000F05EF925208DF8000003208DF80100F7
:100F40008DF8020001208DF80300684600F087F854
:100F500001940020ADF80800ADF80A00ADF80C00CF
:100F6000ADF810000C20ADF80E0001A9254800F0E6
:100F7000A2FC012240F22551224800F034FD01215B
:100F8000204800F024FD06B010BD10B540F22551F8
:100F90001C4800F00DFE10B31A4800F089FDC4B2E1
:100FA0001A48008800F40040C8B91848008800F4C6
:100FB000804060B10A2C03D000201449088020E052
:100FC0001248008840F400401049088019E00D2CB8
:100FD00006D10E48008840F480400C49088010E09B
:100FE0000A480088C0F30D0009490C5407480088DE
:100FF000401C0649088008460088C72801DD0020FB
:10100000088010BD00380140000801402000002089
:10101000200100200948804709480047FEE7FEE715
:10102000FEE7FEE7FEE7FEE7FEE7FEE7FEE7FEE798
:1010300004480549054A064B704700007303000841
:1010400031010008580200205808002058040020F0
:101050005804002031490143314A1160704770B58E
:10106000002100230F22C47804B32D4C246804F41B
:10107000E064C4F5E064210AC1F10403CA40447885
:1010800004FA03F18478144021430901254C0678C1
:10109000A155047804F01F050124AC4005786D11BA
:1010A000AD0005F1E025C5F8004109E0047804F041
:1010B0001F050124AC401C4D0678761145F82640EA
:1010C00070BD1A4A0A400243154B1B1F1A60704735
:1010D00039B1134A121D12680243114B1B1D1A60CD
:1010E00006E00F4A121D126882430D4B1B1D1A6049
:1010F0007047042808D14FF0E021096941F004014C
:101100004FF0E022116107E04FF0E021096921F082
:1011100004014FF0E0221161704700000000FA0561
:101120000CED00E000E400E080E100E080FFFF1F44
:1011300010B50446CC48844208D10121042000F0B7
:101140002DFB0021042000F029FB46E0C748844223
:1011500008D10121082000F021FB0021082000F027
:101160001DFB3AE0C248844208D10121102000F062
:1011700015FB0021102000F011FB2EE0BD48844239
:1011800008D10121202000F009FB0021202000F0DF
:1011900005FB22E0B848844208D10121402000F03C
:1011A000FDFA0021402000F0F9FA16E0B34884422D
:1011B00008D10121802000F0F1FA0021802000F008
:1011C000EDFA0AE0AE48844207D10121801500F013
:1011D000E5FA0021A01500F0E1FA10BD10B50121DB
:1011E000084600F0DBFA0021012000F0D7FA10BD1C
:1011F0002DE9F041024600250026002000230024AE
:10120000002791F803C00CF00F0591F803C00CF013
:10121000100CBCF1000F03D091F802C04CEA050598
:1012200091F800C0BCF1000F31D0146800202BE011
:101230004FF0010C0CFA00F3B1F800C00CEA030601
:101240009E4220D183004FF00F0C0CFA03F7BC43F1
:1012500005FA03FC4CEA040491F803C0BCF1280F22
:1012600006D14FF0010C0CFA00FCC2F814C00AE0E1
:1012700091F803C0BCF1480F05D14FF0010C0CFAF6
:1012800000FCC2F810C0401C0828D1D31460B1F88B
:1012900000C0BCF1FF0F34DD546800202EE000F1E7
:1012A000080C4FF0010808FA0CF3B1F800C00CEA82
:1012B00003069E4221D183004FF00F0C0CFA03F776
:1012C000BC4305FA03FC4CEA040491F803C0BCF1EA
:1012D000280F05D100F1080C08FA0CF8C2F81480A8
:1012E00091F803C0BCF1480F07D100F1080C4FF092
:1012F000010808FA0CF8C2F81080401C0828CED368
:101300005460BDE8F0814FF6FF71018002218170C9
:101310000421C17070470246002093680B400BB156
:10132000012000E0002070470146886880B27047C5
:1013300002460020D3680B400BB1012000E00020E2
:1013400070470146C86880B27047016170474161CB
:1013500070470AB1016100E041617047C1607047A8
:101360004FF480320A4382618161826182698269BD
:10137000704702460020434B18684FF680731840B0
:1013800040EA021008433F4B186070473E49C8616D
:101390007047F0B50A46002300240021002500F024
:1013A0000046B6F1004F02D1364EF16901E0354EEC
:1013B0007168C0F3034583B200F44016B6F5401FD0
:1013C00008D121F070612F4E766826F070662D4F9F
:1013D0007E6012E000F48016B6F5801F06D1032669
:1013E00006FA05F4A14341F0706106E0460D3601AE
:1013F00003FA06F6B14341F0706122B1460D3601A1
:1014000003FA06F6314300F00046B6F1004F02D170
:101410001C4EF16101E01B4E7160F0BD30B5002241
:101420008B071C0F0F2303FA04F2164B08338C10A2
:1014300053F824309343134C08348D1044F825306E
:1014400023468C1053F824308C07240F00FA04F440
:1014500023430C4C08348D1044F8253030BD0A4924
:10146000DC3108607047000000080140000C0140BA
:10147000001001400014014000180140001C014010
:10148000002001400000014000002042DF480068C9
:1014900040F00100DD49086008464068DC4908402A
:1014A000DA49486008460068DA490840D7490860C8
:1014B0000846006820F4802008600846406820F450
:1014C000FE0048604FF41F0088607047CF490968EC
:1014D00021F48031CD4A11601146096821F4802140
:1014E0001160B0F5803F03D0B0F5802F0ED106E03B
:1014F000C649096841F48031C44A116007E0C34914
:10150000096841F4A021C14A116000E000BF00BF9A
:10151000704710B501460022002300204A11012A1D
:1015200002D1BA4C236806E0022A02D1B74C236AE2
:1015300001E0B64C636A01F01F02012494401C4094
:101540000CB1012000E0002010BD38B50020009053
:101550000024002500BF3120FFF7DBFF054600987F
:10156000401C00900098B0F5A06F01D0002DF2D083
:101570003120FFF7CEFF08B1012400E0002420460F
:1015800038BD01460020A14A106820F0F80040EA6A
:10159000C10010607047A0490860704702460020F3
:1015A0009A4B586820F47C1042EA01031843974B89
:1015B0005860704798490866704701460020934A72
:1015C000506820F003000843506070478F4840681F
:1015D00000F00C007047014600208C4A506820F053
:1015E000F00008435060704701460020874A506869
:1015F00020F4E06008435060704701460020834AB1
:10160000506820F4605040EAC1005060704729B132
:101610007E4A527A02437D4B5A7204E07B4A527AE8
:1016200082437A4B5A7270477B49D83108607047C1
:1016300001460020754A506820F44040084350603D
:1016400070470021714A20321170704A82F82010D0
:10165000012802D004280AD104E001216B4A20327B
:10166000117005E00521694A2032117000E000BFC9
:1016700000BF70476949086070476449096A0143BF
:10168000624A11627047654944390860704730B555
:1016900000210022002400235C4D6D6805F00C0140
:1016A00021B1042905D0082923D105E05C4D05604E
:1016B00022E05B4D05601FE0544D6D6805F470122B
:1016C000524D6D6805F48034022505EB92421CB939
:1016D000544D554305600BE04C4D6D6805F40035E5
:1016E0001DB1504D5543056002E04D4D5543056019
:1016F00002E04B4D056000BF00BF444D6D6805F032
:10170000F0010909484D6B5C0568DD4045603F4DBF
:101710006D6805F4E061090A434D6B5C4568DD4086
:1017200085603A4D6D6805F46051C90A3E4D6B5CA9
:101730004568DD40C560354D6D6805F44041890B55
:101740003A4D6B5CC568B5FBF3F5056130BD29B159
:101750002E4A526902432D4B5A6104E02B4A5269CA
:1017600082432A4B5A61704729B1284A9269024341
:10177000264B9A6104E0254A92698243234B9A6181
:10178000704729B1214AD2690243204BDA6104E053
:101790001E4AD26982431D4BDA61704729B11B4A48
:1017A000D2680243194BDA6004E0184AD2688243D7
:1017B000164BDA60704729B1144A12690243134B81
:1017C0001A6104E0114A12698243104B1A61704792
:1017D00012494039086070470F49C86470470B4987
:1017E000C87170470948406A40F0807007494862F4
:1017F000704701460020054A92680A400AB101205C
:1018000000E00020704701498872704700100240D4
:101810000000FFF8FFFFF6FE000042428004424253
:1018200000127A0000093D00220000203200002052
:1018300010B50446FB48844209D101218803FFF713
:10184000ADFF00214FF48040FFF7A8FF32E0F648DB
:10185000844209D101214804FFF7ADFF00214FF474
:101860000030FFF7A8FF25E0F048844209D10121AC
:101870008804FFF7A0FF00214FF48020FFF79BFFB3
:1018800018E0EB48844209D10121C804FFF793FF17
:1018900000214FF40020FFF78EFF0BE0E548844263
:1018A00008D101210805FFF786FF00214FF48010C1
:1018B000FFF781FF10BD2DE9F04786B005460E46C3
:1018C0000024A24600BFA1460027B08900B100BF96
:1018D0002F462C8A4CF6FF700440F08804432C827B
:1018E000AC894EF6F3100440B08831890843718901
:1018F00008430443AC81AC8A4FF6FF400440B089F2
:101900000443AC8201A8FFF7C2FEC648874202D159
:10191000DDF810A001E0DDF80CA0A88900F400407B
:1019200040B10AEBCA0000EB0A1031684900B0FB75
:10193000F1F807E00AEBCA0000EB0A1031688900F1
:10194000B0FBF1F86420B8FBF0F004012009642139
:1019500001FB1089A88900F4004040B1322000EB5F
:10196000C900B0FBF1F000F00700044308E03220AA
:1019700000EB09106421B0FBF1F000F00F0004430C
:101980002C8106B0BDE8F0874FF4165101600021AC
:101990008180C18001810C214181002181817047BA
:1019A00010B502460020108A4FF2FF0318400B8842
:1019B0004C8823438C882343CC88234318431082CC
:1019C00010BD0021018041808180C180704721B11C
:1019D000828942F40052828104E082894DF6FF73CD
:1019E0001A4082817047F0B5034600240026002586
:1019F000002040F66A17B94200D100BF1846C1F373
:101A0000421401F01F06012707FA06F5012C01D147
:101A10000C3004E0022C01D1103000E014301AB177
:101A200007682F43076002E00768AF430760F0BD17
:101A30001AB1838A0B43838202E0838A8B438382B9
:101A40007047028A4FF6F0731A400282028A0A43F4
:101A50000282704782894FF2FF731A408281828925
:101A60000A438281704721B1828942F00202828159
:101A700004E082894FF6FD731A4082817047028A22
:101A80004FF6DF731A400282028A0A4302827047CD
:101A900021B1028A42F48042028204E0028A4BF6BB
:101AA000FF731A4002827047C1F3080282807047B8
:101AB00001468888C0F308007047818941F0010120
:101AC00081817047028BD2B20283028B42EA0122EB
:101AD00002837047028B02F47F420283028B0A4327
:101AE0000283704721B1828A42F02002828204E0A0
:101AF000828A4FF6DF731A408282704721B1828A50
:101B000042F01002828204E0828A4FF6EF731A409C
:101B10008282704721B1828A42F00802828204E008
:101B2000828A4FF6F7731A408282704721B1828908
:101B300042F40042828103E08289C2F30E02828174
:101B4000704721B1828A42F40062828204E0828A74
:101B50004FF2FF731A4082827047828A4FF6FB73FE
:101B60001A408282828A0A438282704721B1828A25
:101B700042F00202828204E0828A4FF6FD731A402C
:101B80008282704702460020B1F5007F00D100BF7D
:101B900013880B400BB1012000E00020704701F4D6
:101BA0000072B2F5007F00D100BFCA4302807047C7
:101BB00070B50246002400230025002040F66A1676
:101BC000B14200D100BFC1F3421501F01F0301264D
:101BD00006FA03F3012D02D19689334006E0022D67
:101BE00002D1168A334001E0968A33400C12012656
:101BF00006FA04F41688344013B10CB1012000E059
:101C0000002070BD10B50022002340F66A14A142E6
:101C100000D100BF0A1201249440A3B2DC43048027
:101C200010BD000000380140004400400048004062
:101C3000004C0040005000401DE00A20FFF7D9F89A
:101C4000641C1420B4FBF0F100FB114028B90A48D1
:101C50000068C0430949C1F8A4010948007AFF2877
:101C600009D100200649087208468078012802D16F
:101C7000087900F095F8E0E7A48121420080214234
:101C8000E80100202DE9F04104460D46F6492846BA
:101C900000F0B0FF0746214601F0A9F8064600F023
:101CA00041FFF2490860F049284600F0A3FF0746CB
:101CB000214601F09CF8064600F034FFEC4908602C
:101CC000E949284600F096FF0746214600F0FAFD54
:101CD000064600F027FFE7490860E349284600F080
:101CE00089FF0746214600F0EDFD064600F01AFF89
:101CF000E1490860BDE8F0812DE9F04104460D4658
:101D0000D949284600F076FF8046DC4900F072FF92
:101D10000746214601F06BF8064600F003FFD8495C
:101D20000860D149284600F065FF8046D34900F09D
:101D300061FF0746214601F05AF8064600F0F2FE20
:101D4000D0490860C849284600F054FF8046CB4976
:101D500000F050FF0746214600F0B4FD064600F0B3
:101D6000E1FEC9490860C049284600F043FF8046AB
:101D7000C24900F03FFF0746214600F0A3FD06469A
:101D800000F0D0FEC1490860BDE8F0810020C049E4
:101D90000860C0490860C0490860C04908607047D1
:101DA00000B502460A2A77D2DFE802F00514243192
:101DB000404E5C687786FFF7E9FF42F21070AD494C
:101DC00008604042AC490860A94908604042A74900
:101DD00008608DE0FFF7DAFF42F21070A549086055
:101DE0000020A5490860A249086042F210709F498E
:101DF00008607DE0FFF7CAFF42F210709D4908605D
:101E00009D4908609A4908609849086070E0FFF7AA
:101E1000BDFF00209749086042F2107096490860A3
:101E20009349086000209149086061E0FFF7AEFF28
:101E30009B489049086040428F4908608C4908607F
:101E400040428A49086053E0FFF7A0FF944889495F
:101E500008600020884908608549086090488349E7
:101E6000086045E0FFF792FF8D488249086082498B
:101E700008607F4908607D49086039E0FFF786FF08
:101E800000207C49086086487B49086078490860E2
:101E90000020764908602BE01EE0FFF777FF8048BE
:101EA00074490860404274490860404270490860C3
:101EB00040426E4908601BE0FFF768FF42F2107075
:101EC0006C49086040426C490860404268490860BB
:101ED0004042664908600BE000206449086065499B
:101EE00008606549086062490860FFF74FFF00BF5E
:101EF00000BF00BD30B500280ADA0124694D2C600E
:101F00000024694DC5F8B0414442684D2C8008E07A
:101F10000024644D2C600124634DC5F8B041634D2D
:101F2000288000290CDA01245E4D08352C6000243D
:101F30005D4DC5F8B8414C425C4D2D1D2C800AE02A
:101F40000024584D08352C600124574DC5F8B84180
:101F5000564D2D1D2980002A0BDA0024544D2C608B
:101F60000124544DC5F880415442504D08352C8011
:101F700009E001244E4D2C6000244E4DC5F88041EF
:101F80004A4D08352A80002B0CDA0024484D0835CC
:101F90002C600124474DC5F888415C42434D0C3507
:101FA0002C800AE00124424D08352C600024414D6C
:101FB000C5F888413D4D0C352B8030BD2DE9F047EB
:101FC00004460D46601B00F0C9FD3B490860084609
:101FD00001683A48006800F075FC384908603849E3
:101FE0003648006800F0D2FE02D235483349086016
:101FF00034493248006800F0C9FD02D231482F4907
:102000000860314801682C48006800F0FBFE8046FB
:102010002E480168404600F0EDFD06462C492D484B
:10202000006800F0BDFC824624480168504600F07C
:10203000E1FD8046204801682748006800F0DAFD8D
:102040008146414600F03EFC0746314600F03AFC2E
:1020500022490860184800681B4908601F4800684A
:1020600000F060FDBDE8F087C1CAA13D5800002026
:102070005C0000206000002064000020000020417F
:10208000780000207C0000208000002084000020D8
:10209000680000206C000020700000207400002008
:1020A000F0D8FFFFB4812142008021423434014046
:1020B0008401224200002242100100201801002069
:1020C0000050C3470050C3C71C01002098000020E7
:1020D0000000C8429400002090000020140100205D
:1020E0002DE9F04704460D46601B00F037FDFE4920
:1020F000086008460168FD48006800F0E3FBFB4902
:102100000860FB49F948006800F040FE02D2F84838
:10211000F6490860F749F548006800F037FD02D23B
:10212000F448F2490860F4480168EF48006800F09C
:1021300069FE8046F1480168404600F05BFD0646B6
:10214000EF49F048006800F02BFC8246E748016840
:10215000504600F04FFD8046E3480168EA480068B9
:1021600000F048FD8146414600F0ACFB0746314691
:1021700000F0A8FBE5490860DB480068DE4908601C
:10218000E248006800F0CEFCBDE8F0872DE9F0479A
:1021900004460D46601B00F0E1FCDD49086008467E
:1021A0000168DC48006800F08DFBDA490860D0491E
:1021B000D848006800F0EAFD02D2CD48D549086051
:1021C000CC49D448006800F0E1FC02D2C948D149AA
:1021D0000860D1480168CE48006800F013FE8046D0
:1021E000C6480168404600F005FD0646C449C5489A
:1021F000006800F0D5FB8246C6480168504600F0F2
:10220000F9FC8046C2480168BF48006800F0F2FC53
:102210008146414600F056FB0746314600F052FB2E
:10222000BE490860BA480068BB490860BB480068FE
:1022300000F078FCBDE8F0872DE9F04704460D4634
:10224000601B00F08BFCB649086008460168B54881
:10225000006800F037FBB3490860A549B148006841
:1022600000F094FD02D2A248AE490860A149AD48F1
:10227000006800F08BFC02D29E48AA490860AA4878
:102280000168A748006800F0BDFD80469B480168D2
:10229000404600F0AFFC064699499A48006800F0B5
:1022A0007FFB82469F480168504600F0A3FC8046B1
:1022B0009B4801689448006800F09CFC81464146B8
:1022C00000F000FB0746314600F0FCFA9749086031
:1022D00093480068944908609448006800F022FC24
:1022E000BDE8F087014640F2564291421EDA0120D5
:1022F00000228F4B1A801B1D1A801B1D1A801B1D6C
:102300001A808C4B1A608C4BC3F8B021894B083370
:102310001A601B1F1A60894B1A601B1F1A60874BBB
:1023200008331A60864BC3F8882100E0002070470C
:1023300010B58448008A00F00100002872D081485E
:10234000008A20F001007F4908827F48007808B9A0
:10235000012000E000207C4908700220FEF71CFBF1
:102360007A4908607A480068096808447849086032
:102370000320FEF711FB404276490860764800686A
:1023800009680844744908600520FEF705FB734995
:1023900008607348006809680844714908600420AF
:1023A000FEF7FAFA40426F4908606F480068096812
:1023B00008446D4908604FF48B60FFF793FF88BBBA
:1023C0006A48016862480068FFF736FF4042001221
:1023D000674908606748016863480068FFF7D6FEF0
:1023E0004042001264490860644801685A48006825
:1023F000FFF776FE404200126149086061480168BB
:1024000057480068FFF7DAFD404200125E49086055
:1024100059480368084602685948016854480068EA
:10242000FFF768FD002010BD514909684242914202
:1024300002DA41424E4A11604D490968814201DD8C
:102440004B4908604C4909684242914202DA4142D4
:10245000494A116048490968814201DD46490860DE
:10246000474909684242914202DA4142444A1160B6
:1024700043490968814201DD4149086042490968D0
:102480004242914202DA41423F4A11603E490968A4
:10249000814201DD3C490860704730B5344C246806
:1024A0004542AC4202DA4442314D2C60304C246843
:1024B000844201DD2E4C20602F4C24684D42AC42FA
:1024C00002DA4C422C4D2C602B4C24688C4201DDEE
:1024D000294C21602A4C24685542AC4202DA54420D
:1024E000274D2C60264C51E00001002008010020FF
:1024F0000050C3470050C3C70C01002098000020C3
:102500000000C84294000020900000200401002038
:10251000F0000020F8000020FC000020F400002063
:10252000E0000020E8000020EC000020E400002093
:1025300034340140B481214200802142840122428E
:1025400000002242001000409C00002048000020B3
:10255000680000205000002070000020540000207F
:10256000740000204C0000206C0000205800002067
:10257000380000205C0000203C00002060000020AB
:1025800040000020640000204400002024689442A1
:1025900001DD9F4C22609F4C24685D42AC4202DA10
:1025A0005C429C4D2C609B4C24689C4201DD994C04
:1025B000236030BD0146002901DA484200E00846A8
:1025C00070472DE9F05F04460D46601B9249086094
:1025D0000846006800F0C2FA8346904801685846F1
:1025E00000F008FB80468C4909688D4A1268881AF9
:1025F00000F0B4FA83468B480168584600F0FAFAB6
:102600008146414600F05EF907468748006800F0C1
:10261000A5FA8246394600F055F9064600F082FADE
:102620008149086008460068B0F5E15F02DD4FF4BB
:10263000E15008607C48006810F5E15F02DA7B48F1
:1026400079490860744800687549086076480068F0
:10265000BDE8F09F2DE9F05F04460D46601B74490C
:1026600008600846006800F079FA83466B48016804
:10267000584600F0BFFA80466D4909686D4A1268F5
:10268000881A00F06BFA834666480168584600F0E5
:10269000B1FA8146414600F015F9074666480068E0
:1026A00000F05CFA8246394600F00CF9064600F06C
:1026B00039FA6149086008460068B0F5E15F02DD5B
:1026C0004FF4E15008605C48006810F5E15F02DA01
:1026D00056485949086056480068564908605648A7
:1026E0000068BDE8F09F2DE9F05F04460D46601BD1
:1026F000524908600846006800F030FA83464748AF
:102700000168584600F076FA80464C4909684C4A00
:102710001268881A00F022FA834642480168584637
:1027200000F068FA8146414600F0CCF8074645487B
:10273000006800F013FA8246394600F0C3F80646F6
:1027400000F0F0F93F49086008460068B0F5E15F25
:1027500002DD4FF4E15008603A48006810F5E15F8F
:1027600002DA324837490860344800683449086062
:1027700034480068BDE8F09F2DE9F05F04460D463F
:10278000601B314908600846006800F0E7F983469D
:1027900022480168584600F02DFA80462A49096807
:1027A0002A4A1268881A00F0D9F983461D48016840
:1027B000584600F01FFA8146414600F083F807466C
:1027C0002348006800F0CAF98246394600F07AF8DA
:1027D000064600F0A7F91E49086008460068B0F5F3
:1027E000E15F02DD4FF4E15008601948006810F520
:1027F000E15F02DA0D481649086013480068134982
:10280000086013480068BDE8F09F70477047704744
:102810004000002044000020B00000208C00002078
:10282000B800002088000020B4000020E0E3FFFF93
:10283000BC000020C4000020C0000020C800002010
:10284000D0000020CC000020D4000020DC000020BC
:10285000D800002070477047704770477047754632
:1028600000F02CF8AE4605006946534620F00700FC
:10287000854618B020B5FEF7DBFBBDE820404FF0E1
:1028800000064FF000074FF000084FF0000B21F05A
:102890000701AC46ACE8C009ACE8C009ACE8C00927
:1028A000ACE8C0098D46704710B50446AFF3008010
:1028B0002046BDE81040FDF782BC0000004870478C
:1028C000F401002090EA010F48BF81F0004100F1BF
:1028D000A082421A3CBF801A89184FEAD0524FF0AA
:1028E0007F4C1CEA410FA2EBD15318BF9CEA026F48
:1028F00000F03B804FF0004C4CEA00204CEA0121F4
:1029000021FA03FC10EB0C0C1ED202F1FF325FEA3D
:102910001C2040EBC25038BF70471CF07F0F4FEABD
:10292000400C18BFBCF17F4F38BF7047C3F1200384
:10293000994008BF20F00100BCF17F4F38BF7047BD
:10294000A0F1C04000F01DBA4FEA3C00000A40EB85
:10295000C25028BF1CF0FF0F4FEA400CE6D018BF52
:10296000BCF17F4F38BF7047EAE79CEA026F05D0A1
:1029700010EA5C0F08BF00F00040704710B500F08F
:10298000BAF900BF64FBBE3E401058BFC0F14040E2
:10299000491058BFC1F140418142EFF300807047B8
:1029A0004FF47F0C1CEAD0121EBF1CEAD11392EA2E
:1029B0000C0F93EA0C0F00F0858090EA010F48BFDE
:1029C00042F4807240F4000C41F400002CF07F418E
:1029D00020F07F4000B58142A2EB03020FF2081CF9
:1029E000ACEB504EC0F100009EF800E04FEA4E0EF6
:1029F00000FB0EFC38BF49004FEA2C1C02F5FA021E
:102A00000CFB0EF34FEACE1E4FEA112C4FEAC12108
:102A10000EEB635E42EB22420EFB0CFC4FEA1C53B2
:102A200000FB03114FEA112C4FEA01310EFB0CFCA5
:102A30004FEADC4C00FB0C11C14228BF09184CEBDB
:102A400003335DF804EB10EB410143EBC250B2F5E8
:102A50007C0F38BF704729D512F0F00F1CBF00F172
:102A6000C04000F0004070470081828384858687E3
:102A700088898B8C8D8E8F919293959697999A9C3D
:102A80009D9FA0A2A3A5A7A8AAACAEB0B2B3B5B7AC
:102A9000B9BCBEC0C2C5C7C9CCCED1D4D7D9DCDF82
:102AA000E2E6E9ECF0F3F7FAFE0000004FEA400C32
:102AB0000CF1807CBCF17E4F28BF7047B0F1C04064
:102AC00000F05FB990EA010F0CEAD11348BF42F45D
:102AD0008072624538BF634507D213F47F0F16D06A
:102AE00080EA010000F00040704710B500F003F9E3
:102AF000097EFC3E00F005B880EA010000F00040CD
:102B0000704780EA010000F0004000F03AB912F48A
:102B10007F0F04BF0248704780EA010000F031B91E
:102B20000000C07F41000B0ED3F19E0208D950F483
:102B300000034FEA032323FA02F048BF40427047E4
:102B400010B500F0D8F800BF4992248000207047EB
:102B50006FF0004282EA20007047000010F0004150
:102B600048BF4042B0FA80F310FA03F2C3F19D036C
:102B70000BD051EAC35101EB1220530638BF704706
:102B800000F1010008BF20F00100704750EA010C7D
:102B900000F113801CF5000F58BFBCF5000F01D4E5
:102BA0008842704707D710F5000F58BF11F5000F86
:102BB00015D488427047894270471CF5000F04D530
:102BC000BCF5000FF7D5814270474FF0807C1CEBBD
:102BD000400F38BF1CEB410F01D28142704710B546
:102BE00000F089F8922449004FF000504FF08051D6
:102BF000FFF7CABE4FF47F0C1CEAD0121EBF1CEABE
:102C0000D11392EA0C0F93EA0C0F00F0478090EA80
:102C1000010F48BF42F480724FF0004C4CEA002094
:102C20004CEA012102EB0302A0FB0113A2F5000212
:102C3000002918BF43F001035B0028BF4FEA3303AC
:102C400042EB22425FEA132C4CEBC2502EBFBCEB8E
:102C5000436FB2F57C0F70474FEA036CBCF1004F35
:102C600008BF20F00100B2F57C0F38BF70470BD5CC
:102C700082F0FF0212F5803FC8BF704700F1C040EC
:102C8000D8BF00F00040704700F5000C5FEA4C0C24
:102C900048BF7047B0F1C04000F073B890EA010F30
:102CA0000CEAD11348BF42F48072624538BF6345D5
:102CB00004D280EA010000F00040704710B500F037
:102CC0001AF800BF8900013E00F007B800F009B80B
:102CD0005FEA410C5FEA1C6C08D080EA010000F05A
:102CE00050B85FEA400C5FEA1C6CF6D14FF0004030
:102CF000A0F5800070470EF1020E2EF0030E5EF874
:102D0000044B244204D44FEA4102B2F17F4F11D860
:102D10004FEA4003B3F17F4F0CD80ED14FEAD07C7D
:102D2000B2F17F4F0CEB4C0C0CF1020C08BF4CEBDA
:102D3000D17C04E04FF0080C01E04FEAD17C0CEBB1
:102D40004C0324FA03F404F00704B4F1040C06D293
:102D50000EEB840CBDE810404CF0010C6047DFE83E
:102D60000CF0070802024FF00040A0F5800010BDF3
:102D70000846420018BFD2F1807288BF00F00040C0
:102D800010BDFF2141EAD050C005704751EA000C48
:102D900000F113801CF5000F58BFBCF5000F01D4E3
:102DA0008142704707D711F5000F58BF10F5000F8B
:102DB00015D481427047894270471CF5000F04D535
:102DC000BCF5000FF7D5884270474FF0807C1CEBB4
:102DD000410F38BF1CEB400F01D28842704780EA98
:102DE000010081EA000180EA0100FFF7F8BE80F0EF
:102DF000004090EA010F7FF56CAD81F0004100F0DA
:102E000008B8000090EA010F48BF81F000413FF58B
:102E100060AD421A04D882F00042A0EB02001144D7
:102E20004FEAD0524FF07F4C1CEA410FA2EBD15336
:102E300018BF9CEA026F4AD04FF0004C4CEA0020C9
:102E40004CEA012121FA03FCB0EB0C0C0FD412F078
:102E5000FE0F36D05FEA4C001DD5001240EBC25089
:102E600038BF70471CF03F0F18BF70470BE0A2F14E
:102E700001025FEA1C2040EBC25038BF70471CF0D3
:102E80007F0F18BF7047C3F12003994014BF401E45
:102E900020F00100704780084FEA122308BF7047F6
:102EA000B0FA80FCA2EB0C02CCF1280C60FA0CF01A
:102EB00093EA122F04BF00EBC25070474FEAC37071
:102EC0007047130A5FEADC1008BF7047F6E79CEA18
:102ED000026F04D010EA5C0F08BF0020704710B5E5
:102EE000FFF709FF40DFF63E81F000407047000029
:102EF000102F000800000020200100006C010008D5
:102F00003030000820010020380700008801000848
:102F100000A24A04000000000000000001020304B7
:102F20000607080900000000000000000000000083
:102F30000000000000000102030401020304060770
:102F4000080902040608000000000000000000005C
:102F50000000000000000000000000000000000071
:102F60000000000000000000000000000000000061
:102F70000000000000000000000000000000000051
:102F80000000000000000000000000000000000041
:102F9000000000000000000000002041000020416F
:102FA0000000A042000000000000A041000000005E
:102FB00000000000000000006F12833B00000000D2
:102FC0000000000000000000000000000000000001
:102FD00000000000000000000000000000000000F1
:102FE00000000000000000000000000000000000E1
:102FF00000000000000000000000000000000000D1
:1030000000000000000000000000000000000000C0
:1030100000000000000000000000000000000000B0
:1030200000000000000000000000000000000000A0
:0400000508000131BD
:00000001FF
