:020000040800F2
:1000000070080020A5180008B5070008B707000809
:10001000BB070008BF070008C30700080000000076
:10002000000000000000000000000000C7070008FA
:10003000C907000800000000CB070008CD07000832
:10004000BF180008BF180008BF180008BF18000834
:10005000BF180008BF180008BF180008BF18000824
:10006000BF180008BF180008BF180008BF18000814
:10007000BF180008BF180008CD150008B715000804
:10008000BF180008BF180008BF180008BF180008F4
:10009000BF180008BF180008BF180008BF180008E4
:1000A000BF180008BF180008BF180008BF180008D4
:1000B0001B120008331200084B120008BF1800087A
:1000C000BF180008BF180008BF180008BF180008B4
:1000D000BF18000819180008810B0008510C00080F
:1000E000BF180008BF180008BF180008BF18000894
:1000F000BF180008BF180008BF180008BF18000884
:10010000BF180008BF18000881120008BF180008B7
:10011000BF180008BF180008BB290008BF18000856
:10012000BF180008BF180008230B0008410B000887
:10013000DFF80CD003F0D8F800480047A902000807
:10014000700800200B2874D2DFE800F006222D385A
:10015000414E596674818C000022FE4B1A60FE4BA2
:10016000C3F8B821FB4B083B1A601B1F1A60FB4BFE
:100170001A601B1F1A601B1F1A601B1F1A60F84BA6
:100180001A60F84B1A60F84B1A60F84B1A6089E055
:10019000F34A11604A42F34B1A60F34A11604A4233
:1001A000F24B1A607EE0EE4A11600022ED4B1A60BD
:1001B000ED4A11600022ED4B1A6073E0E84A1160CD
:1001C000E84A1160E84A1160E84A11606AE00022DA
:1001D000E34B1A604A42E34B1A600022E24B1A607A
:1001E0004A42E24B1A605DE04A42DD4B1A60DD4A4A
:1001F00011604A42DC4B1A60DC4A116052E04A420C
:10020000D74B1A600022D74B1A604A42D64B1A606D
:100210000022D64B1A6045E04A42D14B1A604A424E
:10022000D04B1A604A42D04B1A604A42CF4B1A60F8
:1002300038E022E00022CA4B1A604A42C94B1A60D9
:100240000022C94B1A604A42C84B1A602AE04A424F
:10025000C34B1A604A42C34B1A60C34A1160C34A77
:1002600011601FE0BE4A1160BE4A11604A42BE4B97
:100270001A604A42BD4B1A6014E00022B54B1A6066
:10028000B54BC3F8B821B34B083B1A601B1F1A606B
:10029000B24B1A601B1F1A601B1F1A60B44BC3F8C5
:1002A000802100BF00BF70470121084601F096FE83
:1002B0000121B04801F0A7FC01F09EF94FF4A060C5
:1002C00001F002FB00F074FB00F0D2FD00F038FEFC
:1002D00000F0A0FE00F006FF002141F61F4001F0F3
:1002E00024F800209B4908609B49C1F8B80199494E
:1002F00008390860091F086098490860091F0860EC
:10030000091F0860091F08604FF4FA609A490880C5
:10031000091D0880091D0880091D088000208D49DD
:1003200008600120091F0860091D08600020091FDE
:100330000860091D0860091F0860091F0860012086
:10034000091F0860091D08600020091F0860091DB9
:100350000860091F08600120804908600020091F0B
:100360000860091D08600120091F08600020091DA0
:100370000860091F08600120091F08600020091F8C
:100380000860091D08600120091F08600020091D80
:100390000860091F086078490880091D0880091D48
:1003A0000880091D0880754800F0EEFC4FF4E1302C
:1003B00001F0F5F901F041F800F078FB41F61F413A
:1003C000642000F03FFB8AE06D48807A00F0010075
:1003D000002863D06A48807A20F00100684988725A
:1003E0000021684802F02FF9654840684078644968
:1003F0004968097800EB012061490988884232D1B7
:100400005F4840685E49C978084410F8010C5C49AF
:100410008978884227D15A4840685949C9780844A0
:1004200010F8031C56484068554AD278104410F81A
:10043000020C01EB0020524908814868072100F0B6
:10044000D3FA4F49098988420DD14D48807A40F04E
:1004500080004B498872084640684B49D0F802201A
:100460000A60807908712021484801F0C5FF40B931
:100470000A21444802F0FCF84548006840494860B9
:1004800008E00B213F4802F0F3F841480068401CA7
:100490003B49486001213B4802F0D5F83848807A52
:1004A00000F08000D8B100243548807A20F0800028
:1004B000334988723448C0783349897801F00301A0
:1004C00000EB012404EB4400324908600A4612881C
:1004D00091B22D4A92789010FFF734FE00BF73E777
:1004E0000B2872D2DFE800F0061B58728DA6C0D828
:1004F000F6F4F3000021174A1160174AC2F8B81148
:10050000144A083A1160121F1160144A1160121F38
:100510001160121F1160164AC2F880113FE10021DC
:100520000C4A116001210C4AC2F8B811094A083A74
:1005300011600021121F11600121084A1160002181
:10054000121F1160121F11600121094AC2F88011A7
:1005500025E10000BC812142008021428C01224221
:100560000000002004000020080000200C000020F3
:10057000000022420002300034340140A086010015
:10058000600300203004024014000020004C0040B2
:1005900034020020100000200021824A1160012155
:1005A000814AC2F8B81100217E4A083A1160121F30
:1005B000116001217D4A11600021121F1160121F7C
:1005C00011607B4AC2F88011E9E0D3E00021754A4E
:1005D00011600121744AC2F8B8110021714A083A29
:1005E00011600121121F1160704A11600021121F59
:1005F00011600121121F116000216D4AC2F88011A3
:10060000CDE00021674A1160674AC2F8B811654A17
:10061000083A11600121121F11600021634A116024
:10062000121F11600121121F11600021604AC2F8DF
:100630008011B4E001215B4A116000215A4AC2F8DE
:10064000B811584A083A11600121121F11600021A7
:10065000564A11600121121F1160121F1160002102
:10066000534AC2F880119AE001214E4A11600021DC
:100670004D4AC2F8B8114B4A083A1160121F116076
:100680004A4A11600121121F11600021121F1160DE
:10069000474AC2F8801182E00121424A11600021DC
:1006A000414AC2F8B81101213E4A083A11600021BE
:1006B000121F11603D4A11600121121F11600021BB
:1006C000121F116001213A4AC2F8801167E035E03B
:1006D00018E0FFE70021334A1160334AC2F8B8112D
:1006E0000121304A083A11600021121F11602F4A7F
:1006F0001160121F1160121F116001212C4AC2F8F3
:1007000080114CE00121274A11600021264AC2F8DD
:10071000B8110121234A083A11600021121F11600B
:100720000121224A11600021121F11600121121FB4
:10073000116000211E4AC2F8801130E00021194AE0
:1007400011600121184AC2F8B8110021154A083A6F
:1007500011600121121F11600021144A1160012152
:10076000121F11600021121F11600121104AC2F8EE
:10077000801114E000210B4A11600B4AC2F8B81135
:10078000084A083A1160121F1160084A1160121FCE
:100790001160121F1160064AC2F8801100BF00BF2D
:1007A00070470000BC812142008021428C0122421E
:1007B00000002242704700BFFEE700BFFEE700BF17
:1007C000FEE700BFFEE770477047704770470000C4
:1007D0000CB50020019000906C48006840F4803017
:1007E0006A49086000BF6948006800F40030009062
:1007F0000198401C0190009818B90198B0F5A06FBD
:10080000F1D16248006800F4003010B1012000907E
:1008100001E0002000900098012843D15C48006866
:1008200040F010005A4908600846006820F00300B4
:1008300008600846006840F00200086053484068BD
:10084000524948600846406848600846406840F49D
:10085000806048600846406820F47C104860084684
:10086000406840F4E81048600846006840F0807036
:10087000086000BF4548006800F000700028F9D00B
:100880004248406820F003004049486008464068FC
:1008900040F00200486000BF3C48406800F00C0097
:1008A0000828F9D10CBD10B5FFF792FF10BD10B5A7
:1008B0003648006840F00100344908600846406846
:1008C00034490840314948600846006832490840C8
:1008D0002E4908600846006820F480200860084619
:1008E000406820F4FE0048604FF41F008860FFF766
:1008F000DAFF4FF000602949086010BD10B50021F3
:1009000000200022214B5B6803F00C0121B1042977
:1009100006D0082928D107E0214B224C236027E08C
:100920001F4B204C236023E0184B5B6803F47010CE
:10093000164B5B6803F48032022303EB904022B92C
:10094000194B4343174C23600DE0104B5B6803F4D5
:10095000003323B1144B4343124C236003E0104B8C
:100960004343104C236003E00D4B0E4C236000BF4B
:1009700000BF064B5B68C3F303130C4CE15C094BEF
:100980001B68CB40074C236010BD000000100240E4
:10099000002002400000FFF8FFFFF6FE08ED00E037
:1009A00000127A001C00002000093D0020000020F9
:1009B00008B50121082001F011FB4FF40070ADF8DB
:1009C000000010208DF8030003208DF80200694616
:1009D000044801F047F84FF40071024801F0EFF8C5
:1009E00008BD0000000C014010B502460B46FF2078
:1009F000104C2070104C207010E012F8010B0D4CC0
:100A0000247880EA04010D48405C0B4C2478604057
:100A1000084C20700A48405C074C2070181EA3F157
:100A20000104A3B2E9D104480078024C247840EADA
:100A3000042010BD300000203100002032000020D2
:100A40003201002070B505460C460D48C06940F0E3
:100A500010000B49C8610B4885850485808940F0EA
:100A60000100084988810846008840F0010008809C
:100A7000022336220121184600F02EFE70BD000030
:100A8000001002400010004036483749486037499E
:100A900008600A203449C8700020088145F2AA5035
:100AA0000880FF20887000208872704700B58DB0E4
:100AB0000121022001F085FAFFF7E6FF0A200590E8
:100AC000002004900C90274803900020099080207B
:100AD000079000200A902648029000200890069077
:100AE0004FF400500B9002A9224801F081FD3A20FA
:100AF0008DF8040002208DF8050000208DF8060016
:100B000001208DF8070001A800F0E3FE0122022178
:100B1000184801F0A4FD0121164801F094FD0DB024
:100B200000BD10B5144801F0C8FD40B10E48807AF0
:100B300040F001000C4988720F4801F0D2FD10BD51
:100B400010B50E4801F0B9FD40B10748807A40F079
:100B5000020005498872094801F0C3FD10BD00205C
:100B6000004870474C03002060030020340200203E
:100B7000044C00403004024000020010000002104B
:100B800010B540F225512F4801F04CFC10BD10B5B6
:100B900086B004460121042001F020FA0121480416
:100BA00001F029FA284801F07DFA0420ADF814007C
:100BB00003208DF8160018208DF8170005A923488A
:100BC00000F050FF0820ADF8140004208DF8170045
:100BD00005A91E4800F046FF01940020ADF808006A
:100BE000ADF80A00ADF80C00ADF810000C20ADF81F
:100BF0000E0001A9134801F098FA0122C021114802
:100C000001F050FB01210F4801F01BFB06B010BDA5
:100C100000BF0C49098801F040010029F9D00949B9
:100C2000091D0880704710B502460B4603E012F814
:100C3000010BFFF7EDFF181EA3F10101CBB2F6D1B6
:100C400010BD000000440040004800400008014082
:100C500010B540F22551444801F0E4FB18B1424878
:100C600001F060FBC4B210BD10B586B0044601218E
:100C7000082001F0B3F90121880401F0BCF93A48D9
:100C800001F010FA4FF48060ADF8100003208DF8E9
:100C9000120018208DF8130004A9344800F0E2FE79
:100CA0004FF40060ADF8100004208DF8130004A983
:100CB0002E4800F0D7FE00940020ADF80400ADF8F7
:100CC0000600ADF80800ADF80C000C20ADF80A00E5
:100CD0006946254801F029FA0121234801F0B1FABB
:100CE000012240F22551204801F0B7FA27208DF863
:100CF000140001208DF8150003208DF81600012046
:100D00008DF8170005A800F0E4FD06B010BD1649E7
:100D100009881549091D088000BF1349098801F099
:100D200040010029F9D01049098821F040010E4AFC
:100D30001180704700B5034603E01878FFF7E7FF1E
:100D40005B1C18780028F8D100BD10B503460C468E
:100D500003E01878FFF7DBFF5B1C201EA4F1010104
:100D6000CCB2F6D110BD000000480040000C01409C
:100D700010B540F225513C4801F054FB18B13A48F7
:100D800001F0D0FAC4B210BD10B586B004460121FE
:100D9000102001F023F90121C80401F02CF9324898
:100DA00001F080F94FF48060ADF8140003208DF855
:100DB000160018208DF8170005A92C4800F052FEE7
:100DC0004FF40060ADF8140004208DF8170005A959
:100DD000264800F047FE01940020ADF80800ADF869
:100DE0000A00ADF80C00ADF810000C20ADF80E00B4
:100DF00001A91D4801F099F90122C0211A4801F00A
:100E000051FA0121184801F01CFA06B010BD16492C
:100E100009881549091D088000BF1349098801F098
:100E200040010029F9D01049098821F040010E4AFB
:100E30001180704700B5034603E01878FFF7E7FF1D
:100E40005B1C18780028F8D100BD10B503460C468D
:100E500003E01878FFF7DBFF5B1C201EA4F1010103
:100E6000CCB2F6D110BD0000004C00400010014093
:100E700010B50121084601F0B1F80121F94800F050
:100E8000C2FEF948C06940F00100F749C861F7485F
:100E9000006820F07040F54908600846006840F09E
:100EA00080400860F248006820F47040F049086013
:100EB0000846006840F4804008604FF08040808918
:100EC00040F001004FF0804188810846808940F061
:100ED0004000888101231C220321184600F0FCFBFE
:100EE00000204FF0804108854FF6FF708885084646
:100EF000008820F4407008800846008820F06000D8
:100F000008800846008B40F0010008830846008BEB
:100F100040F4807008830846008C20F002000884AA
:100F20000846008C20F0200008840846008940F024
:100F3000030008810846008840F00100088010BDC9
:100F400010B5C948C06940F00200C749C8610846E9
:100F5000806940F008008861C448001F006820F0E4
:100F60007F40C249091F08600846006840F0884079
:100F70000860C048008840F00100BE49088008466B
:100F8000008840F04000088001231D2203211846FC
:100F900000F0A2FB0020B7491C3108804FF6FF701B
:100FA000091D0880B3480C38008820F44070B1490E
:100FB0000C3908800846008820F060000880AD48A1
:100FC0000C30008840F00100AA490C310880084626
:100FD000008840F480700880A6481430008820F013
:100FE0000200A449143108800846008820F020003F
:100FF0000880A048001F008840F003009D49091F99
:1010000008809C480C38008840F0010099490C3950
:10101000088010BD10B59448C06940F004009249A2
:10102000C8610846806940F00800886190480068FF
:1010300020F07F408E4908600846006840F08840F4
:1010400008608D48008840F001008B490880084600
:10105000008840F04000088001231E22032118462A
:1010600000F03AFB002084491C3108804FF6FF70E5
:10107000091D088080480C38008820F440707E49A3
:101080000C3908800846008820F0600008807A4803
:101090000C30008840F0010077490C310880084688
:1010A000008840F48070088073481430008820F075
:1010B00002007149143108800846008820F02000A1
:1010C00008806D48001F008840F003006A49091F2E
:1010D000088069480C38008840F0010066490C39E6
:1010E000088010BD10B56048C06940F008005E4936
:1010F000C8610846806940F0040088615B48001FB1
:10110000006820F0FF005949091F08600846006880
:1011100040F044000860C804808940F00100C90420
:1011200088810846808940F040008881012332226E
:101130000321184600F0D0FA0020504908804FF6ED
:10114000FF70091D08804D482838008820F4407041
:101150004A49283908800846008820F06000088045
:1011600046481038008840F0010044491039088092
:101170000846008840F4807008804048083800889D
:1011800020F002003D49083908800846008820F018
:101190002000088039482038008840F00300374993
:1011A0002039088035482838008840F0010033494C
:1011B0002839088010BD0146012906D002290DD02A
:1011C000032914D0042924D11AE02A4A183212889B
:1011D00010B20022274B18331A801CE0274A121F36
:1011E000128810B20022254B1B1F1A8013E04FF00B
:1011F0008042928C10B200224FF080439A840AE021
:101200001D4A1832128810B200221B4B18331A8064
:1012100001E0002000BF00BF70474FF08040008A0F
:101220004FF08040008A20F001004FF0804108829A
:1012300070471048001D00880E48001D008820F0EF
:1012400001000C49091D088070470B48001D0088EB
:101250000948001D008820F001000749091D088089
:10126000704700000001180000100240040801400F
:10127000000C01400C0400400C080040280C004009
:10128000044800880348008820F0010001490880D4
:1012900070470000100C004008B50121102000F03C
:1012A0009DFE4FF47070ADF8000018208DF803001B
:1012B00003208DF802006946544800F0D3FB4FF438
:1012C0007071524800F07DFC08BD08B5012108206E
:1012D00000F084FE4FF47040ADF8000010208DF84F
:1012E000030003208DF802006946494800F0BAFB6C
:1012F0004FF47041464800F064FC0121102000F0DA
:101300006DFE0F20ADF8000010208DF803000320C3
:101310008DF8020069463D4800F0A4FB0F213B48D0
:1013200000F04FFCFFF7B8FF08BD70B505460C464E
:10133000FFF7CBFF3748806940F40050354988619A
:1013400035480580001F048033481438008840F079
:1013500060003149143908800846008840F4C040D4
:101360000880081D008840F06000091D08800846BC
:10137000008840F4C0400880081F008840F0080042
:10138000091F08800846008840F400600880081D96
:10139000008840F00800091D08800846008840F4D5
:1013A00000600880081D008840F00100091D0880C9
:1013B0000846008840F0100008800846008840F485
:1013C000807008800846008840F4805008801248E9
:1013D0001830008840F400400F49183108804FF45D
:1013E00000400D492C3908800846008840F0010073
:1013F00008800020084908310880091D0880064936
:1014000014310880091F088070BD000000100140E1
:10141000000C0140001002402C34014000207248B2
:10142000704700B50022FFF7F9FF0246AA201070AE
:1014300005205070AF20907000BD00B58DB0012127
:10144000084600F0BEFDFFF7ECFF1E2005901020BF
:10145000049000200C9064480390002009908020A4
:10146000079000200A9061480290002008900690A2
:101470004FF400500B9002A95D4801F0B9F80E201E
:101480008DF8040002208DF805008DF8060001207B
:101490008DF8070001A800F01CFA0122022154482F
:1014A00001F0DDF81E200590002004900C905148BA
:1014B0000390002009908020079000200A904B485C
:1014C00002900020089006904FF400500B9002A963
:1014D0004748143001F08CF80F208DF804000220EA
:1014E0008DF805008DF8060001208DF8070001A891
:1014F00000F0EFF9012202213D48143001F0AFF86D
:1015000001213B48143001F09EF80DB000BD10B52C
:101510000021374801F097F81E21354801F0A8F85E
:101520000121334801F08FF810BD10B504460021A9
:101530002F4801F088F821462D4801F099F8012143
:101540002B4801F080F810BD70B504460D4600260A
:10155000FFF764FFC61C2A462146304601F07CFD99
:10156000F01E70BD10B50246002003E0137803445E
:10157000D8B2521C0B1EA1F10104E1B2F6D110BD8C
:101580002DE9F041054600266878801CC4B200278A
:1015900021462846FFF7D8FF0646E01CC1B2304678
:1015A000FFF7E0FF0746E01C3754211DC8B2FFF7E4
:1015B000BCFFBDE8F08110B54FF4003001F07DF8BC
:1015C00018B14FF4003001F08CF810BD10B54FF495
:1015D000005001F072F818B14FF4005001F081F89A
:1015E00010BD0020034870478A03002004380140E2
:1015F000440002406C03002010B56FF0040000F0BE
:10160000B2F92E4800682E49B0FBF1F02D49087060
:101610000846007800EB4001C1EBC0104FF6FF71A7
:1016200001EAC0002849088010BD0146254A127809
:101630004A434FF0E0235A6100229A611A46126928
:1016400042F001021A6100BF4FF0E022106900F081
:1016500001021AB100F48032002AF5D04FF0E022E6
:10166000126922F001024FF0E0231A6100229A6110
:1016700070470146144A12884A434FF0E0235A61EA
:1016800000229A611A46126942F001021A6100BFF3
:101690004FF0E022106900F001021AB100F480322C
:1016A000002AF5D04FF0E022126922F001024FF03B
:1016B000E0231A6100229A61704700001C0000209C
:1016C00000127A00380200203A02002030BF704732
:1016D00072B6704762B670472DE9F04107468846FA
:1016E00014461D464FF4A06000F0EEF8C5F104006A
:1016F00007FA00F60F20284100EA0800064306F02A
:101700000F06E21704EBD2625211920002F1E022BE
:10171000D2F800212146E31704EBD3635B11A4EB5D
:10172000431C012303FA0CF31A432046E31704EB8E
:10173000D3635B119B0003F1E023C3F800210D4844
:10174000005D40EA06100B490855BDE8F0810146EE
:101750000906094A926942F00102074B9A61074A59
:10176000526822F0E062054B5A601A4652680A43FA
:101770005A60704700E400E00010024000000140A1
:10178000014600BF704700BF424A128802F0400283
:10179000002AF9D0C2B23F4B1B1D1A80704710B50A
:1017A00086B00446012144F2040000F017FC4FF417
:1017B0000070ADF8140003208DF8160018208DF885
:1017C000170005A9344800F04DF94FF48060ADF8DA
:1017D000140004208DF8170005A92F4800F042F9E5
:1017E00001940020ADF80800ADF80A00ADF80C0037
:1017F000ADF810000C20ADF80E0001A9254800F04E
:1018000094FC0122C021234800F04CFD0121214815
:1018100000F017FD06B010BD10B540F225511D486F
:1018200000F000FE10B31B4800F07CFDC4B21B4862
:10183000008800F40040C8B91848008800F48040CF
:1018400060B10A2C03D000201449088020E013481E
:10185000008840F400401149088019E00D2C06D1A1
:101860000E48008840F480400C49088010E00B4886
:101870000088C0F30D000A490C5408480088401C39
:101880000649088008460088C72801DD0020088036
:1018900010BD000000380140000801404002002057
:1018A000A80300200648804706480047FEE7FEE7F9
:1018B000FEE7FEE7FEE7FEE7FEE7FEE7FEE7FEE700
:1018C000AF0800083101000831490143314A116075
:1018D000704770B5002100230F22C47804B32D4C4B
:1018E000246804F4E064C4F5E064210AC1F104034F
:1018F000CA40447804FA03F1847814402143090172
:10190000254C0678A155047804F01F050124AC404D
:1019100005786D11AD0005F1E025C5F8004109E03D
:10192000047804F01F050124AC401C4D06787611A4
:1019300045F8264070BD1A4A0A400243154B1B1F4A
:101940001A60704739B1134A121D12680243114BD5
:101950001B1D1A6006E00F4A121D126882430D4BD0
:101960001B1D1A607047042808D14FF0E021096957
:1019700041F004014FF0E022116107E04FF0E02157
:10198000096921F004014FF0E02211617047000065
:101990000000FA050CED00E000E400E080E100E06A
:1019A00080FFFF1F10B50446CC48844208D10121B6
:1019B000042000F02DFB0021042000F029FB46E06C
:1019C000C748844208D10121082000F021FB0021F2
:1019D000082000F01DFB3AE0C248844208D10121F2
:1019E000102000F015FB0021102000F011FB2EE06C
:1019F000BD48844208D10121202000F009FB0021CC
:101A0000202000F005FB22E0B848844208D10121E3
:101A1000402000F0FDFA0021402000F0F9FA16E025
:101A2000B348844208D10121802000F0F1FA00215E
:101A3000802000F0EDFA0AE0AE48844207D101218F
:101A4000801500F0E5FA0021A01500F0E1FA10BDC4
:101A500010B50121084600F0DBFA0021012000F05A
:101A6000D7FA10BD2DE9F0410246002500260020DE
:101A700000230024002791F803C00CF00F0591F813
:101A800003C00CF0100CBCF1000F03D091F802C0A1
:101A90004CEA050591F800C0BCF1000F31D0146884
:101AA00000202BE04FF0010C0CFA00F3B1F800C05D
:101AB0000CEA03069E4220D183004FF00F0C0CFA73
:101AC00003F7BC4305FA03FC4CEA040491F803C095
:101AD000BCF1280F06D14FF0010C0CFA00FCC2F843
:101AE00014C00AE091F803C0BCF1480F05D14FF0D3
:101AF000010C0CFA00FCC2F810C0401C0828D1D31D
:101B00001460B1F800C0BCF1FF0F34DD5468002050
:101B10002EE000F1080C4FF0010808FA0CF3B1F8C0
:101B200000C00CEA03069E4221D183004FF00F0C47
:101B30000CFA03F7BC4305FA03FC4CEA040491F8E1
:101B400003C0BCF1280F05D100F1080C08FA0CF80D
:101B5000C2F8148091F803C0BCF1480F07D100F11E
:101B6000080C4FF0010808FA0CF8C2F81080401C6D
:101B70000828CED35460BDE8F0814FF6FF71018094
:101B8000022181700421C1707047024600209368D1
:101B90000B400BB1012000E000207047014688682F
:101BA00080B2704702460020D3680B400BB1012081
:101BB00000E0002070470146C86880B270470161AC
:101BC0007047416170470AB1016100E041617047AF
:101BD000C16070474FF480320A4382618161826143
:101BE00082698269704702460020434B18684FF6AD
:101BF0008073184040EA021008433F4B186070475A
:101C00003E49C8617047F0B50A4600230024002110
:101C1000002500F00046B6F1004F02D1364EF169C2
:101C200001E0354E7168C0F3034583B200F44016FD
:101C3000B6F5401F08D121F070612F4E766826F06E
:101C400070662D4F7E6012E000F48016B6F5801F9E
:101C500006D1032606FA05F4A14341F0706106E0BF
:101C6000460D360103FA06F6B14341F0706122B128
:101C7000460D360103FA06F6314300F00046B6F190
:101C8000004F02D11C4EF16101E01B4E7160F0BDAE
:101C900030B500228B071C0F0F2303FA04F2164BFA
:101CA00008338C1053F824309343134C08348D10B0
:101CB00044F8253023468C1053F824308C07240F29
:101CC00000FA04F423430C4C08348D1044F82530FA
:101CD00030BD0A49DC31086070470000000801404F
:101CE000000C0140001001400014014000180140A8
:101CF000001C014000200140000001400000204283
:101D0000DF48006840F00100DD490860084640688F
:101D1000DC490840DA49486008460068DA4908406A
:101D2000D74908600846006820F48020086008460B
:101D3000406820F4FE0048604FF41F008860704740
:101D4000CF49096821F48031CD4A116011460968F4
:101D500021F480211160B0F5803F03D0B0F5802FD1
:101D60000ED106E0C649096841F48031C44A1160C9
:101D700007E0C349096841F4A021C14A116000E0AD
:101D800000BF00BF704710B50146002200230020AD
:101D90004A11012A02D1BA4C236806E0022A02D174
:101DA000B74C236A01E0B64C636A01F01F020124BC
:101DB00094401C400CB1012000E0002010BD38B55B
:101DC000002000900024002500BF3120FFF7DBFF3A
:101DD00005460098401C00900098B0F5A06F01D017
:101DE000002DF2D03120FFF7CEFF08B1012400E032
:101DF0000024204638BD01460020A14A106820F08A
:101E0000F80040EAC10010607047A04908607047C0
:101E1000024600209A4B586820F47C1042EA0103E5
:101E20001843974B586070479849086670470146B9
:101E30000020934A506820F0030008435060704728
:101E40008F48406800F00C007047014600208C4A23
:101E5000506820F0F00008435060704701460020B1
:101E6000874A506820F4E06008435060704701469C
:101E70000020834A506820F4605040EAC10050605E
:101E8000704729B17E4A527A02437D4B5A7204E070
:101E90007B4A527A82437A4B5A7270477B49D831D7
:101EA0000860704701460020754A506820F44040A1
:101EB0000843506070470021714A20321170704A07
:101EC00082F82010012802D004280AD104E0012160
:101ED0006B4A2032117005E00521694A20321170E9
:101EE00000E000BF00BF704769490860704764495F
:101EF000096A0143624A11627047654944390860C2
:101F0000704730B500210022002400235C4D6D682D
:101F100005F00C0121B1042905D0082923D105E0E1
:101F20005C4D056022E05B4D05601FE0544D6D681F
:101F300005F47012524D6D6805F48034022505EBEE
:101F400092421CB9544D554305600BE04C4D6D68F1
:101F500005F400351DB1504D5543056002E04D4D6F
:101F60005543056002E04B4D056000BF00BF444D86
:101F70006D6805F0F0010909484D6B5C0568DD40AE
:101F800045603F4D6D6805F4E061090A434D6B5CA7
:101F90004568DD4085603A4D6D6805F46051C90AB9
:101FA0003E4D6B5C4568DD40C560354D6D6805F4A0
:101FB0004041890B3A4D6B5CC568B5FBF3F5056193
:101FC00030BD29B12E4A526902432D4B5A6104E0BB
:101FD0002B4A526982432A4B5A61704729B1284AD9
:101FE00092690243264B9A6104E0254A9269824332
:101FF000234B9A61704729B1214AD2690243204B91
:10200000DA6104E01E4AD26982431D4BDA617047EF
:1020100029B11B4AD2680243194BDA6004E0184A1E
:10202000D2688243164BDA60704729B1144A1269AC
:102030000243134B1A6104E0114A12698243104BA8
:102040001A61704712494039086070470F49C864E7
:1020500070470B49C87170470948406A40F080706A
:1020600007494862704701460020054A92680A40C5
:102070000AB1012000E000207047014988727047D2
:10208000001002400000FFF8FFFFF6FE0000424291
:102090008004424200127A0000093D004202002002
:1020A0005202002010B50446FB48844209D10121A8
:1020B0008803FFF7ADFF00214FF48040FFF7A8FF32
:1020C00032E0F648844209D101214804FFF7ADFF10
:1020D00000214FF40030FFF7A8FF25E0F0488442CC
:1020E00009D101218804FFF7A0FF00214FF48020CF
:1020F000FFF79BFF18E0EB48844209D10121C80497
:10210000FFF793FF00214FF40020FFF78EFF0BE055
:10211000E548844208D101210805FFF786FF002128
:102120004FF48010FFF781FF10BD2DE9F04786B016
:1021300005460E460024A24600BFA1460027B089EE
:1021400000B100BF2F462C8A4CF6FF700440F08887
:1021500004432C82AC894EF6F3100440B0883189D8
:102160000843718908430443AC81AC8A4FF6FF40B1
:102170000440B0890443AC8201A8FFF7C2FEC64800
:10218000874202D1DDF810A001E0DDF80CA0A8899B
:1021900000F4004040B10AEBCA0000EB0A103168BD
:1021A0004900B0FBF1F807E00AEBCA0000EB0A10A7
:1021B00031688900B0FBF1F86420B8FBF0F004014D
:1021C0002009642101FB1089A88900F4004040B176
:1021D000322000EBC900B0FBF1F000F0070004432F
:1021E00008E0322000EB09106421B0FBF1F000F0B0
:1021F0000F0004432C8106B0BDE8F0874FF4165160
:10220000016000218180C18001810C214181002178
:102210008181704710B502460020108A4FF2FF03FB
:1022200018400B884C8823438C882343CC88234355
:102230001843108210BD0021018041808180C1803F
:10224000704721B1828942F40052828104E0828980
:102250004DF6FF731A4082817047F0B503460024A3
:1022600000260025002040F66A17B94200D100BFC1
:102270001846C1F3421401F01F06012707FA06F5BC
:10228000012C01D10C3004E0022C01D1103000E00F
:1022900014301AB107682F43076002E00768AF43A4
:1022A0000760F0BD1AB1838A0B43838202E0838A00
:1022B0008B4383827047028A4FF6F0731A40028282
:1022C000028A0A430282704782894FF2FF731A40E2
:1022D000828182890A438281704721B1828942F0DA
:1022E0000202828104E082894FF6FD731A408281E6
:1022F0007047028A4FF6DF731A400282028A0A434D
:102300000282704721B1028A42F48042028204E0D4
:10231000028A4BF6FF731A4002827047C1F308022B
:102320008280704701468888C0F308007047818921
:1023300041F0010181817047028BD2B20283028B8E
:1023400042EA012202837047028B02F47F42028339
:10235000028B0A430283704721B1828A42F0200235
:10236000828204E0828A4FF6DF731A4082827047CD
:1023700021B1828A42F01002828204E0828A4FF602
:10238000EF731A408282704721B1828A42F00802BC
:10239000828204E0828A4FF6F7731A408282704785
:1023A00021B1828942F40042828103E08289C2F332
:1023B0000E028281704721B1828A42F400628282D9
:1023C00004E0828A4FF2FF731A4082827047828A49
:1023D0004FF6FB731A408282828A0A4382827047D8
:1023E00021B1828A42F00202828204E0828A4FF6A0
:1023F000FD731A408282704702460020B1F5007FCB
:1024000000D100BF13880B400BB1012000E0002079
:10241000704701F40072B2F5007F00D100BFCA43DB
:102420000280704770B5024600240023002500207A
:1024300040F66A16B14200D100BFC1F3421501F067
:102440001F03012606FA03F3012D02D196893340BA
:1024500006E0022D02D1168A334001E0968A33400D
:102460000C12012606FA04F41688344013B10CB19C
:10247000012000E0002070BD10B50022002340F6CE
:102480006A14A14200D100BF0A1201249440A3B2F1
:10249000DC43048010BD00000038014000440040CF
:1024A00000480040004C00400050004001684FF6DA
:1024B000FE72114001600021016041608160C160D5
:1024C0008D49884208D18C490839496841F00F018B
:1024D000894A083A51608AE087491431884208D114
:1024E00085490839496841F0F001834A083A51604A
:1024F0007DE081492831884208D17F4908394968FF
:1025000041F470617C4A083A516070E07A493C318C
:10251000884208D178490839496841F47041764ABF
:10252000083A516063E074495031884208D17249D9
:102530000839496841F470216F4A083A516056E001
:102540006D496431884208D16B490839496841F4C2
:102550007001694A083A516049E067497831884218
:1025600008D165490839496841F07061624A083A02
:1025700051603CE06149884206D1011F096841F081
:102580000F01021F116032E05C491431884208D10A
:102590005A49091F096841F0F001584A121F116099
:1025A00025E056492831884208D15449091F096855
:1025B00041F47061514A121F116018E04F493C31DB
:1025C000884208D14D49091F096841F470414B4ABE
:1025D000121F11600BE049495031884207D1474929
:1025E000091F096841F47021444A121F11607047A5
:1025F00010B50022026847F6F0739A430C6A8B68A4
:1026000023430C6923434C6923438C692343CC69DE
:1026100023434C6A23438C6A23431A430260CB68EA
:1026200043600B6883604B68C36010BD002101608C
:1026300041608160C160016141618161C16101628C
:1026400041628162704721B1026842F0010202607A
:1026500004E002684FF6FE731A40026070471AB138
:1026600003680B43036002E003688B430360704719
:10267000416070470146486880B2704701460020BB
:10268000002201F080531BB11C4B083B1A6802E08A
:10269000194B083B1A6802EA01030BB1012000E064
:1026A0000020704700F0805119B11449091F0860DB
:1026B00002E01149083948607047014600200022B5
:1026C00001F080531BB10D4B083B1A6802E00A4B26
:1026D000083B1A6802EA01030BB1012000E0002068
:1026E000704700F0805119B10449091F086002E0E9
:1026F0000149083948607047080002400804024058
:10270000FA4909684242914202DA4142F74A1160AD
:10271000F6490968814201DDF4490860F449096815
:102720004242914202DA4142F14A1160F04909689D
:10273000814201DDEE490860EE490968424291425A
:1027400002DA4142EB4A1160EA490968814201DD3F
:10275000E8490860E84909684242914202DA414288
:10276000E54A1160E4490968814201DDE2490860F7
:1027700070472DE9F05F04460D46601BDF49086095
:102780000846006800F042FD8346DD48016858466F
:1027900000F0CCFC8046D9490968DA4A1268881AE8
:1027A00000F034FD8346D8480168584600F0BEFC6E
:1027B0008146414600F062FC0746D448006800F0BC
:1027C00025FD8246394600F059FC064600F027FDFB
:1027D000CE49086008460068B0F5E15F02DD4FF4BD
:1027E000E1500860C948006810F5E15F02DAC848A6
:1027F000C6490860C1480068C2490860C34800680B
:10280000BDE8F09F2DE9F05F04460D46601BC1490D
:1028100008600846006800F0F9FC8346B848016883
:10282000584600F083FC8046BA490968BA4A1268E3
:10283000881A00F0EBFC8346B3480168584600F064
:1028400075FC8146414600F019FC0746B348006814
:1028500000F0DCFC8246394600F010FC064600F031
:10286000DEFCAE49086008460068B0F5E15F02DDB5
:102870004FF4E1500860A948006810F5E15F02DA02
:10288000A348A6490860A3480068A3490860A34874
:102890000068BDE8F09F2DE9F05F04460D46601B1F
:1028A0009F4908600846006800F0B0FC83469448E1
:1028B0000168584600F03AFC804699490968994AEF
:1028C0001268881A00F0A2FC83468F4801685846B7
:1028D00000F02CFC8146414600F0D0FB07469248B0
:1028E000006800F093FC8246394600F0C7FB0646BC
:1028F00000F095FC8C49086008460068B0F5E15F7F
:1029000002DD4FF4E15008608748006810F5E15F90
:1029100002DA7F488449086081480068814908607C
:1029200081480068BDE8F09F2DE9F05F04460D4640
:10293000601B7E4908600846006800F067FC83461B
:102940006F480168584600F0F1FB804677490968F6
:10295000774A1268881A00F059FC83466A48016871
:10296000584600F0E3FB8146414600F087FB0746EE
:102970007048006800F04AFC8246394600F07EFB51
:10298000064600F04CFC6B49086008460068B0F54C
:10299000E15F02DD4FF4E15008606648006810F521
:1029A000E15F02DA5A48634908606048006860499C
:1029B000086060480068BDE8F09F10B55E48008A76
:1029C00000F0010000287DD05B48008A20F0010063
:1029D000594908820120FEF7EEFB40425749086042
:1029E0005748006809680844554908600320FEF705
:1029F000E2FB544908605448006809680844524999
:102A000008600420FEF7D7FB504908605048006872
:102A1000096808444E4908600220FEF7CCFB40429A
:102A20004C4908604C480068096808444A490860F5
:102A30004A48016841480068FFF776FF2B49086063
:102A40004748016843480068FFF725FF28490860A8
:102A5000444801683B480068FFF7D4FE25490860F8
:102A60004148016839480068FFF783FE2249086041
:102A700041F27070FFF744FE3C480088000A3C4970
:102A800088703A480078C8702C480088000A08719D
:102A90002A48007848712F480088000A88712D481C
:102AA0000078C87127480088000A08722548007815
:102AB000487226480088000A887224480078C87244
:102AC000084600E001E0FEF75BFD2A480078401E62
:102AD000C0B22849087038B932200870264800680A
:102AE000C0432649C1F8A40110BD000058020020CF
:102AF0005C0200206002002064020020000300202D
:102B00009C020020080300209802002004030020FB
:102B1000E0E3FFFFF4020020FC020020F8020020A6
:102B2000E8020020F0020020EC020020DC0200207D
:102B3000E4020020E00200200010004068020020B3
:102B40007802002070020020800200207402002021
:102B5000840200206C0200207C0200200000002083
:102B600004000020080000200C00002010000020BD
:102B7000AC020020D8020020A48121420080214222
:102B800030B500280ADA0124FE4D2C600024FE4DE9
:102B9000C5F8B8414442FD4D2C8008E00024F94DB1
:102BA0002C600124F84DC5F8B841F84D2880002963
:102BB0000CDA0124F34D083D2C600024F24DC5F8D9
:102BC000B0414C42F14D2D1D2C800AE00024ED4D0A
:102BD000083D2C600124EC4DC5F8B041EB4D2D1D96
:102BE0002980002A0BDA0024E94D2C600124E94DEC
:102BF000C5F888415442E54D0C352C8009E001248C
:102C0000E34D2C600024E34DC5F88841DF4D0C35C1
:102C10002A80002B0CDA0024DD4D083D2C600124B5
:102C2000DC4DC5F880415C42D84D08352C800AE067
:102C30000124D74D083D2C600024D64DC5F88041B5
:102C4000D24D08352B8030BD30B5D34C2468454279
:102C5000AC4202DA4442D04D2C60CF4C246884420E
:102C600001DDCD4C2060CD4C24684D42AC4202DAEF
:102C70004C42CA4D2C60C94C24688C4201DDC74CC3
:102C80002160C74C24685542AC4202DA5442C44D1C
:102C90002C60C34C2468944201DDC14C2260C14CBD
:102CA00024685D42AC4202DA5C42BE4D2C60BD4CF1
:102CB00024689C4201DDBB4C236030BD014640F2DC
:102CC000564291421EDA01200022B04B1A801B1D91
:102CD0001A80AE4B0C331A801B1F1A80A94B1A6046
:102CE000A94BC3F8B821A74B083B1A601B1F1A60F9
:102CF000A74B1A601B1F1A601B1F1A60A54BC3F855
:102D0000802100E0002070470146002901DA484296
:102D100000E0084670472DE9F04704460D46601B69
:102D200000F074FAA0490860084601689F480068EE
:102D300000F0A4F99D4908609D499C48006800F096
:102D400091FA02D29A48994908609A4997480068CE
:102D500000F07EFA02D297489449086096480168CC
:102D60009148006800F0DCF98046944801684046CC
:102D700000F0DCF9064692499248006800F008FA33
:102D800082468A480168504600F0D0F9804686485D
:102D900001688D48006800F0C9F98146414600F09D
:102DA0006DF90746314600F069F9884908607E48A8
:102DB0000068814908608548006800F030FABDE885
:102DC000F0872DE9F04704460D46601B00F01EFA1F
:102DD0007F490860084601687E48006800F04EF9A7
:102DE0007C49086072497B48006800F03BFA02D2D7
:102DF0006F48784908606F497648006800F028FA03
:102E000002D26C48734908607348016870480068D2
:102E100000F086F9804669480168404600F086F96E
:102E2000064667496748006800F0B2F9824669487B
:102E30000168504600F07AF98046654801686248AA
:102E4000006800F073F98146414600F017F9074623
:102E5000314600F013F9614908605D4800685E4939
:102E600008605E48006800F0DAF9BDE8F0872DE9F7
:102E7000F04704460D46601B00F0C8F95849086049
:102E8000084601685748006800F0F8F8554908609E
:102E900047495448006800F0E5F902D244485149D6
:102EA000086044494F48006800F0D2F902D2414816
:102EB0004C4908604C4801684948006800F030F906
:102EC00080463E480168404600F030F906463C49DD
:102ED0003C48006800F05CF9824642480168504670
:102EE00000F024F980463E4801683748006800F049
:102EF0001DF98146414600F0C1F80746314600F011
:102F0000BDF83A49086036480068374908603748D4
:102F1000006800F084F9BDE8F0872DE9F047044629
:102F20000D46601B00F072F93149086008460168DF
:102F30003048006800F0A2F82E4908601C492D486E
:102F4000006800F08FF902D219482A49086019492F
:102F50002848006800F07CF902D21648254908602C
:102F6000254801682248006800F0DAF880461348D6
:102F70000168404600F0DAF8064611491148006839
:102F80003CE00000BC8121420080214234340140F9
:102F90008C01224200002242580200205C020020E4
:102FA00060020020640200200C03002014030020B3
:102FB0000050C3470050C3C718030020A8020020D8
:102FC0000000C842A4020020A0020020100300203C
:102FD0001C030020240300202803002020030020DD
:102FE0002C0300203403002038030020300300208D
:102FF0003C030020440300204803002000F0C8F8F0
:10300000824610480168504600F090F880460E480D
:1030100001680E48006800F089F88146414600F0DA
:103020002DF80746314600F029F80949086006489E
:103030000068084908600648006800F0F0F8BDE83C
:10304000F0877047440300203C030020A0020020CA
:10305000400300204803002040EA01039B0703D0FF
:1030600009E008C9121F08C0042AFAD203E011F8C7
:10307000013B00F8013B521EF9D27047F0B480EAE0
:103080000102D40F4200B2EB410F02D202460846C1
:1030900011464A0042D0C30DDDB2C1F3C752AD1A8A
:1030A000202D35DAC1F3160141F4000204B1524279
:1030B000C5F1200602FA06F12A411044B3EBD05FB5
:1030C00023D0C4B1012DA0EBC35009DCF0BC4FF0FC
:1030D000004202EAC352DBB200F5000000F0D5B8AE
:1030E000400000F1807000EBC350A0F1807040EA16
:1030F000D170490009E0490841EAC071A0EBC35012
:1031000000F50000400800EBC350F0BC00F0B4B87C
:103110006142012202EB4101001BF6E7F0BC70475F
:1031200081F00041AAE780F00040A7E780EA0102B1
:1031300010B502F00043400022D04A001FD0010E1B
:1031400001EB1261C0F35600C2F3560240F40000D6
:1031500042F40002A0FB022000047F39140400D0D6
:10316000401C50EA124001D44000491EC2B20C0675
:1031700004EBD010401C4008802A02D003E000205D
:1031800010BD20F00100002900DA0020184310BD16
:1031900030B480EA010202F0004530F0004221F034
:1031A000004013D090B1C30DD40DC2F31601C0F38B
:1031B0001600E41A41F4000140F400027D3491420B
:1031C00001D3641C00E04900002C02DA30BC00206E
:1031D00070474FF400000023914201D3891A034342
:1031E00040084FEA4101F7D151B1914202D14FF06D
:1031F000004105E002D24FF0010101E06FF0010152
:1032000003EBC450284430BC00F036B8C10F80EA4C
:10321000E0700844CA079623002100F036B800F099
:10322000004220F00040C10DC0F3160040F4000041
:103230007F2901DA00207047962903DCC1F196014D
:10324000C84001E096398840002AF4D040427047D7
:10325000002801DBC0F10040002901DBC1F1004181
:1032600081427047002801DBC0F10040002901DBEA
:10327000C1F10041884270470029A8BF7047401C37
:10328000490008BF20F00100704710B4B0FA80FC7C
:1032900000FA0CF050EA010404BF10BC704749B1B9
:1032A000CCF1200421FA04F411FA0CF118BF012129
:1032B00021430843A3EB0C01CB1D4FEA00614FEA09
:1032C000102042BF002010BC704700EBC3501044D8
:1032D0000029A4BF10BC7047401C490008BF20F063
:1032E000010010BC70470000064C074D06E0E06886
:1032F00040F0010394E8070098471034AC42F6D33D
:10330000FCF71AFF80330008A033000870B58C1852
:1033100010F8015B15F0070301D110F8013B2A11E9
:1033200006D110F8012B03E010F8016B01F8016BD6
:103330005B1EF9D12B0705D40023521E0DD401F8D2
:10334000013BFAE710F8013BCB1A921C03E013F89B
:10335000015B01F8015B521EF9D5A142D8D30020D0
:1033600070BD02E008C8121F08C1002AFAD17047D8
:103370007047002001E001C1121F002AFBD17047F5
:10338000A0330008000000204C0300000C330008AC
:10339000F83400084C0300202405000072330008B4
:1033A000011D84A24A04300901020304060708092A
:1033B0002808C1814001C0804104690C2908E9182E
:1033C000A91C091A30091638093660092E70092F10
:1033D0006000FF00C0C101C30302C2C60607C705E3
:1033E000C5C404CC0C0DCD0FCFCE0E0ACACB0BC971
:1033F0000908C8D81819D91BDBDA1A1EDEDF1FDD51
:103400001D1CDC14D4D515D71716D6D21213D31120
:10341000D1D010F03031F133F3F23236F6F737F520
:103420003534F43CFCFD3DFF3F3EFEFA3A3BFB39B0
:10343000F9F83828E8E929EB2B2AEAEE2E2FEF2DB0
:10344000EDEC2CE42425E527E7E62622E2E323E160
:103450002120E0A06061A163A3A26266A6A767A580
:103460006564A46CACAD6DAF6F6EAEAA6A6BAB69F0
:10347000A9A86878B8B979BB7B7ABABE7E7FBF7DD0
:10348000BDBC7CB47475B577B7B67672B2B373B1A0
:103490007170B050909151935352929656579755E0
:1034A0009594549C5C5D9D5F9F9E5E5A9A9B5B9930
:1034B000595898884849894B8B8A4A4E8E8F4F8D30
:1034C0004D4C8C44848545874746868242438341E0
:1034D00081800214402D01020304040009450607FF
:1034E0000809020406084A3F0463A042052AA041D5
:0834F000020A02733200000021
:0400000508000131BD
:00000001FF
