:020000040800F2
:100000009808002035220008F1060008F3060008D1
:10001000F7060008FB060008FF06000800000000C5
:1000200000000000000000000000000003070008BE
:10003000050700080000000007070008090700087E
:100040004F2200084F2200084F2200084F220008CC
:100050004F2200084F2200084F2200084F220008BC
:100060004F2200084F2200084F2200084F220008AC
:100070004F2200084F2200080B150008F514000855
:100080004F2200084F2200084F2200084F2200088C
:100090004F2200084F2200084F2200084F2200087C
:1000A0004F2200084F2200084F2200084F2200086C
:1000B000571100086F110008871100084F2200082F
:1000C0004F2200084F2200084F2200084F2200084C
:1000D0004F220008A9210008BD0A00088D0B000866
:1000E0004F2200084F2200084F2200084F2200082C
:1000F0004F2200084F2200084F2200084F2200081C
:100100004F2200084F220008BD1100084F220008AE
:100110004F2200084F220008B31800084F220008A1
:100120004F2200084F2200085F0A00087D0A0008DD
:10013000DFF80CD003F0F4F800480047850200080F
:10014000980800200B286FD2DFE800F006101B266D
:100150002F3C4754616F7A000022FE4B1A60FE4B21
:100160001A60FE4B1A60FE4B1A6089E0F94A116072
:100170004A42F94B1A60F94A11604A42F84B1A6038
:100180007EE0F44A11600022F34B1A60F34A1160DA
:100190000022F34B1A6073E0EE4A1160EE4A1160E0
:1001A000EE4A1160EE4A11606AE00022E94B1A60E3
:1001B0004A42E94B1A600022E84B1A604A42E84B77
:1001C0001A605DE04A42E34B1A60E34A11604A421A
:1001D000E24B1A60E24A116052E04A42DD4B1A607B
:1001E0000022DD4B1A604A42DC4B1A600022DC4BD5
:1001F0001A6045E04A42D74B1A604A42D64B1A6011
:100200004A42D64B1A604A42D54B1A6038E0002267
:10021000D04B1A604A42D04B1A600022CF4B1A6072
:100220004A42CF4B1A602BE015E04A42C94B1A6094
:100230004A42C94B1A60C94A1160C94A11601FE09D
:10024000C44A1160C44A11604A42C44B1A604A420F
:10025000C34B1A6014E00022C24B1A60C24BC3F8B1
:10026000B821C04B083B1A601B1F1A60BF4B1A60B5
:100270001B1F1A601B1F1A60BD4BC3F8802100BFF3
:1002800000BF70470121084602F070FB0121B94808
:1002900002F081F901F078FE4FF4A06001F0DCFF7C
:1002A00000F024FB00F082FD00F0E8FD00F050FEBD
:1002B00000F0B6FE002141F61F4000F0D4FF002000
:1002C000A8490860A849C1F8B801A64908390860DA
:1002D000091F0860A5490860091F0860091F086018
:1002E000A349C1F88001A44800F0ECFC4FF4E130D0
:1002F00001F01DFF01F03FF800F076FB41F61F41D1
:10030000642000F03DFB8AE09C48807A00F0010008
:10031000002863D09948807A20F0010097498872BC
:100320000021974802F057FE94484068407893496E
:100330004968097800EB012090490988884232D148
:100340008E4840688D49C978084410F8010C8B49E3
:100350008978884227D1894840688849C978084403
:1003600010F8031C85484068844AD278104410F87D
:10037000020C01EB0020814908814868072100F048
:10038000D1FA7E49098988420DD17C48807A40F0B3
:1003900080007A498872084640687A49D0F802207D
:1003A0000A60807908712021774802F0EDFC40B99D
:1003B0000A21734802F024FE744800686F494860BF
:1003C00008E00B216E4802F01BFE70480068401CDC
:1003D0006A49486001216A4802F0FDFD6748807A59
:1003E00000F08000D8B100246448807A20F08000BA
:1003F000624988726348C0786249897801F00301D4
:1004000000EB012404EB4400614908600A461288AD
:1004100091B25C4A92789010FFF794FE00BF73E7A8
:100420000B287DD2DFE800F0061B354E6984BFD76C
:10043000F5F3F20000214B4A11604B4AC2F8B811A3
:10044000484A083A1160121F1160484A1160121F91
:100450001160121F1160464AC2F880113EE100216E
:10046000404A11600121404AC2F8B8113D4A083A99
:1004700011600021121F116001213C4A116000210E
:10048000121F1160121F11600121394AC2F8801138
:1004900024E10021334A11600121334AC2F8B81126
:1004A0000021304A083A1160121F116001212F4AC1
:1004B00011600021121F1160121F11602C4AC2F836
:1004C00080110BE10021274A11600121264AC2F860
:1004D000B8110021234A083A11600121121F11604E
:1004E000224A11600021121F11600121121F1160A8
:1004F00000211F4AC2F88011F0E00021194A116062
:10050000194AC2F8B811174A083A11600121121F9E
:1005100011600021154A1160121F1160012100E0D5
:10052000C7E0121F11600021114AC2F88011D5E006
:1005300001210C4A116000210B4AC2F8B811094A86
:10054000083A11600121121F11600021074A116051
:1005500001211FE00000002004000020080000200E
:100560000C000020BC812142008021428C012242EB
:100570000000224200023000A08601006803002033
:100580003004024014000020004C004034020020DF
:1005900010000020121F1160121F11600021504A2C
:1005A000C2F880119AE001214E4A116000214E4AA2
:1005B000C2F8B8114B4A083A1160121F11604B4A39
:1005C00011600121121F11600021121F1160444AA5
:1005D000C2F8801182E00121424A11600021424AA2
:1005E000C2F8B81101213F4A083A11600021121FD8
:1005F00011603E4A11600121121F11600021121F7B
:1006000011600121364AC2F8801167E035E018E038
:10061000FFE70021334A1160334AC2F8B8110121C3
:10062000304A083A11600021121F11602F4A1160F0
:10063000121F1160121F11600121294AC2F8801196
:100640004CE00121274A11600021274AC2F8B81165
:100650000121244A083A11600021121F1160012172
:10066000224A11600021121F11600121121F116026
:1006700000211B4AC2F8801130E00021194A1160A4
:100680000121194AC2F8B8110021164A083A11602E
:100690000121121F11600021144A11600121121F53
:1006A00011600021121F116001210D4AC2F8801152
:1006B00014E000210B4A11600B4AC2F8B811094A34
:1006C000083A1160121F1160084A1160121F116070
:1006D000121F1160024AC2F8801100BF00BF7047AC
:1006E00000002242BC812142008021428C01224232
:1006F000704700BFFEE700BFFEE700BFFEE700BF98
:10070000FEE7704770477047704700000CB5002047
:10071000019000906C48006840F480306A4908609D
:1007200000BF6948006800F4003000900198401C48
:100730000190009818B90198B0F5A06FF1D1624806
:10074000006800F4003010B10120009001E00020AA
:1007500000900098012843D15C48006840F01000E8
:100760005A4908600846006820F0030008600846FF
:10077000006840F0020008605348406852494860F1
:100780000846406848600846406840F48060486019
:100790000846406820F47C1048600846406840F4F1
:1007A000E81048600846006840F08070086000BFAC
:1007B0004548006800F000700028F9D042484068C1
:1007C00020F00300404948600846406840F00200BD
:1007D000486000BF3C48406800F00C000828F9D190
:1007E0000CBD10B5FFF792FF10BD10B5364800687C
:1007F00040F0010034490860084640683449084028
:100800003149486008460068324908402E4908606E
:100810000846006820F4802008600846406820F4FC
:10082000FE0048604FF41F008860FFF7DAFF4FF0CA
:1008300000602949086010BD10B500210020002289
:10084000214B5B6803F00C0121B1042906D0082973
:1008500028D107E0214B224C236027E01F4B204C7E
:10086000236023E0184B5B6803F47010164B5B6841
:1008700003F48032022303EB904022B9194B434327
:10088000174C23600DE0104B5B6803F4003323B179
:10089000144B4343124C236003E0104B4343104C72
:1008A000236003E00D4B0E4C236000BF00BF064BDE
:1008B0005B68C3F303130C4CE15C094B1B68CB4032
:1008C000074C236010BD00000010024000200240D1
:1008D0000000FFF8FFFFF6FE08ED00E000127A00CE
:1008E0001C00002000093D002000002008B5012167
:1008F000082002F03BF84FF40070ADF80000102023
:100900008DF8030003208DF802006946044801F0C9
:1009100071FD4FF40071024801F019FE08BD00009E
:10092000000C014010B502460B46FF20104C207011
:10093000104C207010E012F8010B0D4C247880EA66
:1009400004010D48405C0B4C24786040084C20703A
:100950000A48405C074C2070181EA3F10104A3B2A2
:10096000E9D104480078024C247840EA042010BD04
:100970003000002031000020320000203201002031
:1009800070B505460C460D48C06940F010000B4993
:10099000C8610B4885850485808940F001000849BD
:1009A00088810846008840F0010008800223362232
:1009B0000121184601F058FB70BD000000100240F4
:1009C00000100040364837494860374908600A201F
:1009D0003449C8700020088145F2AA500880FF20E1
:1009E000887000208872704700B58DB00121022008
:1009F00001F0AFFFFFF7E6FF0A200590002004900A
:100A00000C90274803900020099080200790002038
:100A10000A90264802900020089006904FF400505B
:100A20000B9002A9224802F0ABFA3A208DF804009C
:100A300002208DF8050000208DF8060001208DF8B9
:100A4000070001A801F00DFC01220221184802F064
:100A5000CEFA0121164802F0BEFA0DB000BD10B565
:100A6000144802F0F2FA40B10E48807A40F00100DA
:100A70000C4988720F4802F0FCFA10BD10B50E4800
:100A800002F0E3FA40B10748807A40F002000549DD
:100A90008872094802F0EDFA10BD00200048704746
:100AA000540300206803002034020020044C00405E
:100AB00030040240000200100000021010B540F2A5
:100AC00025512F4802F076F910BD10B586B00446C6
:100AD0000121042001F04AFF0121480401F053FFE5
:100AE000284801F0A7FF0420ADF8140003208DF87A
:100AF000160018208DF8170005A9234801F07AFC8C
:100B00000820ADF8140004208DF8170005A91E4830
:100B100001F070FC01940020ADF80800ADF80A0067
:100B2000ADF80C00ADF810000C20ADF80E0001A9D6
:100B3000134801F0C2FF0122C021114802F07AF8E7
:100B400001210F4802F045F806B010BD00BF0C4966
:100B5000098801F040010029F9D00949091D0880E0
:100B6000704710B502460B4603E012F8010BFFF781
:100B7000EDFF181EA3F10101CBB2F6D110BD0000AC
:100B800000440040004800400008014010B540F219
:100B90002551444802F00EF918B1424802F08AF893
:100BA000C4B210BD10B586B004460121082001F082
:100BB000DDFE0121880401F0E6FE3A4801F03AFF2B
:100BC0004FF48060ADF8100003208DF8120018205B
:100BD0008DF8130004A9344801F00CFC4FF40060B8
:100BE000ADF8100004208DF8130004A92E4801F080
:100BF00001FC00940020ADF80400ADF80600ADF84B
:100C00000800ADF80C000C20ADF80A006946254834
:100C100001F053FF0121234801F0DBFF012240F2E4
:100C20002551204801F0E1FF27208DF81400012014
:100C30008DF8150003208DF8160001208DF817009F
:100C400005A801F00EFB06B010BD1649098815492C
:100C5000091D088000BF1349098801F040010029DF
:100C6000F9D01049098821F040010E4A11807047DF
:100C700000B5034603E01878FFF7E7FF5B1C187820
:100C80000028F8D100BD10B503460C4603E01878E3
:100C9000FFF7DBFF5B1C201EA4F10101CCB2F6D1F3
:100CA00010BD000000480040000C014010B540F2AB
:100CB00025513C4802F07EF818B13A4801F0FAFF9D
:100CC000C4B210BD10B586B004460121102001F059
:100CD0004DFE0121C80401F056FE324801F0AAFE83
:100CE0004FF48060ADF8140003208DF81600182032
:100CF0008DF8170005A92C4801F07CFB4FF400602B
:100D0000ADF8140004208DF8170005A9264801F05D
:100D100071FB01940020ADF80800ADF80A00ADF8B1
:100D20000C00ADF810000C20ADF80E0001A91D4814
:100D300001F0C3FE0122C0211A4801F07BFF01210E
:100D4000184801F046FF06B010BD1649098815493C
:100D5000091D088000BF1349098801F040010029DE
:100D6000F9D01049098821F040010E4A11807047DE
:100D700000B5034603E01878FFF7E7FF5B1C18781F
:100D80000028F8D100BD10B503460C4603E01878E2
:100D9000FFF7DBFF5B1C201EA4F10101CCB2F6D1F2
:100DA00010BD0000004C00400010014010B50121B2
:100DB000084601F0DBFD0121F94801F0ECFBF948A0
:100DC000C06940F00100F749C861F748006820F0A9
:100DD0007040F54908600846006840F080400860AF
:100DE000F248006820F47040F04908600846006846
:100DF00040F4804008604FF08040808940F001005E
:100E00004FF0804188810846808940F04000888109
:100E100001231C220321184601F026F900204FF07F
:100E2000804108854FF6FF7088850846008820F4C9
:100E3000407008800846008820F06000088008465E
:100E4000008B40F0010008830846008B40F480705E
:100E500008830846008C20F0020008840846008CB5
:100E600020F0200008840846008940F00300088133
:100E70000846008840F00100088010BD10B5C94840
:100E8000C06940F00200C749C8610846806940F067
:100E900008008861C448001F006820F07F40C249F4
:100EA000091F08600846006840F088400860C04894
:100EB000008840F00100BE4908800846008840F0E4
:100EC0004000088001231D220321184601F0CCF8C0
:100ED0000020B7491C3108804FF6FF70091D0880BB
:100EE000B3480C38008820F44070B1490C390880B0
:100EF0000846008820F060000880AD480C3000886B
:100F000040F00100AA490C3108800846008840F4EE
:100F100080700880A6481430008820F00200A449A0
:100F2000143108800846008820F020000880A0487E
:100F3000001F008840F003009D49091F08809C485D
:100F40000C38008840F0010099490C39088010BD28
:100F500010B59448C06940F004009249C861084641
:100F6000806940F0080088619048006820F07F4068
:100F70008E4908600846006840F0884008608D4847
:100F8000008840F001008B4908800846008840F046
:100F90004000088001231E220321184601F064F856
:100FA000002084491C3108804FF6FF70091D08801D
:100FB00080480C38008820F440707E490C39088045
:100FC0000846008820F0600008807A480C300088CD
:100FD00040F0010077490C3108800846008840F451
:100FE0008070088073481430008820F00200714936
:100FF000143108800846008820F0200008806D48E1
:10100000001F008840F003006A49091F08806948F2
:101010000C38008840F0010066490C39088010BD8A
:1010200010B56048C06940F008005E49C8610846D4
:10103000806940F0040088615B48001F006820F070
:10104000FF005949091F08600846006840F0440045
:101050000860C804808940F00100C90488810846FE
:10106000808940F040008881012332220321184604
:1010700000F0FAFF0020504908804FF6FF70091D6C
:1010800008804D482838008820F440704A492839A3
:1010900008800846008820F0600008804648103824
:1010A000008840F001004449103908800846008853
:1010B00040F48070088040480838008820F0020022
:1010C0003D49083908800846008820F02000088043
:1010D00039482038008840F003003749203908801B
:1010E00035482838008840F0010033492839088005
:1010F00010BD0146012906D002290DD0032914D0C4
:10110000042924D11AE02A4A1832128810B2002287
:10111000274B18331A801CE0274A121F128810B27E
:101120000022254B1B1F1A8013E04FF08042928C47
:1011300010B200224FF080439A840AE01D4A183210
:10114000128810B200221B4B18331A8001E00020D5
:1011500000BF00BF70474FF08040008A4FF08040D2
:10116000008A20F001004FF080410882704710484B
:10117000001D00880E48001D008820F001000C4969
:10118000091D088070470B48001D00880948001D94
:10119000008820F001000749091D08807047000001
:1011A000000118000010024004080140000C01403A
:1011B0000C0400400C080040280C00400448008843
:1011C0000348008820F001000149088070470000B2
:1011D000100C004008B50121102001F0C7FB4FF4AE
:1011E0007070ADF8000018208DF8030003208DF812
:1011F00002006946544801F0FDF84FF470715248FE
:1012000001F0A7F908BD08B50121082001F0AEFBE7
:101210004FF47040ADF8000010208DF8030003205B
:101220008DF802006946494801F0E4F84FF4704136
:10123000464801F08EF90121102001F097FB0F20A4
:10124000ADF8000010208DF8030003208DF8020097
:1012500069463D4801F0CEF80F213B4801F079F98D
:10126000FFF7B8FF08BD70B505460C46FFF7CBFF8A
:101270003748806940F40050354988613548058019
:10128000001F048033481438008840F06000314962
:10129000143908800846008840F4C0400880081DC2
:1012A000008840F06000091D08800846008840F46E
:1012B000C0400880081F008840F00800091F08800F
:1012C0000846008840F400600880081D008840F04F
:1012D0000800091D08800846008840F40060088066
:1012E000081D008840F00100091D0880084600889C
:1012F00040F0100008800846008840F480700880A4
:101300000846008840F48050088012481830008851
:1013100040F400400F49183108804FF400400D4957
:101320002C3908800846008840F001000880002021
:1013300008490C310880091F0880064914310880CB
:10134000091F088070BD000000100140000C014022
:10135000001002402C34014000207348704700B553
:101360000022FFF7F9FF0246AA20107005205070F6
:10137000AF20907000BD00B58DB00121084601F08E
:10138000E8FAFFF7ECFF3C200590102004900020C5
:101390000C90654803900020099080200790002061
:1013A0000A90624802900020089006904FF4005086
:1013B0000B9002A95E4801F0E3FD0E208DF80400B9
:1013C00001208DF8050002208DF8060001208DF81F
:1013D000070001A800F045FF01220221544801F056
:1013E00006FE1E200590002004900C9051480390AA
:1013F000002009908020079000200A904B4802901E
:101400000020089006904FF400500B9002A9484825
:10141000143001F0B5FD0F208DF8040002208DF886
:1014200005008DF8060001208DF8070001A800F0E6
:1014300018FF012202213E48143001F0D8FD01219D
:101440003B48143001F0C7FD0DB000BD10B50021C0
:10145000374801F0C0FD3C21354801F0D1FD0121A4
:10146000334801F0B8FD10BD10B5044600213048E6
:1014700001F0B1FD21462E4801F0C2FD01212C48AA
:1014800001F0A9FD10BD70B504460D460026FFF71A
:1014900063FFC61C2A462146304601F0F9FDF01EC6
:1014A00070BD10B50246002003E013780344D8B2A3
:1014B000521C0B1EA1F10104E1B2F6D110BD2DE9C1
:1014C000F041054600266878801CC4B200272146FA
:1014D0002846FFF7D8FF0646E01CC1B23046FFF7AA
:1014E000E0FF0746E01C3754211DC8B2FFF7BCFFE0
:1014F000BDE8F08110B54FF4003001F0A6FD18B141
:101500004FF4003001F0B5FD10BD10B54FF40050A0
:1015100001F09BFD18B14FF4005001F0AAFD10BD81
:101520000020044870470000920300200438014066
:10153000440002407403002030B500280ADA012478
:10154000FE4D2C600024FE4DC5F8B8414442FD4DCF
:101550002C8008E00024F94D2C600124F84DC5F8DA
:10156000B841F84D288000290CDA0124F34D083DDC
:101570002C600024F24DC5F8B0414C42F14D2D1FB6
:101580002C800AE00024ED4D083D2C600124EC4D38
:10159000C5F8B041EB4D2D1F2980002A0BDA00243D
:1015A000E94D2C600124E94DC5F888415442E54DD0
:1015B00008352C8009E00124E34D2C600024E34D24
:1015C000C5F88841DF4D08352A80002B0CDA00244D
:1015D000DD4D083D2C600124DC4DC5F880415C42A6
:1015E000D84D2D1D2C800AE00124D74D083D2C60DC
:1015F0000024D64DC5F88041D24D2D1D2B8030BD25
:10160000D34909684242914202DA4142D04A11600C
:10161000CF490968814201DDCD490860CD4909689B
:101620004242914202DA4142CA4A1160C9490968FC
:10163000814201DDC7490860C749096842429142B9
:1016400002DA4142C44A1160C3490968814201DD9E
:10165000C1490860C14909684242914202DA4142E7
:10166000BE4A1160BD490968814201DDBB4908607D
:1016700070472DE9F04704460D46281BB84908601D
:101680000846006801F0DEFD8146B648016848461C
:1016900001F068FD0746B2490968B34A1268881A22
:1016A00001F0D0FD8146B1480168484601F05AFD7D
:1016B0008046394601F0FEFC064601F0CCFD00B242
:1016C000AB490880AB480068B1F900100844A9494B
:1016D000086008460068B0F5E15F02DD4FF4E150B4
:1016E0000860A448006810F5E15F02DAA248A14949
:1016F00008609B4800689C4908609E480068BDE8F7
:10170000F0872DE9F04704460D46281B9B490860E9
:101710000846006801F096FD8146924801684846F7
:1017200001F020FD074695490968954A1268881A14
:1017300001F088FD81468D480168484601F012FDA0
:101740008046394601F0B6FC064601F084FD00B241
:101750008C4908808C480068B1F9001008448A4917
:10176000086008460068B0F5E15F02DD4FF4E15023
:1017700008608548006810F5E15F02DA7E4882491A
:1017800008607E4800687E4908607F480068BDE8C0
:10179000F0872DE9F04704460D46281B7B49086079
:1017A0000846006801F04EFD81466E4801684846D3
:1017B00001F0D8FC074675490968754A1268881A0D
:1017C00001F040FD814669480168484601F0CAFCC5
:1017D0008046394601F06EFC064601F03CFD00B241
:1017E0006C4908806C480068B1F9001008446A49E7
:1017F000086008460068B0F5E15F02DD4FF4E15093
:1018000008606548006810F5E15F02DA5A486249ED
:1018100008605E4800685E4908605F480068BDE88F
:10182000F0872DE9F04704460D46281B5B49086008
:101830000846006801F006FD81464A4801684846AE
:1018400001F090FC074655490968554A1268881A04
:1018500001F0F8FC814645480168484601F082FCE9
:101860008046394601F026FC064601F0F4FC00B241
:101870004C4908804C480068B1F9001008444A49B6
:10188000086008460068B0F5E15F02DD4FF4E15002
:1018900008604548006810F5E15F02DA36484249C1
:1018A00008603E4800683E4908603F480068BDE85F
:1018B000F08710B53D48008A00F0010000283BD0B9
:1018C0003A48008A20F00100384908820120FFF7D9
:1018D00010FC4042364908603648006809680844F0
:1018E000344908600320FFF704FC3349086033489B
:1018F000006809680844314908600420FFF7F9FBD3
:101900002F4908602F480068096808442D4908607D
:101910000220FFF7EEFB40422B4908602B4800688D
:101920000968084429490860294801682048006876
:10193000FFF777FF06494DE0E9E00000BC81214256
:1019400000802142383401408C01224200002242B2
:101950000003002004030020080300200C030020E3
:1019600094020020440300209C0200204003002039
:101970006602002098020020E0E3FFFF88020020BA
:1019800090020020640200208C0200207C020020D3
:1019900084020020620200208002002070020020E9
:1019A0007802002060020020740200200010004035
:1019B000100300202003002018030020280300202B
:1019C0001C0300202C03002014030020240300200B
:1019D000000000200860FE480168FE480068FFF72C
:1019E000D8FEFD490860FD480168FD480068FFF722
:1019F00088FEFC490860FC480168FC480068FFF765
:101A000038FEFB49086041F27070FFF7F9FDF848B5
:101A10000368F4480268F0480168F6480068FFF778
:101A20008BFDF5480088000AF4498870F248007878
:101A3000C870F3480088000A0871F14800784871BE
:101A4000EC480088000A8871EA480078C871ED48BF
:101A50000088000A0872EB4800784872DC48008869
:101A6000000A8872DA480078C872DA480088000AEA
:101A70000873D84800784873D7480088000A8873EC
:101A8000D5480078C873E0480088000A0874DE482A
:101A900000784874D1480088000A8874CF480078DC
:101AA000C874CF480088000A0875CD48007848758A
:101AB000CC480088000A8875CA480078C875D348A1
:101AC0000088000A0876D14800784876C648008821
:101AD000000A8876C4480078C876C4480088000A9E
:101AE0000877C24800784877C1480088000A88779C
:101AF000BF480078C877C6480088000A81F82000EF
:101B0000C348007881F821000846FFF7D8FCC14897
:101B10000078401EC0B2BF49087038B93220087042
:101B2000BD480068C043BD49C1F8A40110BD30B52F
:101B3000B04C24684542AC4202DA4442AD4D2C60C0
:101B4000AC4C2468844201DDAA4C2060A24C24687D
:101B50004D42AC4202DA4C429F4D2C609E4C2468B0
:101B60008C4201DD9C4C21609E4C24685542AC4265
:101B700002DA54429B4D2C609A4C2468944201DD59
:101B8000984C22609A4C24685D42AC4202DA5C4276
:101B9000974D2C60964C24689C4201DD944C236048
:101BA00030BD014640F2564291421FDA0120002228
:101BB0009B4B1A801B1F1A80994B08331A801B1FDE
:101BC0001A80954B18331A60944BC3F8B821924B86
:101BD00010331A601B1F1A60924B1A601B1F1A6089
:101BE0001B1F1A60904BC3F8802100E00020704753
:101BF0000146002901DA484200E0084670472DE915
:101C0000F04704460D46601B01F01CFB8749086045
:101C1000084601688648006801F04CFA844908606B
:101C200084498348006801F039FB02D28148804929
:101C3000086081497E48006801F026FB02D27E4898
:101C40007B4908607D4801687848006801F084FAA3
:101C500080467B480168404601F084FA064679498F
:101C60007948006801F0B0FA824671480168504630
:101C700001F078FA80466D4801687448006801F008
:101C800071FA8146414601F015FA0746314601F0E6
:101C900011FA6F49086065480068684908606C4837
:101CA000006801F0D8FABDE8F0872DE9F047044656
:101CB0000D46601B01F0C6FA6649086008460168D7
:101CC0006548006801F0F6F96349086059496248BF
:101CD000006801F0E3FA02D256485F4908605649AD
:101CE0005D48006801F0D0FA02D253485A490860B2
:101CF0005A4801685748006801F02EFA804650485B
:101D00000168404601F02EFA06464E494E480068EA
:101D100001F05AFA824650480168504601F022FA12
:101D200080464C4801684948006801F01BFA81462A
:101D3000414601F0BFF90746314601F0BBF9484979
:101D4000086044480068454908604548006801F05B
:101D500082FABDE8F0872DE9F04704460D46601B86
:101D600001F070FA3F490860084601683E48006883
:101D700001F0A0F93C4908602E493B48006801F099
:101D80008DFA02D22B48384908602B493648006842
:101D900001F07AFA02D228483349086033480168D2
:101DA0003048006801F0D8F980462548016840466F
:101DB00001F0D8F9064623492348006801F004FAE7
:101DC000824629480168504601F0CCF980464FE030
:101DD0000400002014030020040300200800002059
:101DE00018030020080300200C0000201C03002022
:101DF0000C03002000030020000000203802002017
:101E00001003002060020020620200206402002013
:101E1000660200206C020020A48121420080214241
:101E2000383401408C01224200002242A0020020EE
:101E3000A80200200050C3470050C3C7AC020020D6
:101E4000500300200000C8424C030020480300203B
:101E5000A4020020B0020020B8020020BC02002032
:101E6000B4020020C0020020C8020020CC020020E2
:101E7000384801683848006801F074F981464146E5
:101E800001F018F90746314601F014F933490860AA
:101E900030480068324908603048006801F0DBF9DA
:101EA000BDE8F0872DE9F04704460D46601B01F0C0
:101EB000C9F92C490860084601682B48006801F000
:101EC000F9F82949086029492748006801F0E6F92E
:101ED00002D226482449086025492348006801F0B9
:101EE000D3F902D2224820490860224801681D48DF
:101EF000006801F031F980461F480168404601F052
:101F000031F906461D491E48006801F05DF9824618
:101F100015480168504601F025F9804611480168CE
:101F20000D48006801F01EF98146414601F0C2F8F3
:101F30000746314601F0BEF81249086009480068BA
:101F40000C4908600F48006801F085F9BDE8F0878A
:101F500070470000C002002048030020C402002097
:101F6000CC020020D0020020D80200200050C3473D
:101F70000050C3C7DC020020500300200000C8420C
:101F80004C030020D402002010B56FF0040000F0D4
:101F9000B2F92E4800682E49B0FBF1F02D490870C7
:101FA0000846007800EB4001C1EBC0104FF6FF710E
:101FB00001EAC0002849088010BD0146254A127870
:101FC0004A434FF0E0235A6100229A611A4612698F
:101FD00042F001021A6100BF4FF0E022106900F0E8
:101FE00001021AB100F48032002AF5D04FF0E0224D
:101FF000126922F001024FF0E0231A6100229A6177
:1020000070470146144A12884A434FF0E0235A6150
:1020100000229A611A46126942F001021A6100BF59
:102020004FF0E022106900F001021AB100F4803292
:10203000002AF5D04FF0E022126922F001024FF0A1
:10204000E0231A6100229A61704700001C00002002
:1020500000127A00E0020020E202002030BF704748
:1020600072B6704762B670472DE9F0410746884660
:1020700014461D464FF4A06000F0EEF8C5F10400D0
:1020800007FA00F60F20284100EA0800064306F090
:102090000F06E21704EBD2625211920002F1E02225
:1020A000D2F800212146E31704EBD3635B11A4EBC4
:1020B000431C012303FA0CF31A432046E31704EBF5
:1020C000D3635B119B0003F1E023C3F800210D48AB
:1020D000005D40EA06100B490855BDE8F081014655
:1020E0000906094A926942F00102074B9A61074AC0
:1020F000526822F0E062054B5A601A4652680A4361
:102100005A60704700E400E0001002400000014007
:10211000014600BF704700BF424A128802F04002E9
:10212000002AF9D0C2B23F4B1B1D1A80704710B570
:1021300086B00446012144F2040000F017FC4FF47D
:102140000070ADF8140003208DF8160018208DF8EB
:10215000170005A9344800F04DF94FF48060ADF840
:10216000140004208DF8170005A92F4800F042F94B
:1021700001940020ADF80800ADF80A00ADF80C009D
:10218000ADF810000C20ADF80E0001A9254800F0B4
:1021900094FC0122C021234800F04CFD012121487C
:1021A00000F017FD06B010BD10B540F225511D48D6
:1021B00000F000FE10B31B4800F07CFDC4B21B48C9
:1021C000008800F40040C8B91848008800F4804036
:1021D00060B10A2C03D000201449088020E0134885
:1021E000008840F400401149088019E00D2C06D108
:1021F0000E48008840F480400C49088010E00B48ED
:102200000088C0F30D000A490C5408480088401C9F
:102210000649088008460088C72801DD002008809C
:1022200010BD00000038014000080140E802002015
:10223000CE0300200648804706480047FEE7FEE739
:10224000FEE7FEE7FEE7FEE7FEE7FEE7FEE7FEE766
:10225000EB0700083101000831490143314A1160A0
:10226000704770B5002100230F22C47804B32D4CB1
:10227000246804F4E064C4F5E064210AC1F10403B5
:10228000CA40447804FA03F18478144021430901D8
:10229000254C0678A155047804F01F050124AC40B4
:1022A00005786D11AD0005F1E025C5F8004109E0A4
:1022B000047804F01F050124AC401C4D067876110B
:1022C00045F8264070BD1A4A0A400243154B1B1FB1
:1022D0001A60704739B1134A121D12680243114B3C
:1022E0001B1D1A6006E00F4A121D126882430D4B37
:1022F0001B1D1A607047042808D14FF0E0210969BE
:1023000041F004014FF0E022116107E04FF0E021BD
:10231000096921F004014FF0E022116170470000CB
:102320000000FA050CED00E000E400E080E100E0D0
:1023300080FFFF1F10B50446CC48844208D101211C
:10234000042000F02DFB0021042000F029FB46E0D2
:10235000C748844208D10121082000F021FB002158
:10236000082000F01DFB3AE0C248844208D1012158
:10237000102000F015FB0021102000F011FB2EE0D2
:10238000BD48844208D10121202000F009FB002132
:10239000202000F005FB22E0B848844208D101214A
:1023A000402000F0FDFA0021402000F0F9FA16E08C
:1023B000B348844208D10121802000F0F1FA0021C5
:1023C000802000F0EDFA0AE0AE48844207D10121F6
:1023D000801500F0E5FA0021A01500F0E1FA10BD2B
:1023E00010B50121084600F0DBFA0021012000F0C1
:1023F000D7FA10BD2DE9F041024600250026002045
:1024000000230024002791F803C00CF00F0591F879
:1024100003C00CF0100CBCF1000F03D091F802C007
:102420004CEA050591F800C0BCF1000F31D01468EA
:1024300000202BE04FF0010C0CFA00F3B1F800C0C3
:102440000CEA03069E4220D183004FF00F0C0CFAD9
:1024500003F7BC4305FA03FC4CEA040491F803C0FB
:10246000BCF1280F06D14FF0010C0CFA00FCC2F8A9
:1024700014C00AE091F803C0BCF1480F05D14FF039
:10248000010C0CFA00FCC2F810C0401C0828D1D383
:102490001460B1F800C0BCF1FF0F34DD54680020B7
:1024A0002EE000F1080C4FF0010808FA0CF3B1F827
:1024B00000C00CEA03069E4221D183004FF00F0CAE
:1024C0000CFA03F7BC4305FA03FC4CEA040491F848
:1024D00003C0BCF1280F05D100F1080C08FA0CF874
:1024E000C2F8148091F803C0BCF1480F07D100F185
:1024F000080C4FF0010808FA0CF8C2F81080401CD4
:102500000828CED35460BDE8F0814FF6FF710180FA
:10251000022181700421C170704702460020936837
:102520000B400BB1012000E0002070470146886895
:1025300080B2704702460020D3680B400BB10120E7
:1025400000E0002070470146C86880B27047016112
:102550007047416170470AB1016100E04161704715
:10256000C16070474FF480320A43826181618261A9
:1025700082698269704702460020434B18684FF613
:102580008073184040EA021008433F4B18607047C0
:102590003E49C8617047F0B50A4600230024002177
:1025A000002500F00046B6F1004F02D1364EF16929
:1025B00001E0354E7168C0F3034583B200F4401664
:1025C000B6F5401F08D121F070612F4E766826F0D5
:1025D00070662D4F7E6012E000F48016B6F5801F05
:1025E00006D1032606FA05F4A14341F0706106E026
:1025F000460D360103FA06F6B14341F0706122B18F
:10260000460D360103FA06F6314300F00046B6F1F6
:10261000004F02D11C4EF16101E01B4E7160F0BD14
:1026200030B500228B071C0F0F2303FA04F2164B60
:1026300008338C1053F824309343134C08348D1016
:1026400044F8253023468C1053F824308C07240F8F
:1026500000FA04F423430C4C08348D1044F8253060
:1026600030BD0A49DC3108607047000000080140B5
:10267000000C01400010014000140140001801400E
:10268000001C0140002001400000014000002042E9
:10269000DF48006840F00100DD49086008464068F6
:1026A000DC490840DA49486008460068DA490840D1
:1026B000D74908600846006820F480200860084672
:1026C000406820F4FE0048604FF41F0088607047A7
:1026D000CF49096821F48031CD4A1160114609685B
:1026E00021F480211160B0F5803F03D0B0F5802F38
:1026F0000ED106E0C649096841F48031C44A116030
:1027000007E0C349096841F4A021C14A116000E013
:1027100000BF00BF704710B5014600220023002013
:102720004A11012A02D1BA4C236806E0022A02D1DA
:10273000B74C236A01E0B64C636A01F01F02012422
:1027400094401C400CB1012000E0002010BD38B5C1
:10275000002000900024002500BF3120FFF7DBFFA0
:1027600005460098401C00900098B0F5A06F01D07D
:10277000002DF2D03120FFF7CEFF08B1012400E098
:102780000024204638BD01460020A14A106820F0F0
:10279000F80040EAC10010607047A0490860704727
:1027A000024600209A4B586820F47C1042EA01034C
:1027B0001843974B58607047984908667047014620
:1027C0000020934A506820F003000843506070478F
:1027D0008F48406800F00C007047014600208C4A8A
:1027E000506820F0F0000843506070470146002018
:1027F000874A506820F4E060084350607047014603
:102800000020834A506820F4605040EAC1005060C4
:10281000704729B17E4A527A02437D4B5A7204E0D6
:102820007B4A527A82437A4B5A7270477B49D8313D
:102830000860704701460020754A506820F4404007
:102840000843506070470021714A20321170704A6D
:1028500082F82010012802D004280AD104E00121C6
:102860006B4A2032117005E00521694A203211704F
:1028700000E000BF00BF70476949086070476449C5
:10288000096A0143624A1162704765494439086028
:10289000704730B500210022002400235C4D6D6894
:1028A00005F00C0121B1042905D0082923D105E048
:1028B0005C4D056022E05B4D05601FE0544D6D6886
:1028C00005F47012524D6D6805F48034022505EB55
:1028D00092421CB9544D554305600BE04C4D6D6858
:1028E00005F400351DB1504D5543056002E04D4DD6
:1028F0005543056002E04B4D056000BF00BF444DED
:102900006D6805F0F0010909484D6B5C0568DD4014
:1029100045603F4D6D6805F4E061090A434D6B5C0D
:102920004568DD4085603A4D6D6805F46051C90A1F
:102930003E4D6B5C4568DD40C560354D6D6805F406
:102940004041890B3A4D6B5CC568B5FBF3F50561F9
:1029500030BD29B12E4A526902432D4B5A6104E021
:102960002B4A526982432A4B5A61704729B1284A3F
:1029700092690243264B9A6104E0254A9269824398
:10298000234B9A61704729B1214AD2690243204BF7
:10299000DA6104E01E4AD26982431D4BDA61704756
:1029A00029B11B4AD2680243194BDA6004E0184A85
:1029B000D2688243164BDA60704729B1144A126913
:1029C0000243134B1A6104E0114A12698243104B0F
:1029D0001A61704712494039086070470F49C8644E
:1029E00070470B49C87170470948406A40F08070D1
:1029F00007494862704701460020054A92680A402C
:102A00000AB1012000E00020704701498872704738
:102A1000001002400000FFF8FFFFF6FE00004242F7
:102A20008004424200127A0000093D00EA020020C0
:102A3000FA02002010B50446FB48844209D1012166
:102A40008803FFF7ADFF00214FF48040FFF7A8FF98
:102A500032E0F648844209D101214804FFF7ADFF76
:102A600000214FF40030FFF7A8FF25E0F048844232
:102A700009D101218804FFF7A0FF00214FF4802035
:102A8000FFF79BFF18E0EB48844209D10121C804FD
:102A9000FFF793FF00214FF40020FFF78EFF0BE0BC
:102AA000E548844208D101210805FFF786FF00218F
:102AB0004FF48010FFF781FF10BD2DE9F04786B07D
:102AC00005460E460024A24600BFA1460027B08955
:102AD00000B100BF2F462C8A4CF6FF700440F088EE
:102AE00004432C82AC894EF6F3100440B08831893F
:102AF0000843718908430443AC81AC8A4FF6FF4018
:102B00000440B0890443AC8201A8FFF7C2FEC64866
:102B1000874202D1DDF810A001E0DDF80CA0A88901
:102B200000F4004040B10AEBCA0000EB0A10316823
:102B30004900B0FBF1F807E00AEBCA0000EB0A100D
:102B400031688900B0FBF1F86420B8FBF0F00401B3
:102B50002009642101FB1089A88900F4004040B1DC
:102B6000322000EBC900B0FBF1F000F00700044395
:102B700008E0322000EB09106421B0FBF1F000F016
:102B80000F0004432C8106B0BDE8F0874FF41651C6
:102B9000016000218180C18001810C2141810021DF
:102BA0008181704710B502460020108A4FF2FF0362
:102BB00018400B884C8823438C882343CC882343BC
:102BC0001843108210BD0021018041808180C180A6
:102BD000704721B1828942F40052828104E08289E7
:102BE0004DF6FF731A4082817047F0B5034600240A
:102BF00000260025002040F66A17B94200D100BF28
:102C00001846C1F3421401F01F06012707FA06F522
:102C1000012C01D10C3004E0022C01D1103000E075
:102C200014301AB107682F43076002E00768AF430A
:102C30000760F0BD1AB1838A0B43838202E0838A66
:102C40008B4383827047028A4FF6F0731A400282E8
:102C5000028A0A430282704782894FF2FF731A4048
:102C6000828182890A438281704721B1828942F040
:102C70000202828104E082894FF6FD731A4082814C
:102C80007047028A4FF6DF731A400282028A0A43B3
:102C90000282704721B1028A42F48042028204E03B
:102CA000028A4BF6FF731A4002827047C1F3080292
:102CB0008280704701468888C0F308007047818988
:102CC00041F0010181817047028BD2B20283028BF5
:102CD00042EA012202837047028B02F47F420283A0
:102CE000028B0A430283704721B1828A42F020029C
:102CF000828204E0828A4FF6DF731A408282704734
:102D000021B1828A42F01002828204E0828A4FF668
:102D1000EF731A408282704721B1828A42F0080222
:102D2000828204E0828A4FF6F7731A4082827047EB
:102D300021B1828942F40042828103E08289C2F398
:102D40000E028281704721B1828A42F4006282823F
:102D500004E0828A4FF2FF731A4082827047828AAF
:102D60004FF6FB731A408282828A0A43828270473E
:102D700021B1828A42F00202828204E0828A4FF606
:102D8000FD731A408282704702460020B1F5007F31
:102D900000D100BF13880B400BB1012000E00020E0
:102DA000704701F40072B2F5007F00D100BFCA4342
:102DB0000280704770B502460024002300250020E1
:102DC00040F66A16B14200D100BFC1F3421501F0CE
:102DD0001F03012606FA03F3012D02D19689334021
:102DE00006E0022D02D1168A334001E0968A334074
:102DF0000C12012606FA04F41688344013B10CB103
:102E0000012000E0002070BD10B50022002340F634
:102E10006A14A14200D100BF0A1201249440A3B257
:102E2000DC43048010BD0000003801400044004035
:102E300000480040004C00400050004001684FF640
:102E4000FE72114001600021016041608160C1603B
:102E50008D49884208D18C490839496841F00F01F1
:102E6000894A083A51608AE087491431884208D17A
:102E700085490839496841F0F001834A083A5160B0
:102E80007DE081492831884208D17F490839496865
:102E900041F470617C4A083A516070E07A493C31F3
:102EA000884208D178490839496841F47041764A26
:102EB000083A516063E074495031884208D1724940
:102EC0000839496841F470216F4A083A516056E068
:102ED0006D496431884208D16B490839496841F429
:102EE0007001694A083A516049E06749783188427F
:102EF00008D165490839496841F07061624A083A69
:102F000051603CE06149884206D1011F096841F0E7
:102F10000F01021F116032E05C491431884208D170
:102F20005A49091F096841F0F001584A121F1160FF
:102F300025E056492831884208D15449091F0968BB
:102F400041F47061514A121F116018E04F493C3141
:102F5000884208D14D49091F096841F470414B4A24
:102F6000121F11600BE049495031884207D147498F
:102F7000091F096841F47021444A121F116070470B
:102F800010B50022026847F6F0739A430C6A8B680A
:102F900023430C6923434C6923438C692343CC6945
:102FA00023434C6A23438C6A23431A430260CB6851
:102FB00043600B6883604B68C36010BD00210160F3
:102FC00041608160C160016141618161C1610162F3
:102FD00041628162704721B1026842F001020260E1
:102FE00004E002684FF6FE731A40026070471AB19F
:102FF00003680B43036002E003688B430360704780
:10300000416070470146486880B270470146002021
:10301000002201F080531BB11C4B083B1A6802E0F0
:10302000194B083B1A6802EA01030BB1012000E0CA
:103030000020704700F0805119B11449091F086041
:1030400002E011490839486070470146002000221B
:1030500001F080531BB10D4B083B1A6802E00A4B8C
:10306000083B1A6802EA01030BB1012000E00020CE
:10307000704700F0805119B10449091F086002E04F
:1030800001490839486070470800024008040240BE
:1030900040EA01039B0703D009E008C9121F08C0DA
:1030A000042AFAD203E011F8013B00F8013B521E5A
:1030B000F9D27047F0B480EA0102D40F4200B2EBBB
:1030C000410F02D20246084611464A0042D0C30DC3
:1030D000DDB2C1F3C752AD1A202D35DAC1F31601A6
:1030E00041F4000204B15242C5F1200602FA06F191
:1030F0002A411044B3EBD05F23D0C4B1012DA0EB23
:10310000C35009DCF0BC4FF0004202EAC352DBB20C
:1031100000F5000000F0D5B8400000F1807000EB31
:10312000C350A0F1807040EAD170490009E049081D
:1031300041EAC071A0EBC35000F50000400800EB6D
:10314000C350F0BC00F0B4B86142012202EB41016F
:10315000001BF6E7F0BC704781F00041AAE780F061
:103160000040A7E780EA010210B502F000434000EA
:1031700022D04A001FD0010E01EB1261C0F35600AD
:10318000C2F3560240F4000042F40002A0FB022009
:1031900000047F39140400D0401C50EA124001D4CE
:1031A0004000491EC2B20C0604EBD010401C40087F
:1031B000802A02D003E0002010BD20F00100002989
:1031C00000DA0020184310BD30B480EA010202F09A
:1031D000004530F0004221F0004013D090B1C30D03
:1031E000D40DC2F31601C0F31600E41A41F4000135
:1031F00040F400027D34914201D3641C00E0490098
:10320000002C02DA30BC002070474FF4000000238D
:10321000914201D3891A034340084FEA4101F7D193
:1032200051B1914202D14FF0004105E002D24FF07E
:10323000010101E06FF0010103EBC450284430BCF0
:1032400000F036B8C10F80EAE0700844CA07962340
:10325000002100F036B800F0004220F00040C10D1F
:10326000C0F3160040F400007F2901DA0020704707
:10327000962903DCC1F19601C84001E096398840E7
:10328000002AF4D040427047002801DBC0F1004022
:10329000002901DBC1F1004181427047002801DBB8
:1032A000C0F10040002901DBC1F1004188427047B4
:1032B0000029A8BF7047401C490008BF20F001004A
:1032C000704710B4B0FA80FC00FA0CF050EA010428
:1032D00004BF10BC704749B1CCF1200421FA04F4BA
:1032E00011FA0CF118BF012121430843A3EB0C0193
:1032F000CB1D4FEA00614FEA102042BF002010BCF6
:10330000704700EBC35010440029A4BF10BC7047A5
:10331000401C490008BF20F0010010BC70470000AD
:10332000064C074D06E0E06840F0010394E8070012
:1033300098471034AC42F6D3FCF7FEFEB8330008D1
:10334000D833000870B58C1810F8015B15F007032E
:1033500001D110F8013B2A1106D110F8012B03E02E
:1033600010F8016B01F8016B5B1EF9D12B0705D436
:103370000023521E0DD401F8013BFAE710F8013B7F
:10338000CB1A921C03E013F8015B01F8015B521E9B
:10339000F9D5A142D8D3002070BD02E008C8121FA1
:1033A00008C1002AFAD170477047002001E001C12E
:1033B000121F002AFBD17047D833000800000020FC
:1033C0005403000044330008303500085403002043
:1033D00044050000AA330008011D84A24A043009F4
:1033E00001020304060708092808C1814001C080C2
:1033F0004104690C2908E918A91C091A3009163872
:10340000093660092E70092F6000FF00C0C101C39A
:103410000302C2C60607C705C5C404CC0C0DCD0FF8
:10342000CFCE0E0ACACB0BC90908C8D81819D91BA8
:10343000DBDA1A1EDEDF1FDD1D1CDC14D4D515D728
:103440001716D6D21213D311D1D010F03031F13378
:10345000F3F23236F6F737F53534F43CFCFD3DFF38
:103460003F3EFEFA3A3BFB39F9F83828E8E929EB08
:103470002B2AEAEE2E2FEF2DEDEC2CE42425E52768
:10348000E7E62622E2E323E12120E0A06061A163D8
:10349000A3A26266A6A767A56564A46CACAD6DAF78
:1034A0006F6EAEAA6A6BAB69A9A86878B8B979BB28
:1034B0007B7ABABE7E7FBF7DBDBC7CB47475B577A8
:1034C000B7B67672B2B373B17170B0509091519338
:1034D00053529296565797559594549C5C5D9D5FB8
:1034E0009F9E5E5A9A9B5B99595898884849894B88
:1034F0008B8A4A4E8E8F4F8D4D4C8C4484854587E8
:103500004746868242438341818062400332F120F4
:103510000281322D01020304040009440607080950
:103520000204060833803F190463A0420300A0414F
:0400000508000131BD
:00000001FF
