:030000000217D70D
:0C17D700787FE4F6D8FD75816202181ED0
:101863000250000002520000025400000256000021
:0E1A570000007F7A7EC17D80DDFEDEFCDFFABE
:011A6500225E
:10198200121A44120026121A81D2AF121A57121AD0
:10199200573002FDE519640170F7121536E4F519A6
:0619A200C202D2AC80EB92
:101873004A000055AA00000000000000FF59000ABA
:101883000000000000000000000000000000000055
:10189300000000000000000000011A00011900010F
:0E18A3001000041100000000041500000000F9
:10174300FEEF2555F555EE3554F55490000FE0FFA7
:011753001D78
:10175400E4FEFCED14B40800507490176C75F003AB
:10176400A4C58325F0C5837302178402178A021760
:101774009202179C0217A70217B00217BA0217C5E4
:101784007C01EF5C80447C02EF5CC313803C7C04EE
:10179400EF5C1313543F80327C08EF5C1313135433
:1017A4001F80277C10EF5CC4540F801E7C20EF5CEC
:1017B400C413540780147C40EF5CC4131354038097
:1017C40009EF5480C41313135401FF7E00227E00DA
:0217D4007F0292
:0117D60022F0
:10004600E51964017003020655740A251AF582E45F
:100056003400F583EFF0E51AB419004003020652A6
:1000660090006DF82828730200B80200CB0200CB7E
:100076000200CB0200CB0200CB0200CB0200CB0277
:1000860000CB0200CB0200CB0200CB0200CB020069
:10009600CB0200CB0200CB0200CB0200CB0200CB8E
:1000A6000200CB0200CB0200CB0200CB0200CE0244
:1000B60000E2740A251AF582E43400F583E0640F41
:1000C6007017051A22051A22740A251AF582E434D5
:1000D60000F583E07003051A22020652740A251AF7
:1000E600F582E43400F583E0600302065090000CCC
:1000F600E0FF7D03121754EF75510025E025E0F56A
:100106005090000CE0FF1D121754EF25E0FEE42589
:1001160051F551EE3550F55090000CE0FF1D1217C9
:1001260054EFFEE42551F551EE3550F55090000B95
:10013600E0FF7D08121754EF7807C333CE33CED8CD
:10014600F92551F551EE3550F55090000BE0FF7D45
:1001560007121754EF7806C333CE33CED8F925519C
:10016600F551EE3550F55090000BE0FF7D06121765
:1001760054EF7805C333CE33CED8F92551F551EE79
:100186003550F55090000BE0FF7D05121754EFC473
:10019600F8540FC868FFEEC454F048FEEF2551F539
:1001A60051EE3550F55090000BE0FF1D121754EF3D
:1001B6007803C333CE33CED8F92551F551EE3550F9
:1001C600F55090000BE0FF7D03121754EF7802C341
:1001D60033CE33CED8F92551F551EE3550F5509042
:1001E600000BE0FF7D02121754EF25E0FFEE33FE11
:1001F600EF2551F551EE3550F55090000BE0FF1DFF
:10020600121754EF2551F551EE3550F55090000D6B
:10021600E0FF7D06121754EF75530025E025E0F543
:100226005290000DE0FF1D121754EF25E0FEE42565
:1002360053F553EE3552F55290000DE0FF1D12179F
:1002460054EFFEE42553F553EE3552F55290000D6A
:10025600E0FF1D121754EF7807C333CE33CED8F91B
:100266002553F553EE3552F55290000DE0FF7D0211
:10027600121754EF7806C333CE33CED8F92553F58B
:1002860053EE3552F55290000DE0FF7D01121754E2
:10029600EF7805C333CE33CED8F92553F553EE3573
:1002A60052F55290000CE0FF7D08121754EFC4F887
:1002B600540FC868FFEEC454F048FEEF2553F553BB
:1002C600EE3552F55290000CE0FF1D121754EF78F0
:1002D60003C333CE33CED8F92553F553EE3552F555
:1002E6005290000CE0FF7D06121754EF7802C333DC
:1002F600CE33CED8F92553F553EE3552F55290004C
:100306000CE0FF7D05121754EF25E0FFEE33FEEFFC
:100316002553F553EE3552F55290000CE0FF1D12B1
:100326001754EF2553F553EE3552F552900010E071
:10033600FF121754EF75550025E025E0F55490009F
:1003460010E0FF1D121754EF25E0FEE42555F55584
:10035600EE3554F554900010E0FF1D121754EFFED1
:10036600E42555F555EE3554F554900010E0FF1D83
:10037600121754EF7807C333CE33CED8F92555F587
:1003860055EE3554F55490000FE0FF7D08121754D2
:10039600EF7806C333CE33CED8F92555F555EE356D
:1003A60054F55490000FE0FF7D07121754EF7805BF
:1003B600C333CE33CED8F92555F555EE3554F5541D
:1003C60090000FE0FF7D06121754EFC4F8540FC8D3
:1003D60068FFEEC454F048121743EF7803C333CED8
:1003E60033CED8F92555F555EE3554F55490000F12
:1003F600E0FF7D04121754EF7802C333CE33CED814
:10040600F92555F555EE3554F55490000FE0FF7D6E
:1004160003121754EF25E0FFEE3312174312174469
:10042600EF75570025E025E0F55690000EE0FF7DBC
:1004360008121754EF25E0FEE42557F557EE35561A
:10044600F55690000EE0FF1D121754EFFEE42557F7
:10045600F557EE3556F55690000EE0FF1D1217546F
:10046600EF7807C333CE33CED8F92557F557EE3597
:1004760056F55690000EE0FF7D05121754EF7806EC
:10048600C333CE33CED8F92557F557EE3556F55644
:1004960090000EE0FF7D04121754EF7805C333CEAB
:1004A60033CED8F92557F557EE3556F55690000E4A
:1004B600E0FF7D03121754EFC4F8540FC868FFEE2F
:1004C600C454F048FEEF2557F557EE3556F55690CD
:1004D600000EE0FF1D121754EF7803C333CE33CE60
:1004E600D8F92557F557EE3556F55690000EE0FF2C
:1004F6007D01121754EF7802C333CE33CED8F925D7
:1005060057F557EE3556F55690000DE0FF7D08126B
:100516001754EF25E0FFEE33FEEF2557F557EE357E
:1005260056F55690000DE0FF1D121754EF2557F5AE
:1005360057EE3556F556900011E0FD7C0064C0700C
:100546001AA3E064027014A3E06417700EA3E064BB
:10055600187008900006E054FE8019ED64C04C70D7
:1005660019900012E0F47012A3E06414700C90006D
:1005760006E04401F054FDF0801C900011E0644058
:100586007014A3E07010A3E06416700A900006E0F1
:100596004402F054FEF0900011E0FA64C0701AA311
:1005A600E064027014A3E06417700EA3E064187090
:1005B60008900006E054FB801D900012E0FD7C00D0
:1005C60064027018A3E064037012A3E06410700C58
:1005D600900006E04404F054F7F0801DED64024CF0
:1005E6007017900013E0F47010A3E06407700A908F
:1005F6000006E04408F054FBF0EA64C07010900076
:1006060010E064087008900006E054EF801990002E
:1006160011E0FD7C0064C27014900010E064387034
:100626000C900006E04410F054DFF08018ED64E909
:100636004C7012900010E06448700A900006E04486
:1006460020F054EFF0751901C2AC8000E4F51A22CF
:080E09008F2F8E2E8D2D8C2CF5
:100E1100E4F532D3E53194C8E53094005003020F74
:100E2100AFE4FFFE7DB47C41AB2FAA2EA92DA82CE7
:100E31001208F460025012E4FFFEFDFCAB2FAA2E53
:100E4100A92DA82C1208F4502D7F007EC07DA87C0E
:100E510043AB2FAA2EA92DA82C1208F4601E401C0A
:100E6100E4FFFE7DB47C43AB2FAA2EA92DA82C1242
:100E710008F460025006753201020FAFE4FFFE7DF7
:100E8100877C42AB2FAA2EA92DA82C1208F4600250
:100E9100501CE4FFFE7DB47C41AB2FAA2EA92DA8E6
:100EA1002C1208F460084006753202020FAFE4FF0D
:100EB100FE7DE17C42AB2FAA2EA92DA82C1208F4AD
:100EC1006002501CE4FFFE7D877C42AB2FAA2EA955
:100ED1002DA82C1208F460084006753203020FAFEA
:100EE1007F007E807D1D7C43AB2FAA2EA92DA82CCF
:100EF1001208F46002501CE4FFFE7DE17C42AB2F3E
:100F0100AA2EA92DA82C1208F460084006753204F7
:100F1100020FAF7F007E807D4A7C43AB2FAA2EA9B2
:100F21002DA82C1208F46002501C7F007E807D1DCC
:100F31007C43AB2FAA2EA92DA82C1208F4600740E0
:100F41000575320580687F007E807D777C43AB2FFD
:100F5100AA2EA92DA82C1208F46002501C7F007E35
:100F6100807D4A7C43AB2FAA2EA92DA82C1208F410
:100F7100600740057532068035E4FFFE7D877C43BE
:100F8100AB2FAA2EA92DA82C1208F46002501C7FA9
:100F9100007E807D777C43AB2FAA2EA92DA82C1231
:100FA10008F4600740057532078003753208AF10F9
:100FB100EF64036005EF64077022AF327E00EF64D7
:100FC100026005EF6408700575100A800FEF640474
:100FD1004E6006EF64064E7003751009AF32EF6480
:100FE10002600FEF6404600AEF64066005EF6408B5
:100FF100700FAF10EF640A6005EF6409700385108C
:0610010032853210AF320F
:0110070022C6
:10153600E4F529F52AF52BF533753400753521FBCD
:101546007A007915AD53AC52AF51AE501210088FD8
:10155600288E278D268C25752901752A00752B0462
:10156600AF24AE23AD22AC211209ABAB29AA2AA91E
:101576002BEE8FF0120ABDAF24AE23AD22AC2112A2
:1015860009AB8E308F31AF28AE27AD26AC25120EB3
:1015960009900004E0FEEF25E025E0FFEE4FF07530
:1015A60033007534007535217B007A007911AD570B
:1015B600AC56AF55AE541210088F288E278D268C48
:1015C60025752901752A00752B021209ABAB29AACC
:1015D6002AA92BEE8FF0120ABD7B017A0079007DD5
:1015E600077C00121905900007EFF0A3EEF07B01CF
:0915F6007A0079007D0A021A2630
:0E1008008E2C8F2D8B308A3189328D828C8315
:10101600E4F539F538F537F536F53DF53CF53BF5AC
:101026003A252DF53FE52C34FCF53EE42582F541C5
:10103600E58334FCF540FCAD41120972E4F549F54F
:1010460048F54775464012141FC004C005C006C0C7
:1010560007AC3EAD3FEC120972E4F549F548F54799
:1010660075464012141FD003D002D001D0001206DC
:101076005D1216038F3D8E3C8D3B8C3AAB33AA3402
:10108600A935120B0AE4FFFEFDFCAB3DAA3CA93BC9
:10109600A83A1208F46033AC40AD41EC120972ABC9
:1010A6003DAA3CA93BA83A120857121947E4FBFA95
:1010B6007934784312074E7BDA7A0F7949784012F1
:1010C60008578F398E388D378C36AB33AA34A9350D
:1010D600120AEAE4FBFA792578441208F4500DABBB
:1010E60033AA34A935120B4444250000AF39AE3873
:1010F600AD37AC36E4FBFAF9F81208F46002500B8F
:10110600C3E53E6480948050028021AF39AE38AD8D
:1011160037AC36E4FBFAF9F81208F460234021D321
:10112600E53F9400E53E648094805014AB39AA38BC
:10113600A937A836E4FFFE7D347C43120659803376
:10114600AF39AE38AD37AC36E4FBFAF9F81208F42D
:1011560060294027D3E53F9400E53E6480948040B3
:101166001AE4FFFE7DB47C43AB39AA38A937A8360A
:1011760012065D8F398E388D378C36E4FFFE7DB4CE
:101186007C43AB39AA38A937A8361208F460134055
:1011960011AB30AA31A932120AEA8F398E388D374F
:1011A6008C36AF39AE38AD37AC36AB30AA31A93252
:0B11B600120B0AAF39AE38AD37AC3673
:0111C100220B
:0A18B100C102021D0000021B00002E
:10002600438E805389F0758A40758CA2C28DD28C1E
:03003600D2A9222A
:03000B000218BC1C
:1018BC00C0E0C0D075D000C006C007758A40758CDA
:1018CC00A2051EE51E7002051D6432451D7006F54D
:1018DC001DF51ED202051CE51C7002051BFFAE1B7C
:1018EC00BE010BBFF408751B00751C00B2B4C28D91
:0918FC00D007D006D0D0D0E032B4
:030023000219A817
:1019A800C0E0C0F0C083C082C0D075D008309807AE
:1019B800C298AF99120046D0D0D082D083D0F0D050
:0219C800E0320B
:101A4400439850758BC4758DFFD28E438E40D2ACB3
:031A5400D2AF22EC
:061A660014F9120AA4FFAE
:081A6C008F993099FDC2992207
:1019CA008B588A59895AAB58AA59A95A120AA4603B
:0F19DA000D055AE55A70020559121A6680E82267
:101A08008B5B8A5C895DAF051DEF6011AB5B055D83
:0E1A1800E55DAA5C7002055C121A6680E92288
:03004300021A742A
:0D1A7400C0E0E59A30E003539AFED0E03266
:0D1A8100439A5075D7C475D6FF438E1422CA
:06000E0014F9120AA4FF20
:0E0014008F9BE59A5402640270F8539AFD2205
:1019E9008B5E8A5F8960AB5EAA5FA960120AA460F8
:0F19F9000D0560E5607002055F12000E80E822A8
:101A26008B2C8A2D892EAF051DEF6011AB2C052E50
:0E1A3600E52EAA2D7002052D12000E80E92269
:100C090000C1814001C0804101C0804100C18140D3
:100C190001C0804100C1814000C1814001C08041C3
:100C290001C0804100C1814000C1814001C08041B3
:100C390000C1814001C0804101C0804100C18140A3
:100C490001C0804100C1814000C1814001C0804193
:100C590000C1814001C0804101C0804100C1814083
:100C690000C1814001C0804101C0804100C1814073
:100C790001C0804100C1814000C1814001C0804163
:100C890001C0804100C1814000C1814001C0804153
:100C990000C1814001C0804101C0804100C1814043
:100CA90000C1814001C0804101C0804100C1814033
:100CB90001C0804100C1814000C1814001C0804123
:100CC90000C1814001C0804101C0804100C1814013
:100CD90001C0804100C1814000C1814001C0804103
:100CE90001C0804100C1814000C1814001C08041F3
:100CF90000C1814001C0804101C0804100C18140E3
:100D090000C0C101C30302C2C60607C705C5C404A2
:100D1900CC0C0DCD0FCFCE0E0ACACB0BC90908C812
:100D2900D81819D91BDBDA1A1EDEDF1FDD1D1CDC02
:100D390014D4D515D71716D6D21213D311D1D01072
:100D4900F03031F133F3F23236F6F737F53534F462
:100D59003CFCFD3DFF3F3EFEFA3A3BFB39F9F838D2
:100D690028E8E929EB2B2AEAEE2E2FEF2DEDEC2CC2
:100D7900E42425E527E7E62622E2E323E12120E032
:100D8900A06061A163A3A26266A6A767A56564A422
:100D99006CACAD6DAF6F6EAEAA6A6BAB69A9A86892
:100DA90078B8B979BB7B7ABABE7E7FBF7DBDBC7C82
:100DB900B47475B577B7B67672B2B373B17170B0F2
:100DC90050909151935352929656579755959454E2
:100DD9009C5C5D9D5F9F9E5E5A9A9B5B9959589852
:100DE900884849894B8B8A4A4E8E8F4F8D4D4C8C42
:100DF90044848545874746868242438341818040B2
:061905008B2C8A2D892EB7
:10190B007561FF7562FFED1DAE0470011C4E602505
:10191B00AB2C052EE52EAA2D7002052D14F9120AFB
:10192B00A46561FF900C09936562F561EF900D0959
:0B193B0093F56280D1E561FEE562FFDC
:01194600227E
:10065600020A17E86480F8E933E83360110460F0B1
:10066600ED33EC337009E8FCE9FDEAFEEBFF22040A
:1006760060DED3EB9FEA9EE99DE8C2E78CF0C2F705
:1006860095F0400CE8CCF8E9CDF9EACEFAEBCFFBD1
:100696001209E285D0F05804700320D5B3E804703F
:1006A600075002B2D5020A2192D5EC0460F7E4CCD9
:1006B600C0E0C398F8603B94186008400DD0E0FB9A
:1006C6000209F9E4FBFAC9FC8028E830E406E4C92B
:1006D600FBE4CAFCE830E305E4C9CACBFCE85407EE
:1006E6006010F8C3E913F9EA13FAEB13FBEC13FCF9
:1006F600D8F130F52FC3E49CFCEF9BFFEE9AFEED9C
:1007060099FDD0E0FBEF4E4D4C701222DB03020A3E
:100716001EEC2CFCEF33FFEE33FEED33FDED30E740
:10072600EB0209F9EF2BFFEE3AFEED39FDD0E0FBC7
:1007360050130BBB0003020A21ED13FDEE13FEEF6F
:0807460013FFEC13FC0209F99A
:10074E00EC4D6011E8497017ED33EC3304600DE4A5
:10075E00FCFFFEFD22E933E8330470F8020A17129B
:10076E0009E258046009E4CC24815006285009029D
:10077E000A21284003020A1EC0E0EB4A7044B980E9
:10078E0006D0E0FB020A0DEF4E701CBD8008EBFF99
:10079E00EAFEE9FD80EBE98DF0A4FEE5F0020837F4
:1007AE00E9CDF9EAFEEBFFEF89F0A4FCE5F0CE8986
:1007BE00F0A42EFFE435F0CD89F0A42DFEE435F043
:1007CE008067EF4E7005BD80D780C3EF8BF0A4AC71
:1007DE00F0EE8BF0A42CFCE435F0F8EF8AF0A42CAC
:1007EE00E5F038FCE433CB8DF0A42CFCE5F03BF8BF
:1007FE00EE8AF0A42CFCE5F038F8E433CF89F0A4AF
:10080E002CFCE5F038CF3400CE89F0A42FFFE5F0B4
:10081E003EFEE433C98DF0A42EFEE5F039CD8AF00C
:10082E00A42FFFE5F03EFEE43DFD33D0E0FB500784
:10083E000BBB000F020A21EC2CFCEF33FFEE33FE54
:06084E00ED33FD0209F983
:10085400020A21EC5D046005E859047003020A17DA
:100864001209E2580460F6EC4860F2EC7004FDFEF4
:10087400FF22C860DB2481C85009C3986002500677
:10088400020A1E9850CAF582E9294B4A7005AB82C8
:10089400020A0D75F0007C1A7880C3EF9BEE9AED86
:1008A40099400DC3EF9BFFEE9AFEED99FDE842F0EF
:1008B400DC23ACF0D0E0FFD0E0FED0E0FDAB822042
:1008C400E7101BEB60BAEC2CFCEF33FFEE33FEEDCC
:1008D40033FD0209F9E803F830E705C0F075F000CC
:1008E400EF2FFFEE33FEED33FD40B830E7C280AAB0
:1008F40074F8CC6480CCC86480C8F58204604FC3AB
:10090400EB9FF5F0EA9E42F0E99D42F0E89C45F049
:10091400603C501DE5825FFFE582D313CB5BCBF4D3
:100924002B5582FB50280ABA002409B900200880FC
:100934001DE5825BFBE582D313CF5FCFF4C3132F96
:100944005582FF50090EBE00050DBD00010CC3EB1E
:100954009FF5F0EA9E42F0E99D42F0E89C45F06084
:0909640007CC4820E701B3EC22A6
:10096D0075F020800E75F010800575F0087D007E05
:10097D00007F003392D530D503120ADCEC334010E2
:10098D00EF33FFEE33FEED33FDEC33FCD5F0ED220E
:0E099D00E5F0247EA2D513CC92E7CDCEFF224A
:1009AB00EDD2E7CD33EC3392D524814006E4FFFE44
:1009BB00FDFC22FCE4CFCECDCC24E0501174FF80A3
:1009CB00EDC3CC13CCCD13CDCE13CECF13CF047040
:0709DB00F030D5DE020ADC5A
:1015FF00020A1722EDA2E7D2E7F9EC3340F260F3CB
:10160F00B4FF08ED547F70E8020A21F82481C2E08C
:10161F00C0E0F40428FAC313FCED92E7FD8C428D71
:10162F00438E448F45EEA2E7E9BA7F02C31334001D
:10163F009400FA75F091A4E5F013F494FE8AF0A4E7
:10164F0033E5F033248CD313FDE492E7FE7F007C67
:10165F003F758302ECC0E0F8EDC0E0F9EEC0E0FAB0
:10166F00EFC0E0FBAC42AD43AE44AF45120857D0DC
:10167F00E0FBD0E0FAD0E0F9D0E0F812065DED64BF
:10168F0080FD30E7011CD583CBED33CC33F8D0E0B0
:0A169F00A2E71328C313CC13FD22A9
:10194700ECC0E0F8EDC0E0F9EEC0E0FAEFC0E0FB74
:1019570012074EEC6480FC7B007A007980783F1296
:10196700065D121603D0E0CFFBD0E0CEFAD0E0CD73
:0B197700F9D0E0CCF81208570213175B
:10141F008F458E448D438C42E4FFFE7D807C3FAB35
:10142F0045AA44A943A8421208F47009AF45AE4437
:10143F00AD43AC4222AF45AE44AD43AC42120A2C91
:10144F00FBAF49AE48AD47AC46120A2CFFBF0108AF
:10145F00E4FFFE7D807C3F22EF64046022EB640496
:10146F00601DBB0127E4FFFEFDFCAB49AA48A9475D
:10147F00A8461208F460084006E4FFFEFDFC227443
:10148F00FFF549F548F547F54602152DE4F54AF500
:10149F004BFFFEFDFCAB45AA44A943A8421208F43A
:1014AF00504BAF49AE48AD47AC461209AB8E4A8F91
:1014BF004BAC4AAD4BEC120972C8ECC8C9EDC9CAA6
:1014CF00EECACBEFCBAF49AE48AD47AC461206598B
:1014DF00E4FBFAF9F81208F470A5AF45AE44AD433A
:1014EF00AC42120A468F458E448D438C42AF45AEB7
:1014FF0044AD43AC421211F6AB49AA48A947A846DE
:10150F0012074E1216E18F498E488D478C46E54BD8
:10151F0030E00B120A468F498E488D478C46AF49F3
:07152F00AE48AD47AC4622B7
:1009E200E9D2E7C933E833F892D5EDD2E7CD33EC5B
:0709F20033FC5002B2D522D4
:1009F900EC30E7100FBF000C0EBE00080DBD00045F
:100A09000BEB6014A2D5EB13FCED92E7FD2274FF0A
:100A1900FCFDFEFF22E480F8A2D574FF13FC7D8063
:030A2900E480EF77
:100A2C00ED33EC33601004700FED547F70057402DD
:0A0A3C0092E0227404220422E42256
:100A4600ED33EC33600A047003BD8004ECB2E7FCBE
:010A5600227D
:1016A90033DA929E35B16011377FE5FE392184899D
:1016B9003AAEC3FF3C1D955B3D6358473E75FDF04F
:1016C9003F3172183F800000C2D5020A21020A1771
:1016D900BD80FA50F3020A1EED33EC330460F17B4E
:1016E9003B7AAA79B8783F12074EED33EC3392D59D
:1016F900247B5011A2D570DB500BED44802404509B
:1017090004A2D580CEEFFBEEFAEDF9ECF81209ABA5
:10171900EFF582F404FC12097712065DC082901677
:10172900A97409120A66ED33CC33D0F092D525F0AD
:0A173900A2D57001C313CC13FD22EA
:1011C2003E9248DA3ECCCCCD3F2AAAAB400000008A
:1011D2003F8000003F9837F03FB504F33FD744FC0F
:1011E2003E3172173EB172173F0515913EDE5BD953
:1011F200D2008002C200EDD2E7F8CD33EC330470A6
:101202000BBD800592D5020A21020A1740FBD314B6
:1012120060F2F5F07C3FEE7A00C39496C8948B405E
:10122200230AC89469C8941A401A0AC89468C894D0
:101232001F40110AC8945AC89425400805F07A0044
:10124200CDC2E7CDC0F08C4C8D4D8E4E8F4FEA2330
:1012520023C0E024D2F582E43411F583120B341258
:10126200065DECC0E0EDC0E0EEC0E0EFC0E0120BC6
:1012720024A84CA94DAA4EAB4F120659D0E0FBD080
:10128200E0FAD0E0F9D0E0B2E7F81208578C4C8DC2
:101292004D8E4E8F4F9011C27403120A57A84CA95B
:1012A2004DAA4EAB4F12074ED0E0600F24DEF582FE
:1012B200E43411F583120B3412065D8C4C8D4D8E85
:1012C2004E8F4FD0E0C3947FFDE49400FC1209726C
:1012D2007B187A727931783F12074EA84CA94DAA31
:1012E2004EAB4F12065D30000B7BD97A5B79DE780C
:0512F2003E12074E2230
:1012F700BE1249253E4CCCCDBEAAAAAB3F8000000A
:101307003E7ADBB03EED63383F24BC7D3F490FDBBF
:10131700ED33ECC2E7CC339200B4FF13ED547F609A
:1013270003020A177FDB7E0F7DC97C3F021412C2BE
:1013370001C3947F401E7007EDD2E794904015EFEC
:10134700FBEEFAEDF9ECF87F007E007D807C3F1222
:101357000857D201ED33EC33248430E705E4C0E0CD
:10136700806D04FAEDD2E754F0C333DAFD54073445
:10137700002323C0E0CCC0E0F8EDC0E0F9EEC0E008
:10138700FAEFC0E0FBE4120977EC24FEFC8C428DF7
:10139700438E448F4512074E7B007A007980783F51
:1013A70012065DECC542B2E7FCEDC543FDEEC54450
:1013B700FEEFC545FFD0E0FBD0E0FAD0E0F9D0E082
:1013C700F812065DA842A943AA44AB451208578CF8
:1013D700428D438E448F459012F77403120A57A823
:1013E70042A943AA44AB4512074ED0E0600F24033D
:1013F700F582E43413F583120B3412065D30010BCA
:101407007BDB7A0F79C978BF12065DED33EC336069
:0814170006ECA20092E7FC22A2
:100A5700C0E0EFFBEEFAEDF9ECF812074ED0E0F547
:100A6700F0EFFBEEFAEDF9ECF8120B24A3A3A3A326
:100A7700E8C0E0E9C0E0EAC0E0EBC0E0C0F0120780
:100A87004E120B34A3A3A3A312065DD0F0D0E0FB54
:0D0A9700D0E0FAD0E0F9D0E0F8D5F0D4229C
:1017E300021982E493A3F8E493A34003F68001F281
:1017F30008DFF48029E493A3F85407240CC8C33307
:10180300C4540F4420C8834004F456800146F6DFD5
:10181300E4800B0102040810204080901863E47EEA
:10182300019360BCA3FF543F30E509541FFEE493CA
:10183300A360010ECF54C025E060A840B8E493A391
:10184300FAE493A3F8E493A3C8C582C8CAC583CABC
:10185300F0A3C8C582C8CAC583CADFE9DEE780BE74
:0118BB00002C
:100AA400BB010689828A83E0225002E722BBFE0250
:090AB400E32289828A83E4932283
:100ABD00BB010A89828A83F0E5F0A3F0225006F784
:0F0ACD0009A7F01922BBFE06F3E5F009F3192281
:0E0ADC00C3E49FFFE49EFEE49DFDE49CFC222B
:100AEA00BB010789828A83020B6A5005E9F8020B67
:100AFA005EBBFE05E9F8020B7689828A83020B2423
:100B0A00BB010789828A83020B8E5005E9F8020B22
:0A0B1A0082BBFE05E9F8020B9A22E7
:100B2400E493FC740193FD740293FE740393FF2217
:100B3400E493F8740193F9740293FA740393FB2217
:100B4400BB010789828A83020BBF5005E9F8020BB7
:0A0B5400A6BBFE05E9F8020BF02233
:0C0B5E00E6FC08E6FD08E6FE08E6FF22C3
:0C0B6A00E0FCA3E0FDA3E0FEA3E0FF22FE
:0C0B7600E2FC08E2FD08E2FE08E2FF22BB
:0C0B8200ECF608EDF608EEF608EFF6229F
:0C0B8E00ECF0A3EDF0A3EEF0A3EFF022DA
:0C0B9A00ECF208EDF208EEF208EFF22297
:100BA600D083D082E493F608740193F60874029316
:090BB600F608740393F67404734D
:100BBF00A8828583F0D083D082120BD6120BD61267
:100BCF000BD6120BD6E473E493A3C583C5F0C5838C
:100BDF00C8C582C8F0A3C583C5F0C583C8C582C880
:010BEF0022E3
:100BF000D083D082E493F208740193F208740293D4
:090C0000F208740393F27404730A
:00000001FF
